:100000000C948A040C94B2040C94B2040C94B204C0
:100010000C94B2040C94B2040C94B2040C94B20488
:100020000C94B2040C94B2040C9481090C94F00961
:100030000C94B2040C94B2040C94B2040C94B20468
:100040000C94B2040C94B2040C94B2040C94B20458
:100050000C94B2040C94B2040C94B2040C94220CD0
:100060000C94B2040C94B2040C94B2040C94B20438
:100070000C94B2040C94B2040C94B2040C94B20428
:100080000C94B2040C94B2040C94B2040C94B20418
:100090000C94B2040C94B2040C94B2040C94B20408
:1000A0000C94B2040C94B2040C94B20400000098B6
:1000B00074BCF4B8000000001F00F50A0A35DF0028
:1000C0000000000101000000010000009874BCF471
:1000D000B8000000000F000DEA1A1DEF000000003C
:1000E00000010000010100000000804CBA5E7ADCD3
:1000F000800000004F806A1515EA0F000000000024
:100100000000010100000000804CBA5E7ADC800033
:1001100000000F00EA1515EA0F00000000010100C1
:10012000010100000000000000F068442222642861
:10013000D000000000000000000C1201000020218F
:100140003D41021C000000000000000000F0684477
:1001500022226428D000000000000000000C1201E0
:10016000004040011D21021C0000000000000000B2
:1001700000F834221191B2946800000000000000E1
:1001800000001F00004040003E40011E0000000033
:10019000000080C000E0100804040810E000C080E7
:1001A00000000000182442010202010102028182C3
:1001B00024180000000080C000E0100804040810AB
:1001C000E000C080000000001824828102020101CA
:1001D00002020142241800000000406000F0080400
:1001E00082820408F000604000000000003E818030
:1001F00001010000010180813E00000000000000BC
:1002000000B0484442424468F00000000000000092
:1002100000001C02413D2120000001120C000000E2
:100220000000000000B0484442424468F000000072
:100230000000000000001C02211D014040000112CE
:100240000C000000000000000058A4A2A1212234EC
:10025000F80000000000000000001E01403E0040C9
:100260004000001F00000000000080C0006050C877
:1002700044848890E000C0800000000018244241BF
:100280004202FEFE0282818224180000000080C02B
:10029000006050C844848890E000C08000000000E6
:1002A000182482818202FEFE02424142241800008C
:1002B0000000406000B0286422424448F0006040E2
:1002C00000000000003E81808101FFFF01818081EC
:1002D0003E00000000000000003E5B4F5B3E3E6BB6
:1002E0004F6B3E1C3E7C3E1C183C7E3C181C577DD0
:1002F000571C1C5E7F5E1C00183C1800FFE7C3E71C
:10030000FF0018241800FFE7DBE7FF30483A060E2D
:100310002629792926407F050507407F05253F5A74
:100320003CE73C5A7F3E1C1C08081C1C3E7F1422E4
:100330007F22145F5F005F5F06097F017F0066898F
:10034000956A606060606094A2FFA29408047E04D5
:100350000810207E201008082A1C08081C2A0808FB
:100360001E101010100C1E0C1E0C30383E383006BB
:100370000E3E0E06000000000000005F00000007B7
:10038000000700147F147F14242A7F2A12231308E5
:10039000646236495620500008070300001C2241C1
:1003A000000041221C002A1C7F1C2A08083E080865
:1003B0000080703000080808080800006060002015
:1003C000100804023E5149453E00427F40007249F8
:1003D0004949462141494D331814127F102745459C
:1003E00045393C4A494931412111090736494949B2
:1003F00036464949291E0000140000004034000020
:100400000008142241141414141400412214080288
:10041000015909063E415D594E7C1211127C7F49FB
:100420004949363E414141227F4141413E7F494950
:1004300049417F090909013E414151737F0808087C
:100440007F00417F41002040413F017F081422414D
:100450007F404040407F021C027F7F0408107F3EA7
:100460004141413E7F090909063E4151215E7F0914
:10047000192946264949493203017F01033F40407B
:10048000403F1F2040201F3F4038403F6314081466
:100490006303047804036159494D43007F4141419E
:1004A0000204081020004141417F0402010204407F
:1004B00040404040000307080020545478407F2803
:1004C0004444383844444428384444287F385454F9
:1004D000541800087E090218A4A49C787F0804041C
:1004E0007800447D40002040403D007F10284400BB
:1004F00000417F40007C047804787C08040478384C
:1005000044444438FC1824241818242418FC7C087B
:10051000040408485454542404043F44243C4040F8
:10052000207C1C2040201C3C4030403C44281028AB
:10053000444C9090907C4464544C440008364100F4
:100540000000770000004136080002010204023C6E
:100550002623263C1EA1A161123A4040207A38543D
:1005600054555921555579412154547841215554B8
:10057000784020545579400C1E5272123955555509
:1005800059395454545939555454580000457C41F4
:100590000002457D420001457C40F0292429F0F00D
:1005A000282528F07C545545002054547C547C0A5E
:1005B000097F4932494949323248484832324A482B
:1005C00048303A4141217A3A42402078009DA0A02B
:1005D0007D39444444393D4040403D3C24FF24247F
:1005E000487E4943662B2FFC2F2BFF0929F620C09C
:1005F000887E090320545479410000447D413048ED
:10060000484A32384040227A007A0A0A727D0D192F
:10061000317D2629292F28262929292630484D4091
:1006200020380808080808080808382F10C8ACBA8D
:100630002F102834FA00007B000008142A1422220C
:10064000142A14089500220095AA005500AAAA555C
:10065000AA55AA000000FF00101010FF0014141487
:10066000FF001010FF00FF1010F010F0141414FC25
:10067000001414F700FF0000FF00FF1414F404FC42
:10068000141417101F10101F101F1414141F001023
:100690001010F0000000001F101010101F1010109C
:1006A00010F010000000FF101010101010101010AB
:1006B000FF10000000FF140000FF00FF00001F10EB
:1006C000170000FC04F414141710171414F404F4A5
:1006D0000000FF00F714141414141414F700F71496
:1006E0001414171410101F101F141414F4141010E5
:1006F000F010F000001F101F0000001F1400000089
:10070000FC140000F010F01010FF10FF141414FF80
:10071000141010101F00000000F010FFFFFFFFFF7B
:10072000F0F0F0F0F0FFFFFF0000000000FFFF0F0F
:100730000F0F0F0F38444438447C2A2A3E147E029F
:10074000020606027E027E02635549416338444434
:100750003C04407E201E2006027E020299A5E7A5E9
:10076000991C2A492A1C4C7201724C304A4D4D305A
:100770003048784830BC625A463D3E494949007E7F
:100780000101017E2A2A2A2A2A44445F4444405116
:100790004A444040444A51400000FF0103E080FFCA
:1007A000000008086B6B083612362436060F090F56
:1007B00006000018180000001010003040FF010172
:1007C000001F01011E00191D1712003C3C3C3C009B
:1007D00000000000070605040100080A0B0C0D09C3
:1007E000F0F89C8E8783878E9CF8F00000FEFF0354
:1007F00003030303070EFCF80000FEFF03030303DB
:1008000003070EFCF80000FFFF00000000000000DE
:10081000FFFF0000FEFF8383838383C7EE7C3800E5
:1008200000F8FC0E07030303070EFCF800003F7FEF
:10083000E0C08080C0E07F3FFFFF010101010101B6
:1008400001FFFF0000FFFF0C0C0C0C1C3E77E3C106
:1008500000007FFFC0C0C0C0C0E0703F1F00001F8D
:100860003F70E0C0C0C0E0703F1F00007FFFC1C10B
:10087000C1C1C1E3773E1C00001F3F70E0C0C0C093
:10088000E0703F1F000000000001FFFF01000000BA
:10089000D5F08D14A1C881CFD9F1AF2000080B008D
:1008A0000202020000090400000102020000052407
:1008B000001001052401010104240206052406009C
:1008C000010705810310004009040100020A00002D
:1008D00000070502024000000705830240000004F3
:1008E00003090412010002EF020140412336800097
:1008F000010102030141726475696E6F204C4C4323
:100900000041726475696E6F204C656F6E61726430
:100910006F009F0C11241FBECFEFDAE0DEBFCDBF0A
:1009200011E0A0E0B1E0ECEEFBE202C005900D9218
:10093000A438B107D9F726E0A4E8B1E001C01D92C0
:10094000A930B207E1F714E0CAE8D4E004C0219767
:10095000FE010E94C914C938D107C9F70E94BC0C16
:100960000C94F4150C940000E1EBF1E0A0E0B8E089
:1009700000800EBC8111012C1197A0FDFDCF0192CA
:10098000B9F70DB408959C0121583F4F2F3F310511
:1009900080F59C0197FF02C030E020E080589F4F17
:1009A0008138910514F080E890E0821BAB0147701C
:1009B000552791E001C0990F4A95EAF777FF02C0E9
:1009C000695F7F4FFB0143E0F595E7954A95E1F7B5
:1009D000F695FE2FEE27F795E795E20FF31FEF54FC
:1009E000FE4F815030F02191DF011197292B2C937C
:1009F000F8CF089580E0E1EBF1E081118FEF002462
:100A000081938193819381930394D1F708954F92B9
:100A10005F926F927F928F929F92AF92BF92CF928E
:100A2000DF92EF92FF920F931F93CF93DF9330E00B
:100A3000F901E80FF91F1E161F060CF08EC0803852
:100A400091050CF08AC0FB013F96EF34F10508F0E8
:100A500084C0DB0177FF04C0AA27BB27A61BB70B06
:100A6000A770BB27FB0177FD3796C3E0F595E795A7
:100A7000CA95E1F777FF07C0319768E070E0EB01B6
:100A8000CA1BDB0BDE01BF018A01AF015695542F53
:100A9000442757954795480F591F4F545E4F4B01B8
:100AA000D2E08D0E911CE8E0F0E03F016A1A7B0A6B
:100AB0006E3FEFEF7E0709F443C07C01D0E0C0E059
:100AC0005A01E0E8AE0EB11CF7FC2EC06F3F76076E
:100AD00009F454C0F801EC0FFD1FE4916A01CC0E3B
:100AE000DD1EF0E02F010A2E01C0440C0A94EAF743
:100AF000F6015080452840821097B1F067307105AB
:100B000099F0F801EC0FFD1FE4916501CC0EDD1E9C
:100B1000F0E02F01062C02C0559447940A94E2F7A6
:100B2000F6015080452840822196FFEFEF1AFF0A18
:100B3000C217D3072CF4F0E8EF16F10409F0C4CF84
:100B40006F5F7F4F020F131F40585F4F8616970647
:100B500021F06830710509F0ABCFDF91CF911F9183
:100B60000F91FF90EF90DF90CF90BF90AF909F904C
:100B70008F907F906F905F904F900895109709F03D
:100B8000C0CFD2CFFC018091B001882311F13FB7D3
:100B9000F89482E08093E9002091F200822F90E0A7
:100BA0001816190614F481E090E0882339F028988B
:100BB00044E64093AF014091F1004083222339F095
:100BC0002091F200211103C02BE62093E8003FBFE3
:100BD00008958FEF9FEF08952FB7F89483E08093E7
:100BE000E9009091E800892F807295FF04C09091F0
:100BF000F20080E4891B2FBF08958091A701811125
:100C00000DC082E08093A30184E08093A401109240
:100C1000A6011092A50181E08093A70183EA91E0EB
:100C20000895CF93DF931F92CDB7DEB76983DC01C0
:100C3000ED91FC910280F381E02D41E050E0BE0196
:100C40006F5F7F4F09950F90DF91CF91089583E0FB
:100C50008093E9008091F200882319F08AE3809361
:100C6000E80008950E94EC0590E00895CF93DF938B
:100C70001F92CDB7DEB7FC018485958597FD08C02E
:100C80002FEF3FEF358724870F90DF91CF910895A5
:100C9000CE0101960E94C205019719F4898190E066
:100CA000F3CF8FEF9FEFF0CF0F931F93CF93DF938F
:100CB0001F92CDB7DEB78C01FC018485958597FF27
:100CC0000BC0CE0101960E94C205019771F4898183
:100CD00090E0F80195878487F801848595850F90C9
:100CE000DF91CF911F910F9108958FEF9FEFF1CF7B
:100CF000FC018485958597FD0BC09FB7F89482E031
:100D00008093E9008091F2009FBF90E001960895E2
:100D10009FB7F89482E08093E9008091F2009FBF32
:100D200090E0089540919D0150919E0120919B017A
:100D300030919C0142175307B4F49091E8009570EC
:100D4000E1F39091E80092FD19C08093F100809149
:100D50009D0190919E0101968F739927892B19F41B
:100D60008EEF8093E80080919D0190919E01019605
:100D700090939E0180939D0181E0089580E0089505
:100D8000DF92EF92FF920F931F93CF93DF93D82EB2
:100D90008A01EB017B01E40EF51ECE15DF0559F04B
:100DA000D7FE12C0FE0184910E9492062196811105
:100DB000F4CF0FEF1FEFC801DF91CF911F910F917B
:100DC000FF90EF90DF9008958881EECF0F931F93EF
:100DD000CF93DF931F92CDB7DEB782E0898342E4E1
:100DE00050E06DE978E080E80E94C0060E94FD05B1
:100DF000DC0112960D911C910115110589F0D801A5
:100E0000ED91FC910280F381E02DBE016F5F7F4F79
:100E1000C801099597FD04C0F80100851185ECCF44
:100E200089810F90DF91CF911F910F9108956150AB
:100E300030F02091F100FC0120830196F8CF289832
:100E400084E68093AF0108953FB7F89480919701AD
:100E500090919801A0919901B0919A0126B5A89B13
:100E600005C02F3F19F00196A11DB11D3FBFBA2F3C
:100E7000A92F982F8827BC01CD01620F711D811DFC
:100E8000911D42E0660F771F881F991F4A95D1F781
:100E900008958F929F92AF92BF92CF92DF92EF927E
:100EA000FF926B017C010E9424074B015C01C1147D
:100EB000D104E104F104B9F00E942407681979090A
:100EC0008A099B09683E73408105910580F321E002
:100ED000C21AD108E108F10888EE880E83E0981E56
:100EE000A11CB11CE4CFFF90EF90DF90CF90BF909A
:100EF000AF909F908F9008958F929F92AF92BF92E4
:100F0000CF92DF92EF92FF920F931F93CF93DF93D5
:100F10006C017B018A0180911A01882309F45CC06D
:100F20008091B001882309F457C08091A20180FF0D
:100F300005C08091E00082608093E000E801B12C60
:100F40008AEFA82E93E0892E2AE3922E209711F49F
:100F5000BB20D9F10E94EC0581110AC0AA94AA20F5
:100F6000D9F161E070E080E090E00E944907EECFA7
:100F70008C171D0611F00CF08C2F9FB7F8948092FF
:100F8000E9002091E80025FD02C09FBFDFCF282F98
:100F900030E0C21BD30BF701815020F04191409308
:100FA000F100FACFE20EF31EBB2021F09092E80090
:100FB000B12CEBCF8091E80085FDE7CF9092E8005F
:100FC000BB24B394209709F3F3CF5D9884E6809314
:100FD000A101101611063CF081E090E0F601938328
:100FE000828310E000E0C801DF91CF911F910F9143
:100FF000FF90EF90DF90CF90BF90AF909F908F9039
:101000000895AF92BF92CF92DF92EF92FF920F932B
:101010001F93CF93DF936C017B018B01040F151F8E
:10102000EB015E01AE18BF08C017D10759F06991F6
:10103000D601ED91FC910190F081E02DC60109955A
:10104000892B79F7C501DF91CF911F910F91FF9007
:10105000EF90DF90CF90BF90AF9008952D9A0895B4
:10106000BC0190E080E00C9449078FB18095807FAF
:10107000669B88601C9B8460089520E191E061FD7F
:1010800094E060FD990F62FD9295687F269FD001E4
:101090001124A80FAF54BE4F8C9140FF03C0892B81
:1010A0008C93089590958923FBCF8038910528F47F
:1010B0006034710510F40C943D0808958F929F924E
:1010C000AF92BF92CF92DF92EF92FF920F931F9356
:1010D000CF93DF936D3089F0C0909001D090910153
:1010E0006A30D1F410928F0110928E0188E0C80E00
:1010F000D11CD0929101C092900181E090E0DF91EB
:10110000CF911F910F91FF90EF90DF90CF90BF9004
:10111000AF909F908F90089500918E0110918F0154
:10112000E5E06E9FE0011124CC52DD4F4801F12C27
:10113000F5E0E12CFF1629F0CE010196FE01E490C6
:10114000EC01B12CA12C4E2D4170B6016A0D7B1D16
:10115000C4010E945508E694FFEFAF1ABF0A88E069
:10116000A816B10481F7F394EFEF8E1A9E0AF6E009
:10117000FF12DECF0A5F1F4F10938F0100938E0185
:10118000BCCFCF93C82F0E943508982F9C2381E0B5
:101190009C1380E0CF91089580E00C94B4048FB745
:1011A000F894409193015091940160919501709150
:1011B00096018FBF80918601882321F010928601CD
:1011C00080E0089590918701242F291B922F209170
:1011D0000001921740F49F5F9217A0F491E093BF33
:1011E000889513BE089581E080938601409387011E
:1011F000809184019091850101969093850180935F
:10120000840181E008956F927F928F929F92AF92B6
:10121000BF92CF92DF92EF92FF920F931F93CF93E3
:10122000DF93EC0170E060E00E94C30410E000E096
:1012300041E0B801CE010E9455080F5F1F4F0034F6
:101240001105B1F75E018FE7A80EB11C10E000E0B8
:1012500041E0B801C5010E9455080F5F1F4F0034DF
:101260001105B1F77E018FEFE81AF80A3E018EE70B
:10127000680E711C6301CE18DF088601D7FE02C01C
:101280000F5F1F4F1595079588248394912CEA14BE
:10129000FB0481F041E0B401C7010E94550817FF2B
:1012A00005C081E0881A91080C0D1D1D8FEFE81A0A
:1012B000F80AEDCF2296C615D70571F003E010E0CD
:1012C00041E0B801CE010E9455080F5F1F4F073063
:1012D0001105B1F72196EFCFDF91CF911F910F91BB
:1012E000FF90EF90DF90CF90BF90AF909F908F9046
:1012F0007F906F900895089590E080E008950C9499
:10130000F1121F920F920FB60F9211248F939F9399
:101310008091E1009091E100937F9093E10083FF41
:101320000FC01092E90091E09093EB001092EC0056
:1013300092E39093ED001092B00198E09093F0004A
:1013400082FF22C093E09093E9009091F2009923EC
:1013500019F09AE39093E8009091A101992341F04C
:101360009091A10191509093A101911101C05D9ABA
:101370009091AF01992341F09091AF0191509093DA
:10138000AF01911101C0289A84FF18C08091E2003A
:101390008E7E81608093E2008091E1008F7E809359
:1013A000E1008091A2018E7E80618093A2019F91D5
:1013B0008F910F900FBE0F901F90189580FFF7CF61
:1013C0008091E2008E7E80618093E2008091E10056
:1013D0008E7E8093E1008091A2018E7E8160E5CFB8
:1013E0001F920F920FB60F921124CF92DF92EF92BD
:1013F000FF920F931F932F933F934F935F936F939E
:101400007F938F939F93AF93BF93EF93FF93CF936C
:10141000DF93CDB7DEB76C97DEBFCDBF1092E9008A
:101420008091E80083FF25C068E0CE0145960E94C8
:10143000170782EF8093E8008D8987FF39C090916C
:10144000E80090FFFCCF982F907609F034C19E8978
:101450004F89588D2F89F88C911131C0803861F5F2
:101460008091A0018093F1001092F1008EEF8093A3
:10147000E8006C960FB6F894DEBF0FBECDBFDF91CB
:10148000CF91FF91EF91BF91AF919F918F917F91FC
:101490006F915F914F913F912F911F910F91FF900D
:1014A000EF90DF90CF900F900FBE0F901F90189588
:1014B0009EEF9093E800C7CF1092F100D5CF913006
:1014C00059F48111D3CF4130510581F68091A001AB
:1014D0008D7F8093A001CACF933049F48111C6CF8C
:1014E0004130510519F68091A0018260F2CF95300C
:1014F00041F48091E80080FFFCCF20682093E30056
:10150000B5CF963009F0A9C00B8D1C8D22E010924A
:10151000E90010929E0110929D01F2122EC01092CD
:101520009C0110929B010E94E6061F8299E099831C
:10153000FA8291E09E8390EA98879AEF99872091AA
:101540009D0130919E01275F3F4F3C832B838D830C
:101550001092E90010929E0110929D0110939C013F
:1015600000939B0149E050E0BE016F5F7F4F80E038
:101570000E94C0060E94E60679CF10939C0100935A
:101580009B010E94FD05DC0112960D911C91011535
:10159000110509F451C1D801ED91FC910480F58148
:1015A000E02DBE016B5E7F4FC8010995009709F0E1
:1015B0003EC1F80100851185EACFF3E0FF120EC0AD
:1015C0008F89882309F440C0823061F440E860E1EB
:1015D00081E099E00E946C0C811148CF81E28093F8
:1015E000EB0047CF813029F440E86BE085EF98E0CD
:1015F000F1CF833099F70E94FD05DC011296ED9042
:10160000FC908E010F5F1F4F6801E114F10479F027
:10161000D701ED91FC910680F781E02DB801C7015B
:101620000995080F111DF701E084F184EECFD80170
:101630001C92F60101900020E9F73197BF016C1967
:101640007D0940E0C601C6CF6FED78E0FB01449113
:1016500050E080E80E94C00609CF973009F4BECF61
:10166000983021F481E08093F10000CF993009F0A7
:10167000FDCE837009F0B2CFE0E6F1E081E031E029
:1016800096E32191222371F08093E9003093EB00DF
:10169000DF0111972C912093EC009093ED008F5F68
:1016A000873079F78EE78093EA001092EA008F89FD
:1016B0008093B001DBCE8B8D9C8D1092E90010924F
:1016C0009E0110929D0190939C0180939B01898DB6
:1016D000811192C08E899D89913A49F4813209F035
:1016E0007DCF47E050E063E171E080E0B3CF91321D
:1016F00009F074CF833269F48F89988DB0E0A0E04F
:1017000080930F0190931001A0931101B0931201E7
:10171000ADCE803269F48091E80082FFFCCF67E0B3
:1017200083E191E00E9417078BEF8093E8009ECE43
:10173000823209F09BCE8F8980931A01EEEFFFE78A
:10174000859194918B3F9C4D51F1E0E0F8E08091C0
:10175000130190911401A0911501B0911601803BE5
:101760009440A105B105F1F480911A0180FD1AC0E1
:10177000EE3F8AE0F80789F587E797E79183808352
:101780008091600080939F0188E19BE00FB6F89400
:10179000A895809360000FBE9093600067CEEEEF37
:1017A000FAE0D5CF808191818737974709F05ECEE7
:1017B000A8958091600088618093600080919F016E
:1017C00080936000EE3F2AE0F20789F08091FE0AE4
:1017D0009091FF0A9183808349CE808191818737E0
:1017E000980751F29093FF0A8093FE0AC5CF10929A
:1017F000FF0A1092FE0A3ACE0E94FD05DC01129605
:101800000D911C910115110509F4E8CED801ED9157
:10181000FC910190F081E02DBE016B5E7F4FC8010D
:101820000995811123CEF80100851185EBCF18169B
:1018300019060CF41BCED2CEF1E0FF12BECE63EE41
:1018400078E004CF1F920F920FB60F9211242F93BE
:101850003F938F939F93AF93BF9380919301909108
:101860009401A0919501B09196013091920123E0ED
:10187000230F2D3758F50196A11DB11D209392011C
:101880008093930190939401A0939501B093960156
:101890008091970190919801A0919901B0919A013E
:1018A0000196A11DB11D8093970190939801A0937B
:1018B0009901B0939A01BF91AF919F918F913F9100
:1018C0002F910F900FBE0F901F90189526E8230FB1
:1018D0000296A11DB11DD2CFEF92FF920F931F93DD
:1018E000CF93DF93F82E192FE62E042F81E0860F79
:1018F000880F0E94920683E00E949206CF2DD12F7E
:10190000EC0EFD2EF11CCE15DF05B9F007FF13C05C
:10191000FE0184910E949206182F80E00E94920698
:10192000812321968111EFCFDF91CF911F910F91EC
:10193000FF90EF9008958881EDCF81E0F5CFE1EB46
:10194000F5E01382128288EE93E0A0E0B0E0848399
:101950009583A683B7838AE691E0918380838FEF96
:101960009FEF95878487E1E0F6E0138212828CE78F
:1019700091E0918380830895CF93DF93CDB7DEB755
:1019800028970FB6F894DEBF0FBECDBF789484B50C
:10199000826084BD84B5816084BD85B5826085BD6B
:1019A00085B5816085BD80916E00816080936E00F9
:1019B00010928100809181008260809381008091EB
:1019C000810081608093810080918000816080939C
:1019D00080008091910082608093910080919100BD
:1019E000816080939100809190008160809390004D
:1019F0008091C10084608093C1008091C1008260A9
:101A00008093C1008091C10081608093C10080916A
:101A1000C30081608093C3008091C0008260809386
:101A2000C0008091C20081608093C20080917A00E2
:101A3000846080937A0080917A00826080937A003B
:101A400080917A00816080937A0080917A0080682A
:101A500080937A001092B0011092A0011092A2011E
:101A60008091D70081608093D70080EA8093D8006E
:101A700089B5806189BD89B5826089BD09B400FEE0
:101A8000FDCF61E070E080E090E00E944907809126
:101A9000D8008F7C80618093D8008091E000807FA7
:101AA0008093E0008091E1008E7E8093E1008DE0E4
:101AB0008093E200559A209AE4EDF7E0E49190914A
:101AC0007B008E2F880F880F80729F7D892B8093DB
:101AD0007B00E770E064E0937C0080917A00806492
:101AE00080937A0080917A0086FDFCCF6091780027
:101AF00070917900072E000C880B990B6115710508
:101B00008105910511F00E94E81284E190E00E94A5
:101B1000CF148C019A8389831C0124E1220E311C8D
:101B200098E5892E912CA12CB12C28E1C22ED12C24
:101B3000E12CF12C34E1432E512C612C712C0E94AC
:101B40009912A50194010E9407136C5E7F4F8F4F7D
:101B50009F4FA981BA816D937C930E949912A7012E
:101B600096010E9407136C5E7F4F8F4F9F4FE98154
:101B7000FA81738362830E949912A30192010E94E9
:101B80000713665F7F4F8F4F9F4FA981BA811596CC
:101B90007C936E93149717961C921E921697199623
:101BA0001C921E9218971A96BA83A983A215B305A0
:101BB00031F6109389010093880181EC80937C00B9
:101BC00085B1806F85B984B1877E84B984B1876E11
:101BD00084B95E9A5F988AB1806D8AB9769A6E9858
:101BE00081B3806F81BB899880B38D7080BB80E5A5
:101BF0008CBD81E08DBD85E090E00E9430085F9A49
:101C000085E090E00E9430085E985C98E0E9F8E09A
:101C100084918EBD00000DB407FEFDCF3196B8E073
:101C2000ED39FB07A9F75C9A81E880936400809105
:101C300065008160809365000E94CC0880E80E9466
:101C4000C1088823A9F05C9885EA8EBD00000DB418
:101C500007FEFDCF5C9A2E982F982D9880916400F6
:101C600080628093640081E083BF889513BEFCCFBF
:101C700084E00E94C108882309F448C02D9884E8B4
:101C80000E94C1088823E1F00E942E0888EC90E0B1
:101C90000E9430082F9882E090E00E94F1128F3F5E
:101CA00029F06FEF82E090E00E94F91284EF91E05A
:101CB0000E9430082F9A84E80E94C1088111FBCF4E
:101CC00084E10E94C1088823E1F00E942E0888EC7C
:101CD00090E00E9430082E9882E090E00E94F1127D
:101CE000882329F060E082E090E00E94F91284EFFE
:101CF00091E00E9430082E9A84E10E94C10881116F
:101D0000FBCF88EC90E00E943008B2CF0E942E08F2
:101D100082E090E00E947F09882309F424C23E9A61
:101D20003F9A81E090E00E947F09182F147081FF94
:101D300010C011112E98E1EFFFEFFA83E98380E4E0
:101D40000E94C108882309F411C22E9A2F9A0E947A
:101D50002E0882E390E00E9430080E94350881112D
:101D6000F8CF80E18093000180910D0190910E01E8
:101D70008130910509F060C30E94CF08882309F4DF
:101D800038C30E94FA0410929101109290011092AF
:101D90008F0110928E0180E40E94C108082F80E21A
:101DA0000E94C108081B110B80E10E94C1088983B1
:101DB00080E80E94C1082981281B330B3A832983BC
:101DC00080918A0190918B010115110519F4232B43
:101DD00009F436C2209101013091020121503109EC
:101DE0003093020120930101121613067CF0019634
:101DF000843091050CF01FC290938B0180938A016F
:101E000048E050E0509302014093010189819A819A
:101E100001969C01220F331F820F931F98012F5FA1
:101E20003F4F820F931FFC01EE0FFF1FE35BFE4F3E
:101E30008081918190938D0180938C01B801110F65
:101E4000880B990B0E9414149B01AC01609107014F
:101E5000709108018091090190910A010E946B1311
:101E600060930701709308018093090190930A0120
:101E7000A981BA81BD01BB0F880B990B0E94141474
:101E80009B01AC01609103017091040180910501F7
:101E9000909106010E946B136093030170930401FB
:101EA0008093050190930601C0900701D09008012E
:101EB000E0900901F0900A0120E030E040E151E4B7
:101EC000C701B6010E94D71387FFCFC180E090E021
:101ED000A0E1B1E48093070190930801A093090168
:101EE000B0930A01C0900301D0900401E090050175
:101EF000F090060120E030E040E851E4C701B6016F
:101F00000E94D71387FFC1C180E090E0A0E8B1E450
:101F10008093030190930401A0930501B0930601FF
:101F200090E080E00E940309609088017090890130
:101F30008090030190900401A0900501B0900601EB
:101F4000C0900701D0900801E0900901F0900A01CB
:101F5000C701B6010E94DC131B01D3011A962D9113
:101F60003C911B97C90104968938910508F0BFC1BF
:101F70001C968D919C911D97AC01485F5F4F403539
:101F8000510508F0B4C15096ED91FC91EE0FFF1F82
:101F9000EB5DFE4F608171816115710509F4A7C188
:101FA00008978C0197FF04C000271127081B190B05
:101FB0000770AC0197FF02C0495F5F4FE3E05595A2
:101FC0004795EA95E1F7142F97FF07C0002329F002
:101FD0001FEF140FB8E0B01B0B2F2901E5E04E1ADC
:101FE0005108E5E0F0E0E21BF30B57FC02C0F0E023
:101FF000E0E02B3731050CF458C120E824192E1BE2
:102000002887212F20951F3F0CF020E038E0311B5E
:1020100016300CF433E0D3015296BC91BD83A32F4C
:10202000A21B120F1F8330E81303A0011124440DDB
:10203000551D4E0F5F1F5A8349834AE0249F90012C
:102040001124E20FF31FE60FF71FB170BB835D8110
:1020500050FF10C0B8856B2F70E0AB0141505109A3
:10206000E40FF51F4AE050E0461B570B57FE21C115
:10207000E41BF50B4D8142704C835D8151FF10C014
:102080004A2F4150550BBA01BAE0B69FA001B79F45
:10209000500D1124E40FF51F97FF0EC1E21BF30B47
:1020A000402F002E000C550B5E834D8369817A8191
:1020B0006F547E4F1A0F5885852F90E02AE0422EEC
:1020C000512C481A590ADC011A96BA83A983BF8198
:1020D0001B1709F40CC150E040E02885421708F0B6
:1020E000F3C084918823B9F13C813323B9F0829500
:1020F00090E09C0135952795359527952373880F9A
:10210000991F880F991F8C7C282B30E0C901959569
:1021100087958575220F331F2A7A822B90E00D80D8
:1021200002C0880F991F0A94E2F7AF81A7FD06C08D
:10213000DB01A40FB51F2C91282B2C93002359F001
:10214000BF81B73044F4DA01A058BF4FA60FB71FC4
:102150008C91892B8C932B81222309F4B3C0319766
:102160004F5F5F4FBACF3E983F98DBCD112339F0D8
:1021700029813A812430310511F42E9A2F9881E07B
:102180000E94B40428E540EE57E069817A8184E139
:1021900090E00E9407050E94CC088FE090E00E942A
:1021A000300849815A814F5F5F4F5A8349834931D3
:1021B000510509F0C4CD112311F02F9A2D9880E913
:1021C00091E00E9430080E942E0881E090E00E9479
:1021D0007F0980FFBECD8AE090E00E947F099FEFDB
:1021E000980F9E3F08F0B5CD22E330E030938F0189
:1021F00020938E0128E330E03093910120939001E9
:10220000ABE0B0E0BA83A983682F81E096E00E943A
:102210005E0889819A810E947F09E981FA8131965D
:10222000FA83E983719781F70E94CC0888EE93E0E6
:102230000E9430088ECD10928B0110928A01E0CD61
:10224000892B09F431CE8091010190910201089708
:1022500009F42ACE10928B0110928A01E8E0F0E096
:10226000F0930201E09301011FCE20E030E04EEE3A
:1022700052E4C701B6010E94C41418160CF032CE05
:1022800080E090E0AEEEB2E425CE20E030E040E623
:1022900052E4C701B6010E94C41418160CF040CED7
:1022A00080E090E0A0E6B2E433CE3AE03E1B38870F
:1022B000A8CEE40FF51FDECE2AE01202E00DF11DDC
:1022C0001124EECE31964CCF3F813F5F3F834B814F
:1022D000442351F089819A81E80FF91F9C81911163
:1022E000749760587F4FF3CEE40DF51DF7CFD301FF
:1022F0001E962D913C911F97215031091F963C93BA
:102300002E931E971A968D919C911B97821593057B
:102310000CF077C0E1E0F0E05396FC93EE93529717
:1023200037FF25C02EE130E0F3013787268720896B
:1023300031892F5F3F4F243031050CF067C0318B5E
:10234000208B821593050CF064C00296F3019387ED
:102350008287C501B4010E94DC13F3018485958551
:10236000861797070CF060C002969587848741E036
:1023700064E170E084E190E00E943D0841E06CE29D
:1023800070E08CE690E00E943D0880918C01909175
:102390008D01880F991F880F991FE0918A01F09194
:1023A0008B01E80FF91FEE0FFF1FE35DFE4F208149
:1023B00031813A83298320E030E040E051E4C501D7
:1023C000B4010E946A130E94DC134B0120E030E04C
:1023D00040E151E4C701B6010E946A130E94DC1378
:1023E000CB0122E149815A81B4010E9407050E9474
:1023F000CC08E0E0F0E0EF2B09F4B6CC0E9400003E
:10240000B3CC53961C921E9252978ACF118A108A8F
:1024100098CF281639060CF09CCF0297D3011B9653
:102420009C938E931A9795CF681779070CF09FCFDE
:102430000297958784879BCF0297D9F60E94CF0891
:102440008823B9F20E94FA0410929101109290012F
:1024500010928F0110928E0140910B0150910C014E
:102460005A834983CA010E94030989819A8180584D
:1024700091090E94030989819A811816190634F47A
:10248000019790930C0180930B01B1CFA1E0B0E0D4
:10249000B0930E01A0930D01AACF8F929F92AF929D
:1024A000BF92CF92DF92EF92FF92CF93DF93EC0136
:1024B000688179818A819B8161157105810591050A
:1024C00021F464E279ED8BE597E02DE133EF41E013
:1024D00050E00E94071349015A019B01AC01A7EA91
:1024E000B1E40E9426136B017C01ACEEB4EFA501B0
:1024F00094010E943413C60ED71EE81EF91EF7FE83
:1025000006C081E0C81AD108E10880E8F80AC8824C
:10251000D982EA82FB82C701B6019F77DF91CF9112
:10252000FF90EF90DF90CF90BF90AF909F908F90F3
:1025300008958F929F92AF92BF92CF92DF92EF92C7
:10254000FF9260911B0170911C0180911D0190917F
:102550001E01611571058105910521F464E279ED93
:102560008BE597E02DE133EF41E050E00E94071347
:1025700049015A019B01AC01A7EAB1E40E9426136C
:102580006B017C01ACEEB4EFA50194010E94341301
:10259000C60ED71EE81EF91EF7FE06C081E0C81A57
:1025A000D108E10880E8F80AC0921B01D0921C0112
:1025B000E0921D01F0921E01C701B6019F77FF90C6
:1025C000EF90DF90CF90BF90AF909F908F90089545
:1025D00060931B0170931C0180931D0190931E0159
:1025E0000895F999FECF92BD81BDF89A992780B5DB
:1025F0000895262FF999FECF1FBA92BD81BD20BD47
:102600000FB6F894FA9AF99A0FBE01960895052E1E
:1026100097FB1EF400940E941E1357FD07D00E94E2
:10262000391307FC03D04EF40C941E1350954095BB
:10263000309521953F4F4F4F5F4F0895909580956E
:10264000709561957F4F8F4F9F4F08950E945B1348
:10265000A59F900DB49F900DA49F800D911D1124F6
:102660000895B7FF0C9426130E942613821B930B28
:102670000895A1E21A2EAA1BBB1BFD010DC0AA1FC3
:10268000BB1FEE1FFF1FA217B307E407F50720F0DB
:10269000A21BB30BE40BF50B661F771F881F991F56
:1026A0001A9469F760957095809590959B01AC019F
:1026B000BD01CF010895A29FB001B39FC001A39FA8
:1026C000700D811D1124911DB29F700D811D11246B
:1026D000911D08955058BB27AA270E9482130C947D
:1026E0008A140E947C1438F00E94831420F039F47C
:1026F0009F3F19F426F40C9479140EF4E095E7FB4F
:102700000C947314E92F0E949B1458F3BA176207B4
:1027100073078407950720F079F4A6F50C94BD148F
:102720000EF4E0950B2EBA2FA02D0B01B9019001EC
:102730000C01CA01A0011124FF27591B99F0593F30
:1027400050F4503E68F11A16F040A22F232F342F78
:102750004427585FF3CF469537952795A795F040C6
:102760005395C9F77EF41F16BA0B620B730B840BDB
:10277000BAF09150A1F0FF0FBB1F661F771F881F93
:10278000C2F70EC0BA0F621F731F841F48F48795EB
:1027900077956795B795F7959E3F08F0B0CF9395DD
:1027A000880F08F09927EE0F9795879508950E9456
:1027B0004F1408F481E008950E94E3136894B11166
:1027C0000C94BE1408950E94A31488F09F5798F0AB
:1027D000B92F9927B751B0F0E1F0660F771F881F26
:1027E000991F1AF0BA95C9F714C0B13091F00E9440
:1027F000BD14B1E008950C94BD14672F782F88277D
:10280000B85F39F0B93FCCF3869577956795B39566
:10281000D9F73EF490958095709561957F4F8F4FD5
:102820009F4F0895E89409C097FB3EF490958095DA
:10283000709561957F4F8F4F9F4F9923A9F0F92F86
:1028400096E9BB279395F695879577956795B79504
:10285000F111F8CFFAF4BB0F11F460FF1BC06F5FEA
:102860007F4F8F4F9F4F16C0882311F096E911C0FC
:10287000772321F09EE8872F762F05C0662371F01D
:1028800096E8862F70E060E02AF09A95660F771F31
:10289000881FDAF7880F9695879597F90895990F0D
:1028A0000008550FAA0BE0E8FEEF16161706E8071A
:1028B000F907C0F012161306E407F50798F0621B3B
:1028C000730B840B950B39F40A2661F0232B242B10
:1028D000252B21F408950A2609F4A140A6958FEF2F
:1028E000811D811D089597F99F6780E870E060E081
:1028F00008959FEF80EC089500240A941616170699
:1029000018060906089500240A94121613061406E0
:1029100005060895092E0394000C11F4882352F043
:10292000BB0F40F4BF2B11F460FF04C06F5F7F4FFB
:102930008F4F9F4F089557FD9058440F551F59F0E2
:102940005F3F71F04795880F97FB991F61F09F3F9C
:1029500079F087950895121613061406551FF2CFC5
:102960004695F1DF08C0161617061806991FF1CF15
:1029700086957105610508940895E894BB2766273C
:102980007727CB0197F908950E944F1408F48FEF31
:102990000895EE0FFF1F0590F491E02D09940F9319
:1029A0001F93CF93DF938230910510F482E090E083
:1029B000E0910706F091080630E020E0B0E0A0E0EA
:1029C000309799F42115310509F44AC0281B390BB9
:1029D00024303105D8F58A819B816115710589F113
:1029E000FB0193838283FE0111C0408151810281EA
:1029F000138148175907E0F04817590799F41097C1
:102A000061F012960C93129713961C933296CF0195
:102A1000DF91CF911F910F910895009307061093B6
:102A20000806F4CF2115310551F04217530738F04D
:102A3000A901DB019A01BD01DF01F801C1CFEF015E
:102A4000F9CF9093080680930706CDCFFE01E20FE1
:102A5000F31F819391932250310939832883D7CF73
:102A60002091050630910606232B41F42091210187
:102A700030912201309306062093050620911F0114
:102A8000309120012115310541F42DB73EB7409119
:102A9000230150912401241B350BE0910506F09190
:102AA0000606E217F307A0F42E1B3F0B2817390781
:102AB00078F0AC014E5F5F4F2417350748F04E0F9A
:102AC0005F1F5093060640930506819391939FCF15
:102AD000F0E0E0E09CCFCF93DF930097E9F0FC01BA
:102AE000329713821282A0910706B0910806ED0179
:102AF00030E020E01097A1F420813181820F931FF4
:102B000020910506309106062817390709F061C0A3
:102B1000F0930606E0930506DF91CF910895EA0150
:102B2000CE17DF07E8F54A815B819E01411551050B
:102B3000B1F7E901FB83EA8349915991C40FD51F8D
:102B4000EC17FD0761F4808191810296840F951F37
:102B5000E90199838883828193819B838A83F0E052
:102B6000E0E012968D919C9113970097B9F52D9105
:102B70003C911197CD010296820F931F209105067B
:102B8000309106062817390739F6309751F510921B
:102B9000080610920706B0930606A0930506BCCF60
:102BA000D383C28340815181840F951FC817D907F1
:102BB00061F44E5F5F4F88819981480F591F51839F
:102BC00040838A819B81938382832115310509F09B
:102BD000B0CFF0930806E09307069ECFFD01DC011D
:0C2BE000C0CF13821282D7CFF894FFCF31
:102BEC00100800000000420000804280000200FF3C
:102BFC00FFFFFF00E10000000000000100000000EA
:102C0C0000090680000601E800CA00AC00B0028C86
:102C1C0002B0026802440220024402FC01D801B452
:102C2C0001D80190016C0148016C012401020002E1
:102C3C000002000100010003000000000000000081
:102C4C00C180810000000000000011067C073206E4
:102C5C002706780636065406000000005E080108B8
:042C6C007C097B095B
:00000001FF
