:100000000C94A0040C94C8040C94C8040C94C80468
:100010000C94C8040C94C8040C94C8040C94C80430
:100020000C94C8040C94C8040C94A4090C94130AEE
:100030000C94C8040C94C8040C94C8040C94C80410
:100040000C94C8040C94C8040C94C8040C94C80400
:100050000C94C8040C94C8040C94C8040C94450C6B
:100060000C94C8040C94C8040C94C8040C94C804E0
:100070000C94C8040C94C8040C94C8040C94C804D0
:100080000C94C8040C94C8040C94C8040C94C804C0
:100090000C94C8040C94C8040C94C8040C94C804B0
:1000A0000C94C8040C94C8040C94C8040000009874
:1000B00074BCF4B8000000001F00F50A0A35DF0028
:1000C0000000000101000000010000009874BCF471
:1000D000B8000000000F000DEA1A1DEF000000003C
:1000E00000010000010100000000804CBA5E7ADCD3
:1000F000800000004F806A1515EA0F000000000024
:100100000000010100000000804CBA5E7ADC800033
:1001100000000F00EA1515EA0F00000000010100C1
:1001200001010000F0F0D0D050D0D0D0D090F00F2E
:100130000A0E0A0A0A0A0B0A0A0FFF15D7D51195EB
:1001400095151D15FF0F080B0B080B0B080B080F5F
:100150000000000000F0684422226428D000000063
:1001600000000000000C1201000020213D41021C93
:10017000000000000000000000F068442222642813
:10018000D000000000000000000C120100404001FF
:100190001D21021C000000000000000000F83422B5
:1001A0001191B294680000000000000000001F00E0
:1001B000004040003E40011E00000000000080C0E2
:1001C00000E0100804040810E000C08000000000F7
:1001D0001824420102020101020281822418000057
:1001E000000080C000E0100804040810E000C08097
:1001F0000000000018248281020201010202014273
:10020000241800000000406000F008048282040806
:10021000F000604000000000003E8180010100000D
:10022000010180813E0000000000000000B0484451
:1002300042424468F00000000000000000001C0280
:10024000413D2120000001120C00000000000000D0
:1002500000B0484442424468F00000000000000042
:1002600000001C02211D0140400001120C00000092
:10027000000000000058A4A2A1212234F8000000D0
:100280000000000000001E01403E00404000001F32
:1002900000000000000080C0006050C844848890C6
:1002A000E000C08000000000182442414202FEFE2F
:1002B0000282818224180000000080C0006050C8C3
:1002C00044848890E000C0800000000018248281EF
:1002D0008202FEFE024241422418000000004060FB
:1002E00000B0286422424448F00060400000000052
:1002F000003E81808101FFFF018180813E0000007E
:1003000000000000003E5B4F5B3E3E6B4F6B3E1CAF
:100310003E7C3E1C183C7E3C181C577D571C1C5EC6
:100320007F5E1C00183C1800FFE7C3E7FF0018249D
:100330001800FFE7DBE7FF30483A060E2629792947
:1003400026407F050507407F05253F5A3CE73C5A7C
:100350007F3E1C1C08081C1C3E7F14227F22145F59
:100360005F005F5F06097F017F006689956A6060B4
:1003700060606094A2FFA29408047E040810207EAE
:10038000201008082A1C08081C2A08081E10101033
:10039000100C1E0C1E0C30383E3830060E3E0E0679
:1003A000000000000000005F0000000700070014CC
:1003B0007F147F14242A7F2A12231308646236498B
:1003C0005620500008070300001C22410000412273
:1003D0001C002A1C7F1C2A08083E08080080703078
:1003E00000080808080800006060002010080402E7
:1003F0003E5149453E00427F4000724949494621ED
:1004000041494D331814127F1027454545393C4A60
:100410004949314121110907364949493646494977
:10042000291E0000140000004034000000081422BF
:10043000411414141414004122140802015909062D
:100440003E415D594E7C1211127C7F494949363E2E
:10045000414141227F4141413E7F494949417F0914
:100460000909013E414151737F0808087F00417F1F
:1004700041002040413F017F081422417F4040401D
:10048000407F021C027F7F0408107F3E4141413EB5
:100490007F090909063E4151215E7F091929462637
:1004A0004949493203017F01033F4040403F1F203B
:1004B00040201F3F4038403F631408146303047812
:1004C00004036159494D43007F4141410204081032
:1004D00020004141417F040201020440404040406D
:1004E000000307080020545478407F2844443838DB
:1004F00044444428384444287F385454541800084D
:100500007E090218A4A49C787F0804047800447D26
:1005100040002040403D007F1028440000417F40C3
:10052000007C047804787C08040478384444443817
:10053000FC1824241818242418FC7C0804040848F7
:100540005454542404043F44243C4040207C1C2048
:1005500040201C3C4030403C44281028444C9090A3
:10056000907C4464544C44000836410000007700FD
:1005700000004136080002010204023C2623263C0A
:100580001EA1A161123A4040207A38545455592195
:10059000555579412154547841215554784020547F
:1005A0005579400C1E5272123955555559395454CB
:1005B000545939555454580000457C410002457D3A
:1005C000420001457C40F0292429F0F0282528F03C
:1005D0007C545545002054547C547C0A097F493290
:1005E000494949323248484832324A4848303A410B
:1005F00041217A3A42402078009DA0A07D394444B0
:1006000044393D4040403D3C24FF2424487E49433A
:10061000662B2FFC2F2BFF0929F620C0887E0903AB
:1006200020545479410000447D413048484A3238D2
:100630004040227A007A0A0A727D0D19317D2629FE
:10064000292F28262929292630484D4020380808F6
:10065000080808080808382F10C8ACBA2F1028342A
:10066000FA00007B000008142A142222142A14081D
:100670009500220095AA005500AAAA55AA55AA00DD
:100680000000FF00101010FF00141414FF001010E1
:10069000FF00FF1010F010F0141414FC001414F7F5
:1006A00000FF0000FF00FF1414F404FC14141710E2
:1006B0001F10101F101F1414141F00101010F00032
:1006C0000000001F101010101F10101010F010006C
:1006D0000000FF101010101010101010FF1000007C
:1006E00000FF140000FF00FF00001F10170000FCB7
:1006F00004F414141710171414F404F40000FF0089
:10070000F714141414141414F700F7141414171411
:1007100010101F101F141414F4141010F010F00017
:10072000001F101F0000001F14000000FC14000038
:10073000F010F01010FF10FF141414FF141010101C
:100740001F00000000F010FFFFFFFFFFF0F0F0F0CF
:10075000F0FFFFFF0000000000FFFF0F0F0F0F0F63
:1007600038444438447C2A2A3E147E02020606029B
:100770007E027E0263554941633844443C04407E16
:10078000201E2006027E020299A5E7A5991C2A498F
:100790002A1C4C7201724C304A4D4D30304878481A
:1007A00030BC625A463D3E494949007E0101017E06
:1007B0002A2A2A2A2A44445F444440514A44404059
:1007C000444A51400000FF0103E080FF0000080898
:1007D0006B6B083612362436060F090F0600001818
:1007E000180000001010003040FF0101001F01013F
:1007F0001E00191D1712003C3C3C3C00000000008C
:10080000070605040100080A0B0C0D09F0F89C8E80
:100810008783878E9CF8F00000FEFF030303030329
:10082000070EFCF80000FEFF0303030303070EFCA2
:10083000F80000FFFF00000000000000FFFF0000C4
:10084000FEFF8383838383C7EE7C380000F8FC0EB1
:1008500007030303070EFCF800003F7FE0C0808021
:10086000C0E07F3FFFFF01010101010101FFFF0027
:1008700000FFFF0C0C0C0C1C3E77E3C100007FFF57
:10088000C0C0C0C0C0E0703F1F00001F3F70E0C08C
:10089000C0C0E0703F1F00007FFFC1C1C1C1C1E304
:1008A000773E1C00001F3F70E0C0C0C0E0703F1FDB
:1008B000000000000001FFFF01000000D5F08D14D2
:1008C000A1C881CFD9F1AF2000080B0002020200BD
:1008D00000090400000102020000052400100105C7
:1008E00024010101042402060524060001070581F4
:1008F0000310004009040100020A0000000705027D
:1009000002400000070583024000000403090412AE
:10091000010002EF02014041233680000101020381
:100920000141726475696E6F204C4C4300417264E2
:1009300075696E6F204C656F6E6172646F00C20CDA
:1009400011241FBECFEFDAE0DEBFCDBF11E0A0E083
:10095000B1E0ECEBFCE202C005900D92A838B107C3
:10096000D9F726E0A8E8B1E001C01D92A231B20794
:10097000E1F714E0C0EAD4E004C02197FE010E9430
:100980003115CF39D107C9F70E94030D0C945C16BD
:100990000C9400004F925F926F927F928F929F9281
:1009A000AF92BF92CF92DF92EF92FF920F931F937D
:1009B000CF93DF9330E0F901E80FF91F1E161F06F1
:1009C0000CF09BC0803891050CF097C0FB01E00F44
:1009D000F11D1E161F060CF090C0603471050CF05E
:1009E0008CC0DB0177FF04C0AA27BB27A61BB70B6F
:1009F000A770BB27FB0177FD3796C3E0F595E79518
:100A0000CA95E1F777FF07C0319768E070E0EB0126
:100A1000CA1BDB0BDE01802E869486948694912C73
:100A2000077019F0DFEF8D1A9D0ABF018A01AF012F
:100A30005695542F442757954795480F591F4B54A7
:100A40005E4F860E971EE8E0F0E03F016A1A7B0ACF
:100A50006F3FEFEF7E070CF443C07C01D0E0C0E0B5
:100A60005A01E0E8AE0EB11CF7FC2EC06F3F7607CE
:100A700009F454C0F801EC0FFD1FE4916A01CC0E9B
:100A8000DD1EF0E02F010A2E01C0440C0A94EAF7A3
:100A9000F6015080452840821097B1F0673071050B
:100AA00099F0F801EC0FFD1FE4916501CC0EDD1EFD
:100AB000F0E02F01062C02C0559447940A94E2F707
:100AC000F6015080452840822196FFEFEF1AFF0A79
:100AD000C217D3072CF4F0E8EF16F10409F0C4CFE5
:100AE0006F5F7F4F020F131F40585F4F86169706A8
:100AF00021F06830710509F0ABCFDF91CF911F91E4
:100B00000F91FF90EF90DF90CF90BF90AF909F90AC
:100B10008F907F906F905F904F900895109709F09D
:100B2000C0CFD2CFE5EBF1E0A0E0B8E000800EBC92
:100B30008111012C1197A0FDFDCF0192B9F70DB4E1
:100B400008959C0121583F4F2F3F310580F59C01AE
:100B500097FF02C030E020E080589F4F8138910518
:100B600014F080E890E0821BAB014770552791E0BC
:100B700001C0990F4A95EAF777FF02C0695F7F4F7E
:100B8000FB0143E0F595E7954A95E1F7F695FE2FD1
:100B9000EE27F795E795E20FF31FEB54FE4F8150D8
:100BA00030F02191DF011197292B2C93F8CF089574
:100BB00080E0E5EBF1E081118FEF002481938193D8
:100BC000819381930394D1F70895FC018091B4013E
:100BD000882311F13FB7F89482E08093E9002091D7
:100BE000F200822F90E01816190614F481E090E0CC
:100BF000882339F0289844E64093B3014091F100EE
:100C00004083222339F02091F200211103C02BE60A
:100C10002093E8003FBF08958FEF9FEF08952FB70F
:100C2000F89483E08093E9009091E800892F807226
:100C300095FF04C09091F20080E4891B2FBF0895B6
:100C40008091AB0181110DC082E08093A70184E007
:100C50008093A8011092AA011092A90181E08093CB
:100C6000AB0187EA91E00895CF93DF931F92CDB750
:100C7000DEB76983DC01ED91FC910280F381E02D08
:100C800041E050E0BE016F5F7F4F09950F90DF910B
:100C9000CF91089583E08093E9008091F20088234A
:100CA00019F08AE38093E80008950E940F0690E00F
:100CB0000895CF93DF931F92CDB7DEB7FC018485F3
:100CC000958597FD08C02FEF3FEF358724870F905C
:100CD000DF91CF910895CE0101960E94E50501971D
:100CE00019F4898190E0F3CF8FEF9FEFF0CF0F934E
:100CF0001F93CF93DF931F92CDB7DEB78C01FC011A
:100D00008485958597FF0BC0CE0101960E94E5056D
:100D1000019771F4898190E0F80195878487F80143
:100D2000848595850F90DF91CF911F910F91089544
:100D30008FEF9FEFF1CFFC018485958597FD0BC068
:100D40009FB7F89482E08093E9008091F2009FBF02
:100D500090E0019608959FB7F89482E08093E900AF
:100D60008091F2009FBF90E008954091A1015091C1
:100D7000A20120919F013091A00142175307B4F4C2
:100D80009091E8009570E1F39091E80092FD19C010
:100D90008093F1008091A1019091A20101968F733F
:100DA0009927892B19F48EEF8093E8008091A10197
:100DB0009091A20101969093A2018093A10181E0FC
:100DC000089580E00895DF92EF92FF920F931F93B2
:100DD000CF93DF93D82E8A01EB017B01E40EF51E41
:100DE000CE15DF0559F0D7FE12C0FE0184910E9496
:100DF000B50621968111F4CF0FEF1FEFC801DF91E7
:100E0000CF911F910F91FF90EF90DF90089588810F
:100E1000EECF0F931F93CF93DF931F92CDB7DEB723
:100E200082E0898342E450E069EC78E080E80E9447
:100E3000E3060E942006DC0112960D911C9101151B
:100E4000110589F0D801ED91FC910280F381E02D2C
:100E5000BE016F5F7F4FC801099597FD04C0F8017F
:100E600000851185ECCF89810F90DF91CF911F9183
:100E70000F910895615030F02091F100FC01208322
:100E80000196F8CF289884E68093B30108953FB780
:100E9000F89480919B0190919C01A0919D01B0914B
:100EA0009E0126B5A89B05C02F3F19F00196A11DF4
:100EB000B11D3FBFBA2FA92F982F8827BC01CD01A4
:100EC000620F711D811D911D42E0660F771F881F03
:100ED000991F4A95D1F708958F929F92AF92BF9232
:100EE000CF92DF92EF92FF926B017C010E94470745
:100EF0004B015C01C114D104E104F104B9F00E947A
:100F00004707681979098A099B09683E734081057A
:100F1000910580F321E0C21AD108E108F10888EEBA
:100F2000880E83E0981EA11CB11CE4CFFF90EF90C7
:100F3000DF90CF90BF90AF909F908F9008958F9249
:100F40009F92AF92BF92CF92DF92EF92FF920F9358
:100F50001F93CF93DF936C017B018A0180911A016B
:100F6000882309F45CC08091B401882309F457C038
:100F70008091A60180FF05C08091E000826080938F
:100F8000E000E801B12C8AEFA82E93E0892E2AE335
:100F9000922E209711F4BB20D9F10E940F068111E7
:100FA0000AC0AA94AA20D9F161E070E080E090E044
:100FB0000E946C07EECF8C171D0611F00CF08C2FE1
:100FC0009FB7F8948092E9002091E80025FD02C0C7
:100FD0009FBFDFCF282F30E0C21BD30BF70181501A
:100FE00020F041914093F100FACFE20EF31EBB20B6
:100FF00021F09092E800B12CEBCF8091E80085FDC4
:10100000E7CF9092E800BB24B394209709F3F3CF85
:101010005D9884E68093A501101611063CF081E0EE
:1010200090E0F6019383828310E000E0C801DF9135
:10103000CF911F910F91FF90EF90DF90CF90BF90D5
:10104000AF909F908F900895AF92BF92CF92DF9212
:10105000EF92FF920F931F93CF93DF936C017B016D
:101060008B01040F151FEB015E01AE18BF08C017FE
:10107000D10759F06991D601ED91FC910190F08171
:10108000E02DC6010995892B79F7C501DF91CF9134
:101090001F910F91FF90EF90DF90CF90BF90AF9096
:1010A00008952D9A0895BC0190E080E00C946C079F
:1010B0008FB18095807F669B88601C9B84600895BB
:1010C00020E191E061FD94E060FD990F62FD929551
:1010D000687F269FD0011124A80FAB54BE4F8C917E
:1010E00040FF03C0892B8C93089590958923FBCFF3
:1010F0008038910528F46034710510F40C94600870
:1011000008958F929F92AF92BF92CF92DF92EF920B
:10111000FF920F931F93CF93DF936D3089F0C090B0
:101120009401D09095016A30D1F4109293011092FD
:10113000920188E0C80ED11CD0929501C092940112
:1011400081E090E0DF91CF911F910F91FF90EF90A0
:10115000DF90CF90BF90AF909F908F9008950091B7
:10116000920110919301E5E06E9FE0011124C050BF
:10117000DD4F4801F12CF5E0E12CFF1629F0CE01FE
:101180000196FE01E490EC01B12CA12C4E2D417092
:10119000B6016A0D7B1DC4010E947808E694FFEF3A
:1011A000AF1ABF0A88E0A816B10481F7F394EFEFF5
:1011B0008E1A9E0AF6E0FF12DECF0A5F1F4F1093D1
:1011C000930100939201BCCFCF93C82F0E9458087F
:1011D000982F9C2381E09C1380E0CF91089580E0BC
:1011E0000C9492058FB7F894409197015091980113
:1011F0006091990170919A018FBF80918A01882333
:1012000021F010928A0180E0089590918B01242FA3
:10121000291B922F20910001921740F49F5F921793
:10122000A0F491E093BF889513BE089581E0809368
:101230008A0140938B0180918801909189010196E8
:10124000909389018093880181E008956F927F9245
:101250008F929F92AF92BF92CF92DF92EF92FF92C6
:101260000F931F93CF93DF93EC0170E060E00E9437
:10127000A10510E000E041E0B801CE010E9478082D
:101280000F5F1F4F00341105B1F75E018FE7A80E05
:10129000B11C10E000E041E0B801C5010E947808EF
:1012A0000F5F1F4F00341105B1F77E018FEFE81A71
:1012B000F80A3E018EE7680E711C6301CE18DF0844
:1012C0008601D7FE02C00F5F1F4F15950795882432
:1012D0008394912CEA14FB0481F041E0B401C7012E
:1012E0000E94780817FF05C081E0881A91080C0D4C
:1012F0001D1D8FEFE81AF80AEDCF2296C615D70507
:1013000071F003E010E041E0B801CE010E947808DE
:101310000F5F1F4F07301105B1F72196EFCFDF9117
:10132000CF911F910F91FF90EF90DF90CF90BF90E2
:10133000AF909F908F907F906F900895089590E068
:1013400080E008950C9459131F920F920FB60F92DC
:1013500011248F939F938091E1009091E100937FFE
:101360009093E10083FF0FC01092E90091E0909309
:10137000EB001092EC0092E39093ED001092B40118
:1013800098E09093F00082FF22C093E09093E900F0
:101390009091F200992319F09AE39093E8009091CC
:1013A000A501992341F09091A50191509093A50139
:1013B000911101C05D9A9091B301992341F09091F0
:1013C000B30191509093B301911101C0289A84FF09
:1013D00018C08091E2008E7E81608093E20080914F
:1013E000E1008F7E8093E1008091A6018E7E806176
:1013F0008093A6019F918F910F900FBE0F901F9029
:10140000189580FFF7CF8091E2008E7E80618093F7
:10141000E2008091E1008E7E8093E1008091A60140
:101420008E7E8160E5CF1F920F920FB60F9211242E
:10143000CF92DF92EF92FF920F931F932F933F93E0
:101440004F935F936F937F938F939F93AF93BF93CC
:10145000EF93FF93CF93DF93CDB7DEB76C97DEBFEB
:10146000CDBF1092E9008091E80083FF25C068E0BD
:10147000CE0145960E943A0782EF8093E8008D895D
:1014800087FF39C09091E80090FFFCCF982F9076AD
:1014900009F034C19E894F89588D2F89F88C91119C
:1014A00031C0803861F58091A4018093F1001092E1
:1014B000F1008EEF8093E8006C960FB6F894DEBFD3
:1014C0000FBECDBFDF91CF91FF91EF91BF91AF9153
:1014D0009F918F917F916F915F914F913F912F914C
:1014E0001F910F91FF90EF90DF90CF900F900FBE64
:1014F0000F901F9018959EEF9093E800C7CF109221
:10150000F100D5CF913059F48111D3CF413051053D
:1015100081F68091A4018D7F8093A401CACF93307E
:1015200049F48111C6CF4130510519F68091A401CB
:101530008260F2CF953041F48091E80080FFFCCFCB
:1015400020682093E300B5CF963009F0A9C00B8D39
:101550001C8D22E01092E9001092A2011092A101CC
:10156000F2122EC01092A00110929F010E94090752
:101570001F8299E09983FA8291E09E8390EA98878E
:101580009AEF99872091A1013091A201275F3F4FE7
:101590003C832B838D831092E9001092A20110925C
:1015A000A1011093A00100939F0149E050E0BE010A
:1015B0006F5F7F4F80E00E94E3060E94090779CFAA
:1015C0001093A00100939F010E942006DC01129657
:1015D0000D911C910115110509F451C1D801ED912E
:1015E000FC910480F581E02DBE016B5E7F4FC80148
:1015F0000995009709F03EC1F80100851185EACFF1
:10160000F3E0FF120EC08F89882309F440C08230B6
:1016100061F440E860E18DE299E00E948F0C811155
:1016200048CF81E28093EB0047CF813029F440E836
:101630006BE081E299E0F1CF833099F70E942006B8
:10164000DC011296ED90FC908E010F5F1F4F680138
:10165000E114F10479F0D701ED91FC910680F78156
:10166000E02DB801C7010995080F111DF701E084AD
:10167000F184EECFD8011C92F60101900020E9F729
:101680003197BF016C197D0940E0C601C6CF6BE000
:1016900079E0FB01449150E080E80E94E30609CF25
:1016A000973009F4BECF983021F481E08093F100A7
:1016B00000CF993009F0FDCE837009F0B2CFE4E697
:1016C000F1E081E031E096E32191222371F08093F3
:1016D000E9003093EB00DF0111972C912093EC008F
:1016E0009093ED008F5F873079F78EE78093EA0063
:1016F0001092EA008F898093B401DBCE8B8D9C8D94
:101700001092E9001092A2011092A1019093A00101
:1017100080939F01898D811192C08E899D89913A14
:1017200049F4813209F07DCF47E050E063E171E098
:1017300080E0B3CF913209F074CF833269F48F899E
:10174000988DB0E0A0E080930F0190931001A093DA
:101750001101B0931201ADCE803269F48091E8009E
:1017600082FFFCCF67E083E191E00E943A078BEFB4
:101770008093E8009ECE823209F09BCE8F898093C1
:101780001A01EEEFFFE7859194918B3F9C4D51F14B
:10179000E0E0F8E08091130190911401A09115010F
:1017A000B0911601803B9440A105B105F1F4809100
:1017B0001A0180FD1AC0EE3F8AE0F80789F587E735
:1017C00097E791838083809160008093A30188E1F3
:1017D0009BE00FB6F894A895809360000FBE90939D
:1017E000600067CEEEEFFAE0D5CF80819181873738
:1017F000974709F05ECEA89580916000886180933C
:1018000060008091A30180936000EE3F2AE0F20720
:1018100089F08091FE0A9091FF0A9183808349CEDE
:10182000808191818737980751F29093FF0A8093C6
:10183000FE0AC5CF1092FF0A1092FE0A3ACE0E940D
:101840002006DC0112960D911C910115110509F479
:10185000E8CED801ED91FC910190F081E02DBE0120
:101860006B5E7F4FC8010995811123CEF801008579
:101870001185EBCF181619060CF41BCED2CEF1E071
:10188000FF12BECE6FE079E004CF1F920F920FB629
:101890000F9211242F933F938F939F93AF93BF93F6
:1018A0008091970190919801A0919901B0919A012E
:1018B0003091960123E0230F2D3758F50196A11D95
:1018C000B11D209396018093970190939801A09366
:1018D0009901B0939A0180919B0190919C01A091F4
:1018E0009D01B0919E010196A11DB11D80939B01A8
:1018F00090939C01A0939D01B0939E01BF91AF91E5
:101900009F918F913F912F910F900FBE0F901F903D
:10191000189526E8230F0296A11DB11DD2CFEF9294
:10192000FF920F931F93CF93DF93F82E192FE62E7C
:10193000042F81E0860F880F0E94B50683E00E9485
:10194000B506CF2DD12FEC0EFD2EF11CCE15DF05E7
:10195000B9F007FF13C0FE0184910E94B506182F4D
:1019600080E00E94B506812321968111EFCFDF919F
:10197000CF911F910F91FF90EF9008958881EDCF47
:1019800081E0F5CFCF93DF93E5EBF5E01382128290
:1019900088EE93E0A0E0B0E084839583A683B783CC
:1019A0008EE691E0918380838FEF9FEF9587848708
:1019B000EAE0F6E01382128280E891E0918380836E
:1019C0000E940113C5E0D6E028E530E040E050E099
:1019D0000E946F136C5E7F4F8F4F9F4F7983688398
:1019E0000E94011328E130E040E050E00E946F13B4
:1019F0006C5E7F4F8F4F9F4F7B836A8381E08C8328
:101A0000DF91CF910895CF93DF9300D000D000D025
:101A1000CDB7DEB7789484B5826084BD84B581602B
:101A200084BD85B5826085BD85B5816085BD8091A9
:101A30006E00816080936E00109281008091810021
:101A40008260809381008091810081608093810019
:101A500080918000816080938000809191008260FD
:101A6000809391008091910081608093910080919A
:101A700090008160809390008091C1008460809389
:101A8000C1008091C10082608093C1008091C1003B
:101A900081608093C1008091C30081608093C30006
:101AA0008091C00082608093C0008091C2008160FC
:101AB0008093C20080917A00846080937A00809144
:101AC0007A00826080937A0080917A0081608093AE
:101AD0007A0080917A00806880937A001092B40135
:101AE0001092A4011092A6018091D700816080938A
:101AF000D70080EA8093D80089B5806189BD89B517
:101B0000826089BD09B400FEFDCF61E070E080E035
:101B100090E00E946C078091D8008F7C8061809358
:101B2000D8008091E000807F8093E0008091E10008
:101B30008E7E8093E1008DE08093E200559A209A9A
:101B4000E0E0F8E0E49190917B008E2F880F880F01
:101B500080729F7D892B80937B00E770E064E09327
:101B60007C0080917A00806480937A0080917A0072
:101B700086FDFCCF6091780070917900072E000CF3
:101B8000880B990B611571058105910511F00E9473
:101B9000501386E190E00E9437158C019C838B8363
:101BA0001C0126E1220E311C68E5862E912CA12C09
:101BB000B12C78E1C72ED12CE12CF12CE4E14E2E92
:101BC000512C612C712C0E940113A50194010E94DB
:101BD0006F136C5E7F4F8F4F9F4FAB81BC816D93B6
:101BE0007C930E940113A70196010E946F136C5E03
:101BF0007F4F8F4F9F4FEB81FC81738362830E94E5
:101C00000113A30192010E946F13665F7F4F8F4FF4
:101C10009F4FAB81BC8115967C936E93149717965A
:101C20001C921E92169719961C921E921897E1E02C
:101C30001A96EC931A971B96BC83AB83A215B30537
:101C400011F610938D0100938C0181EC80937C0040
:101C500085B1806F85B984B1877E84B984B1876E80
:101C600084B95E9A5F988AB1806D8AB9769A6E98C7
:101C700081B3806F81BB899880B38D7080BB80E514
:101C80008CBDEDBD85E090E00E9453085F9A85E031
:101C900090E00E9453085E985C98ECEBF8E0849129
:101CA0008EBD00000DB407FEFDCF319628E0E93C63
:101CB000F207A9F75C9A81E880936400809165003F
:101CC0008160809365000E94EF0880E80E94E4082C
:101CD0008823A9F05C9885EA8EBD00000DB407FE4C
:101CE000FDCF5C9A2E982F982D9880916400806289
:101CF0008093640081E083BF889513BEFCCF84E0AD
:101D00000E94E408882309F448C02D9884E80E94C2
:101D1000E4088823E1F00E94510888EC90E00E94DA
:101D200053082F9882E090E00E9459138F3F29F0CA
:101D30006FEF82E090E00E94611384EF91E00E94D7
:101D400053082F9A84E80E94E4088111FBCF84E1B4
:101D50000E94E4088823E1F00E94510888EC90E09A
:101D60000E9453082E9882E090E00E945913882325
:101D700029F060E082E090E00E94611384EF91E03E
:101D80000E9453082E9A84E10E94E4088111FBCF3F
:101D900088EC90E00E945308B2CF0E94510882E084
:101DA00090E00E94A209882309F436C23E9A3F9A25
:101DB00081E090E00E94A209182F147081FF10C0EA
:101DC00011112E9841EF5FEF5C834B8380E40E94FA
:101DD000E408882309F423C22E9A2F9A0E945108FE
:101DE00082E390E00E9453080E9458088111F8CFC6
:101DF00080E18093000180910D0190910E0181306E
:101E0000910509F081C30E94F208882309F44EC3AA
:101E10000E94D8051092950110929401109293019E
:101E20001092920180E40E94E408082F80E20E9450
:101E3000E408081B110B80E10E94E408898380E814
:101E40000E94E4084981481B550B5C834B838091B9
:101E50008E0190918F010115110519F4452B09F49C
:101E600048C2209101013091020121503109309383
:101E7000020120930101121613067CF001968430B2
:101E800091050CF031C290938F0180938E0188E010
:101E900090E090930201809301018B819C810196D7
:101EA0009C01220F331F820F931F98012F5F3F4F1A
:101EB000820F931FFC01EE0FFF1FEF5AFE4F808130
:101EC00091819093910180939001B801110F880B3B
:101ED000990B0E947C149B01AC01609107017091E9
:101EE00008018091090190910A010E94D313609327
:101EF0000701709308018093090190930A01AB8157
:101F0000BC81BD01BB0F880B990B0E947C149B0107
:101F1000AC016091030170910401809105019091E1
:101F200006010E94D3136093030170930401809310
:101F3000050190930601C0900701D0900801E09040
:101F40000901F0900A0120E030E040E151E4C701CE
:101F5000B6010E943F1487FFE1C180E090E0A0E15C
:101F6000B1E48093070190930801A0930901B09315
:101F70000A01C0900301D0900401E0900501F090A7
:101F8000060120E030E040E851E4C701B6010E94BC
:101F90003F1487FFD3C180E090E0A0E8B1E48093D4
:101FA000030190930401A0930501B093060190E012
:101FB00080E00E942609E0910906F0E0EE0FFF1F85
:101FC000E35DFE4F408151816091070670910806E4
:101FD0000CE02BE080910506909106060E94CA0451
:101FE00020918C0130918D013E832D8380900301DF
:101FF00090900401A0900501B0900601C0900701E7
:10200000D0900801E0900901F0900A01D90155969D
:102010008C915597882309F406C21B962D913C910B
:102020001C97C90104968938910508F0B4C11D9622
:102030008D919C911E97AC01485F5F4F40355105D3
:1020400008F0A9C15196ED91FC91EE0FFF1FEB5DD9
:10205000FE4F608171816115710509F49CC108977B
:10206000AC0197FF04C044275527481B590BB42FD8
:10207000B7704B2EAC0197FF02C0495F5F4FE3E0A2
:1020800055954795EA95E1F7142F97FF07C044202F
:1020900029F01FEF140FE8E0E4194E2E3901F5E0A6
:1020A0006F1A7108E5E0F0E0E21BF30B77FC02C069
:1020B000F0E0E0E02B3731050CF450C130E8532E4E
:1020C00056185E1A212F20951F3F0CF020E038E0B3
:1020D000311B16300CF433E0AD81BE815396BC91B8
:1020E000BB83A32FA21B120F012F30E81303A00103
:1020F0001124460D571D1A012E0E3F1E4AE0249F43
:1021000090011124E20FF31FE60FF71FB170B9839E
:102110005B8150FF0FC0652D70E0AB01415051094C
:10212000E40FF51F4AE050E0461B570B77FE19C13C
:10213000E41BF50BBB81B270BA834B8141FF10C029
:102140004A2F4150550BBA01BAE0B69FA001B79F84
:10215000500D1124E40FF51F97FF06C1E21BF30B8E
:10216000442D042C000C550B5C834B83B1016B5444
:102170007E4F1A0F252C312C8AE0682E712C6218A4
:1021800073085AE0250E311C101709F404C150E001
:1021900040E0451508F0F0C084918823A9F19A81A8
:1021A0009923B9F0829590E09C0135952795359556
:1021B00027952373880F991F880F991F8C7C282BD4
:1021C00030E0C901959587958575220F331F2A7ACE
:1021D000822B90E00B8002C0880F991F0A94E2F7CF
:1021E00007FD06C0DB01A40FB51F2C91282B2C93F3
:1021F000442051F0073044F4DA01A058BF4FA60F35
:10220000B71F8C91892B8C93A981AA2309F4B2C0A2
:1022100031974F5F5F4FBDCF3E983F98C9CD112397
:1022200031F08B819C81049711F42E9A2F9881E0D4
:102230000E94920500E128E54CE058E06B817C812A
:1022400084E190E00E94CA040E94EF088FE090E0D1
:102250000E945308AB81BC811196BC83AB83599714
:1022600009F0B4CD112311F02F9A2D9880E991E057
:102270000E9453080E94510881E090E00E94A20948
:1022800080FFAECD8AE090E00E94A2099FEF980FF8
:102290009E3F08F0A5CD22E330E0309393012093D8
:1022A000920128E330E03093950120939401EBE014
:1022B000F0E0FC83EB83682F8AE096E00E948108BF
:1022C0008B819C810E94A2092B813C812F5F3F4F13
:1022D0003C832B832131310571F70E94EF0888EE92
:1022E00093E00E9453087CCD10928F0110928E01D2
:1022F000CECD892B09F41FCE80910101909102016E
:10230000089709F418CE10928F0110928E01E8E020
:10231000F0E0F0930201E09301010DCE20E030E007
:102320004EEE52E4C701B6010E942C1518160CF0AF
:1023300020CE80E090E0AEEEB2E413CE20E030E0BC
:1023400040E652E4C701B6010E942C1518160CF0A5
:102350002ECE80E090E0A0E6B2E421CE2AE0522E1C
:10236000B0CEE40FF51FE6CE2AE01202E00DF11D1B
:102370001124F6CE31964DCF0F5FB981BB2341F0CA
:10238000E20DF31D2A812111749760587F4FFCCE16
:10239000E60DF71DF7CFC701B6010E944414AD81C9
:1023A000BE811F962D913C91509721503109509636
:1023B0003C932E931F971B968D919C911C9786178B
:1023C00097070CF07BC0E1E0F0E05496FC93EE93AD
:1023D000539737FF28C02EE130E0ED81FE81308B2E
:1023E0002787218932892F5F3F4F243031050CF038
:1023F0006CC0328B218B861797070CF06DC002964C
:10240000ED81FE8194878387C501B4010E94441445
:10241000ED81FE8185859685861797070CF068C04B
:1024200002969687858741E064E170E084E190E060
:102430000E94600841E06CE270E08CE690E00E944F
:1024400060088091900190919101880F991F880FE9
:10245000991FE0918E01F0918F01E80FF91FEE0FA7
:10246000FF1FEF5CFE4F208131813C832B8320E0F6
:1024700030E040E051E4C501B4010E94D2130E9453
:1024800044144B0120E030E040E151E4C701B601C3
:102490000E94D2130E944414CB0100E122E14B813F
:1024A0005C81B4010E94CA040E94EF08E0E0F0E001
:1024B000EF2B09F4A0CC0E9400009DCCAD81BE8121
:1024C00054961C921E92539784CFAD81BE81529632
:1024D0001C921E9251978FCF681779070CF094CFFA
:1024E0000297AD81BE811C969C938E931B978CCFD7
:1024F000681779070CF097CF0297AD81BE811E96C1
:102500009C938E931D978FCF029781F60E94F208BD
:10251000882361F20E94D8051092950110929401CF
:10252000109293011092920140910B0150910C0175
:102530005C834B83CA010E9426098B819C81805851
:1025400091090E9426098B819C811816190634F482
:10255000019790930C0180930B01A6CFA1E0B0E00E
:10256000B0930E01A0930D019FCF8F929F92AF92D7
:10257000BF92CF92DF92EF92FF92CF93DF93EC0165
:10258000688179818A819B81611571058105910539
:1025900021F464E279ED8BE597E02DE133EF41E042
:1025A00050E00E946F1349015A019B01AC01A7EA58
:1025B000B1E40E948E136B017C01ACEEB4EFA50177
:1025C00094010E949C13C60ED71EE81EF91EF7FE4A
:1025D00006C081E0C81AD108E10880E8F80AC8827C
:1025E000D982EA82FB82C701B6019F77DF91CF9142
:1025F000FF90EF90DF90CF90BF90AF909F908F9023
:1026000008958F929F92AF92BF92CF92DF92EF92F6
:10261000FF9260911B0170911C0180911D019091AE
:102620001E01611571058105910521F464E279EDC2
:102630008BE597E02DE133EF41E050E00E946F130E
:1026400049015A019B01AC01A7EAB1E40E948E1333
:102650006B017C01ACEEB4EFA50194010E949C13C8
:10266000C60ED71EE81EF91EF7FE06C081E0C81A86
:10267000D108E10880E8F80AC0921B01D0921C0141
:10268000E0921D01F0921E01C701B6019F77FF90F5
:10269000EF90DF90CF90BF90AF909F908F90089574
:1026A00060931B0170931C0180931D0190931E0188
:1026B0000895F999FECF92BD81BDF89A992780B50A
:1026C0000895262FF999FECF1FBA92BD81BD20BD76
:1026D0000FB6F894FA9AF99A0FBE01960895052E4E
:1026E00097FB1EF400940E94861357FD07D00E94AA
:1026F000A11307FC03D04EF40C948613509540951B
:10270000309521953F4F4F4F5F4F0895909580959D
:10271000709561957F4F8F4F9F4F08950E94C3130F
:10272000A59F900DB49F900DA49F800D911D112425
:102730000895B7FF0C948E130E948E13821B930B87
:102740000895A1E21A2EAA1BBB1BFD010DC0AA1FF2
:10275000BB1FEE1FFF1FA217B307E407F50720F00A
:10276000A21BB30BE40BF50B661F771F881F991F85
:102770001A9469F760957095809590959B01AC01CE
:10278000BD01CF010895A29FB001B39FC001A39FD7
:10279000700D811D1124911DB29F700D811D11249A
:1027A000911D08955058BB27AA270E94EA130C9444
:1027B000F2140E94E41438F00E94EB1420F039F473
:1027C0009F3F19F426F40C94E1140EF4E095E7FB16
:1027D0000C94DB14E92F0E94031558F3BA17620713
:1027E00073078407950720F079F4A6F50C94251556
:1027F0000EF4E0950B2EBA2FA02D0B01B90190011C
:102800000C01CA01A0011124FF27591B99F0593F5F
:1028100050F4503E68F11A16F040A22F232F342FA7
:102820004427585FF3CF469537952795A795F040F5
:102830005395C9F77EF41F16BA0B620B730B840B0A
:10284000BAF09150A1F0FF0FBB1F661F771F881FC2
:10285000C2F70EC0BA0F621F731F841F48F487951A
:1028600077956795B795F7959E3F08F0B0CF93950C
:10287000880F08F09927EE0F9795879508950E9485
:10288000B71408F481E008950E944B146894B111C4
:102890000C94261508950E940B1588F09F5798F008
:1028A000B92F9927B751B0F0E1F0660F771F881F55
:1028B000991F1AF0BA95C9F714C0B13091F00E946F
:1028C0002515B1E008950C942515672F782F8827DA
:1028D000B85F39F0B93FCCF3869577956795B39596
:1028E000D9F73EF490958095709561957F4F8F4F05
:1028F0009F4F0895E89409C097FB3EF4909580950A
:10290000709561957F4F8F4F9F4F9923A9F0F92FB5
:1029100096E9BB279395F695879577956795B79533
:10292000F111F8CFFAF4BB0F11F460FF1BC06F5F19
:102930007F4F8F4F9F4F16C0882311F096E911C02B
:10294000772321F09EE8872F762F05C0662371F04C
:1029500096E8862F70E060E02AF09A95660F771F60
:10296000881FDAF7880F9695879597F90895990F3C
:102970000008550FAA0BE0E8FEEF16161706E80749
:10298000F907C0F012161306E407F50798F0621B6A
:10299000730B840B950B39F40A2661F0232B242B3F
:1029A000252B21F408950A2609F4A140A6958FEF5E
:1029B000811D811D089597F99F6780E870E060E0B0
:1029C00008959FEF80EC089500240A9416161706C8
:1029D00018060906089500240A9412161306140610
:1029E00005060895092E0394000C11F4882352F073
:1029F000BB0F40F4BF2B11F460FF04C06F5F7F4F2B
:102A00008F4F9F4F089557FD9058440F551F59F011
:102A10005F3F71F04795880F97FB991F61F09F3FCB
:102A200079F087950895121613061406551FF2CFF4
:102A30004695F1DF08C0161617061806991FF1CF44
:102A400086957105610508940895E894BB2766276B
:102A50007727CB0197F908950E94B71408F48FEFF8
:102A60000895EE0FFF1F0590F491E02D09940F9348
:102A70001F93CF93DF938230910510F482E090E0B2
:102A8000E0911006F091110630E020E0B0E0A0E007
:102A9000309799F42115310509F44AC0281B390BE8
:102AA00024303105D8F58A819B816115710589F142
:102AB000FB0193838283FE0111C040815181028119
:102AC000138148175907E0F04817590799F41097F0
:102AD00061F012960C93129713961C933296CF01C5
:102AE000DF91CF911F910F910895009310061093DD
:102AF0001106F4CF2115310551F04217530738F074
:102B0000A901DB019A01BD01DF01F801C1CFEF018D
:102B1000F9CF9093110680931006CDCFFE01E20FFE
:102B2000F31F819391932250310939832883D7CFA2
:102B300020910E0630910F06232B41F420912101A4
:102B40003091220130930F0620930E0620911F0131
:102B5000309120012115310541F42DB73EB7409148
:102B6000230150912401241B350BE0910E06F091B6
:102B70000F06E217F307A0F42E1B3F0B28173907A7
:102B800078F0AC014E5F5F4F2417350748F04E0FC9
:102B90005F1F50930F0640930E06819391939FCF32
:102BA000F0E0E0E09CCFCF93DF930097E9F0FC01E9
:102BB000329713821282A0911006B0911106ED0196
:102BC00030E020E01097A1F420813181820F931F23
:102BD00020910E0630910F062817390709F061C0C1
:102BE000F0930F06E0930E06DF91CF910895EA016E
:102BF000CE17DF07E8F54A815B819E01411551053B
:102C0000B1F7E901FB83EA8349915991C40FD51FBC
:102C1000EC17FD0761F4808191810296840F951F66
:102C2000E90199838883828193819B838A83F0E081
:102C3000E0E012968D919C9113970097B9F52D9134
:102C40003C911197CD010296820F931F20910E06A1
:102C500030910F062817390739F6309751F5109241
:102C6000110610921006B0930F06A0930E06BCCF6B
:102C7000D383C28340815181840F951FC817D90720
:102C800061F44E5F5F4F88819981480F591F5183CE
:102C900040838A819B81938382832115310509F0CA
:102CA000B0CFF0931106E09310069ECFFD01DC013A
:0C2CB000C0CF13821282D7CFF894FFCF60
:102CBC00100800000000420000804280000200FF6B
:102CCC00FFFFFF00E1000000000000010000000019
:102CDC0000120680000601E800CA00AC003A01248C
:102CEC0001DC02B802DC02940270024C0270022871
:102CFC00020402E0010402BC019801740198015025
:102D0C0001020002000200010001000300000000AB
:102D1C0000000000C18081000000000000003406AB
:102D2C009F0755064A069B065906770600000000C9
:082D3C00810824089F099E098B
:00000001FF
