:100000000C941C070C9444070C9444070C9444076C
:100010000C9444070C9444070C9444070C94440734
:100020000C9444070C9444070C94B90D0C94280EBE
:100030000C9444070C9444070C9444070C94440714
:100040000C9444070C9444070C9444070C94440704
:100050000C9444070C9444070C9444070C946F0DC3
:100060000C9444070C9444070C9444070C944407E4
:100070000C9444070C9444070C9444070C944407D4
:100080000C9444070C9444070C9444070C944407C4
:100090000C9444070C9444070C9444070C944407B4
:1000A0000C9444070C9444070C94440700000098F7
:1000B00074BCF4B8000000001F00F50A0A35DF0028
:1000C0000000000101000000010000009874BCF471
:1000D000B8000000000F000DEA1A1DEF000000003C
:1000E00000010000010100000000804CBA5E7ADCD3
:1000F000800000004F806A1515EA0F000000000024
:100100000000010100000000804CBA5E7ADC800033
:1001100000000F00EA1515EA0F00000000010100C1
:1001200001010000F0F0D0D050D0D0D0D090F00F2E
:100130000A0E0A0A0A0A0B0A0A0FFF15D7D51195EB
:1001400095151D15FF0F080B0B080B0B080B080F5F
:1001500000082200840022080000000000000000C7
:100160000000001C22428442221C0000000000000B
:100170000000000004FC07FC04000102010004046C
:100180001F0A0A0A0A0A0A0480FE81FE8000000390
:10019000000012100000000000F834221191B29407
:1001A000680000000000000000001F000040400048
:1001B0003E40011E000000000000000000F0684406
:1001C00022226428D000000000000000000C120170
:1001D000004040011D21021C000000000000000042
:1001E00000F834221191B294680000000000000071
:1001F00000001F00004040003E40011E00000000C3
:100200000000000000F0684422226428D0000000B2
:1002100000000000000C1201000020213D41021CE2
:100220000000000012100000406000F0080482820C
:100230000408F000604000000000003E81800101E1
:100240000000010180813E000000000080C000E04D
:10025000100804040810E000C0800000000018240A
:100260008281020201010202014224180000000002
:10027000406000F0080482820408F0006040000042
:100280000000003E818001010000010180813E00EC
:100290000000000080C000E0100804040810E00026
:1002A000C080000000001824420102020101020285
:1002B0008182241800001210000000000058A4A23F
:1002C000A1212234F80000000000000000001E01FF
:1002D000403E00404000001F000000000000000001
:1002E00000B0484442424468F000000000000000B2
:1002F00000001C02211D0140400001120C00000002
:10030000000000000058A4A2A1212234F80000003F
:100310000000000000001E01403E00404000001FA1
:10032000000000000000000000B048444242446861
:10033000F00000000000000000001C02413D2120F0
:10034000000001120C00000012100000406000B01C
:10035000286422424448F000604000000000003E53
:1003600081808101FFFF018180813E00000000004B
:1003700080C0006050C844848890E000C0800000C5
:100380000000182482818202FEFE024241422418AB
:1003900000000000406000B0286422424448F000A1
:1003A000604000000000003E81808101FFFF01816C
:1003B00080813E000000000080C0006050C844847E
:1003C0008890E000C08000000000182442414202F2
:1003D000FEFE028281822418000000000000003E20
:1003E0005B4F5B3E3E6B4F6B3E1C3E7C3E1C183CA5
:1003F0007E3C181C577D571C1C5E7F5E1C00183C01
:100400001800FFE7C3E7FF0018241800FFE7DBE749
:10041000FF30483A060E2629792926407F05050730
:10042000407F05253F5A3CE73C5A7F3E1C1C08088C
:100430001C1C3E7F14227F22145F5F005F5F060951
:100440007F017F006689956A606060606094A2FFAA
:10045000A29408047E040810207E201008082A1C9C
:1004600008081C2A08081E101010100C1E0C1E0C68
:1004700030383E3830060E3E0E0600000000000008
:10048000005F00000007000700147F147F14242A77
:100490007F2A122313086462364956205000080749
:1004A0000300001C2241000041221C002A1C7F1C6A
:1004B0002A08083E0808008070300008080808086C
:1004C000000060600020100804023E5149453E00D3
:1004D000427F400072494949462141494D33181431
:1004E000127F1027454545393C4A49493141211180
:1004F00009073649494936464949291E0000140072
:100500000000403400000008142241141414141494
:10051000004122140802015909063E415D594E7CF2
:100520001211127C7F494949363E414141227F41A7
:1005300041413E7F494949417F090909013E414105
:1005400051737F0808087F00417F41002040413FF0
:10055000017F081422417F404040407F021C027FFF
:100560007F0408107F3E4141413E7F090909063E54
:100570004151215E7F091929462649494932030123
:100580007F01033F4040403F1F2040201F3F403835
:10059000403F631408146303047804036159494D10
:1005A00043007F4141410204081020004141417F46
:1005B00004020102044040404040000307080020BC
:1005C000545478407F2844443838444444283844BC
:1005D00044287F385454541800087E090218A4A4F3
:1005E0009C787F0804047800447D40002040403D12
:1005F000007F1028440000417F40007C047804788C
:100600007C080404783844444438FC18242418181E
:10061000242418FC7C08040408485454542404047A
:100620003F44243C4040207C1C2040201C3C403067
:10063000403C44281028444C9090907C4464544C96
:1006400044000836410000007700000041360800F1
:1006500002010204023C2623263C1EA1A161123A9B
:100660004040207A385454555921555579412154E8
:10067000547841215554784020545579400C1E52ED
:100680007212395555555939545454593955545491
:10069000580000457C410002457D420001457C40F8
:1006A000F0292429F0F0282528F07C545545002015
:1006B00054547C547C0A097F4932494949323248B2
:1006C000484832324A4848303A4141217A3A424019
:1006D0002078009DA0A07D39444444393D404040ED
:1006E0003D3C24FF2424487E4943662B2FFC2F2BBE
:1006F000FF0929F620C0887E09032054547941005F
:1007000000447D413048484A32384040227A007ADD
:100710000A0A727D0D19317D2629292F28262929BB
:10072000292630484D4020380808080808080808DD
:10073000382F10C8ACBA2F102834FA00007B000004
:1007400008142A142222142A14089500220095AABB
:10075000005500AAAA55AA55AA000000FF001010D3
:1007600010FF00141414FF001010FF00FF1010F011
:1007700010F0141414FC001414F700FF0000FF0024
:10078000FF1414F404FC141417101F10101F101F72
:100790001414141F00101010F0000000001F10109F
:1007A00010101F10101010F010000000FF1010109B
:1007B000101010101010FF10000000FF140000FFB8
:1007C00000FF00001F10170000FC04F414141710A1
:1007D000171414F404F40000FF00F7141414141494
:1007E0001414F700F7141414171410101F101F140A
:1007F0001414F4141010F010F000001F101F00006B
:10080000001F14000000FC140000F010F01010FF96
:1008100010FF141414FF141010101F00000000F03B
:1008200010FFFFFFFFFFF0F0F0F0F0FFFFFF000010
:10083000000000FFFF0F0F0F0F0F38444438447CB7
:100840002A2A3E147E02020606027E027E026355BA
:100850004941633844443C04407E201E2006027E09
:10086000020299A5E7A5991C2A492A1C4C7201721B
:100870004C304A4D4D303048784830BC625A463D85
:100880003E494949007E0101017E2A2A2A2A2A443A
:10089000445F444440514A444040444A514000006F
:1008A000FF0103E080FF000008086B6B083612367A
:1008B0002436060F090F060000181800000010105B
:1008C000003040FF0101001F01011E00191D171219
:1008D000003C3C3C3C0000000000080B000202020F
:1008E00000000904000001020200000524001001BC
:1008F0000524010101042402060524060001070560
:10090000810310004009040100020A0000000705ED
:1009100002024000000705830240000004030904AE
:1009200012010002EF020140412336800001010262
:10093000030141726475696E6F204C4C4300417233
:100940006475696E6F204C656F6E6172646F00072D
:100950000605040100080A0B0C0D09F0F89C8E87AF
:1009600083878E9CF8F00000FEFF03030303030758
:100970000EFCF80000FEFF0303030303070EFCF860
:100980000000FFFF00000000000000FFFF0000FE6D
:10099000FF8383838383C7EE7C380000F8FC0E0757
:1009A000030303070EFCF800003F7FE0C08080C017
:1009B000E07F3FFFFF01010101010101FFFF000096
:1009C000FFFF0C0C0C0C1C3E77E3C100007FFFC046
:1009D000C0C0C0C0E0703F1F00001F3F70E0C0C03B
:1009E000C0E0703F1F00007FFFC1C1C1C1C1E377FC
:1009F0003E1C00001F3F70E0C0C0C0E0703F1F0001
:100A00000000000001FFFF01000000D5F08D14A1DF
:100A1000C881CFD9F1AF2000000000000000000025
:100A200000000000000000000000000000000000C6
:100A300000000000000000000000000000000000B6
:100A400000000000000000000000000000000000A6
:100A50000000000000000000000000000000000096
:100A60000000000000000000000000000000000086
:100A70000000000000000000000000000000000076
:100A80000000000000000000000000000000000066
:100A90000000000000000000000000000000000056
:100AA0000000000000000000000000000000000046
:100AB0000000000000000080808080808000000036
:100AC00000808080808080000000008080808080A6
:100AD0008000000000808080808080000000008016
:100AE0008080808080000000008080808080800086
:100AF00000000080808080808000000000000000F6
:100B000000000000000000000000000000000000E5
:100B100000000000000000000000000000000000D5
:100B200000000000000000000000000000000000C5
:100B30000000000000003F7F616161697B3B0000B5
:100B40003F7F6D6D6161733300007F7F01010101A3
:100B50007F7F00003F7F6D6D6161733300007F7F99
:100B60000D0D0D0D7F7700003373617F7F6173334F
:100B700000003F7F6161616173330000000000008D
:100B80000000000000000000000000000000000065
:100B90000000000000000000000000000000000055
:100BA0000000000000000000000000000000000045
:100BB000000000FE02020202020204F80000FE0031
:100BC000000000000000FE0000FE0618608000002B
:100BD00000FE0000F804020202020204180000FEF7
:100BE00002020202020202020000F80402020202F1
:100BF0000204F80000FE06186080000000FE0000FD
:100C000000000000000000000000000000000000E4
:100C100000000000000000000000000000000000D4
:100C200000000000000000000000000000000000C4
:100C30000000007F404040404040201F00001F2037
:100C40004040404040201F00007F00000001061887
:100C5000607F00001F204040404041211F00007F76
:100C6000414141414141404000001F20404040403F
:100C700040201F00007F000000010618607F000078
:100C80000000000000000000000000000000000064
:100C90000000000000000000000000000000000054
:100CA0000000000000000000000000000000000044
:100CB0000000000000000000000000000000000034
:100CC0000000000000FCFE868686A6EEEC0000FC1C
:100CD000FE66666666FEFC0000FCFE060C0C06FE68
:100CE000FC0000FCFEB6B68686CECC0000000000FC
:100CF00000000000000000000000000000000000F4
:100D000000000000000000000000000000000000E3
:100D100000000000000000000000000000000000D3
:100D200000000000000000000000000000000000C3
:100D300000000000000000000000000000000000B3
:100D4000000000000000010101010101000000019C
:100D5000010000000001010000010100000000018D
:100D6000010000000101010101010000000000007C
:100D70000000000000000000000000000000000073
:100D80000000000000000000000000000000000063
:100D90000000000000000000000000000000000053
:100DA0000000000000000000000000000000000043
:100DB0000000000000000000000000000000000033
:100DC00000000000000000003E0A0E003E1A2E0047
:100DD0003E2A22002E2A3A002E2A3A000000182429
:100DE0002418000C12120C0000000000000000008B
:100DF00000000000000000000000000000000000F3
:100E000000000000000000000000000000000000E2
:100E100000000000000000000000000000000000D2
:100E2000000040C020181040088810000000000199
:100E30000000000000008D1011241FBECFEFDAE08B
:100E4000DEBFCDBF11E0A0E0B1E0E2E8FBE302C00D
:100E500005900D92AE38B107D9F726E0AEE8B1E0C3
:100E600001C01D92AF31B207E1F717E0CCE1D7E046
:100E700004C02197FE010E94941CCB31D107C9F711
:100E80000E94CC100C94BF1D0C9400002F923F9236
:100E90004F925F926F927F928F929F92AF92BF928A
:100EA000CF92DF92EF92FF920F931F93CF93DF9336
:100EB000A22EB12C9501280F391F121613060CF023
:100EC0009DC0803891050CF099C09B01200F311D09
:100ED000121613060CF092C0603471050CF08EC02F
:100EE0009B0177FF04C022273327261B370B27706F
:100EF0003327DB0177FD1796E3E0B595A795EA95D3
:100F0000E1F777FF07C0119768E070E0FB01E21B93
:100F1000F30B9F01E02EE694E694E694F12C077023
:100F200019F0FFEFEF1AFF0A8A01AD015695542F11
:100F3000442757954795480F591F4D535E4FBD01A4
:100F4000E8E0F0E02F01421A530A6F3FEFEF7E070F
:100F50000CF444C06C01D0E0C0E03A01E0E86E0E51
:100F6000711CD7FC2FC06F3F760709F45AC0F801F7
:100F7000EC0FFD1FE4914A018C0E9D1EF0E01F0155
:100F8000022E01C0220C0A94EAF7F40130802328D3
:100F9000208221153105B1F06730710599F0F80113
:100FA000EC0FFD1FE49143018C0E9D1EF0E01F012C
:100FB000042C02C0359427940A94E2F7F40130809F
:100FC000232820822196FFEFCF1ADF0ACA15DB05FE
:100FD0002CF4F0E8CF16D10409F0C3CF6F5F7F4F38
:100FE0000A0D1B1D40585F4FFB01EA1BFB0BEE1562
:100FF000FF0524F46830710509F0A7CFDF91CF9188
:101000001F910F91FF90EF90DF90CF90BF90AF9026
:101010009F908F907F906F905F904F903F902F9018
:1010200008952115310509F0BACFCCCFE3ECF1E0FA
:10103000A0E0B8E000800EBC8111012C1197A0FD4A
:10104000FDCF0192B9F70DB408959C0121583F4F8F
:101050002F3F310580F59C0197FF02C030E020E072
:1010600080589F4F8138910514F080E890E0821BF2
:10107000AB014770552791E001C0990F4A95EAF7F7
:1010800077FF02C0695F7F4FFB0143E0F595E7956D
:101090004A95E1F7F695FE2FEE27F795E795E20FD3
:1010A000F31FED53FE4F815030F02191DF01119776
:1010B000292B2C93F8CF08954F925F926F927F92D5
:1010C0008F929F92AF92BF92CF92DF92EF92FF9258
:1010D0000F931F93CF93DF935A01322F3695EC0174
:1010E000C31BD109C22ED12CDE01AC0DBD1D1A16B9
:1010F0001B060CF013C1C038D1050CF00FC1802FB6
:101100008695681B7109CB01800F911D1816190671
:101110000CF004C1603471050CF000C1452B09F4DA
:10112000FDC0CB0177FF04C088279927861B970B4A
:10113000982F9770AB0177FF02C0495F5F4FE3E0E4
:1011400055954795EA95E1F7342F77FF07C0992326
:1011500029F03FEF340F88E0891B982FEE27FF27F7
:10116000EC1BFD0BD7FD02C0F0E0E0E050E85C1B9B
:10117000A038B1050CF4522F5E1B832E032E000CF9
:101180009908A82DA0953F3F0CF0A0E041E0802FEA
:10119000877009F440E0069506950695400F840E89
:1011A000911C89E08816910414F048E0431B4A1B07
:1011B0003A0F832F10E83103400111248C0E9D1E3D
:1011C0008E0E9F1E2A9FD0011124EA0FFB1FEA0DED
:1011D000FB1D1E2D1170612EE0FE0EC0A52EB12C40
:1011E000850101501109E00FF11F86010A191B0941
:1011F000D7FF7AC0E01BF10BCE2DC2707C2EE1FE32
:1012000011C0C42FC150DD0B8E010C9DE0010D9D5E
:10121000D00D1C9DD00D1124EC0FFD1F77FF67C072
:10122000EA1BFB0BE92E092E000CFF08D601AA0FC2
:10123000BB1F442455244A1A5B0AE401CD53DE4FF8
:10124000842E830E252F30E08601021B130BC20E65
:10125000D31E881609F462C070E060E0651708F0DC
:101260004EC024912223D1F17720D1F0229530E095
:101270005901B594A794B594A7944A2D4373220FAE
:10128000331F220F331F2C7C242BA22EB12C95014F
:10129000359527952575AA0CBB1CAA2DAA7A2A2B51
:1012A00030E00E2C02C0220F331F0A94E2F787FDB4
:1012B00007C05E01A60EB71ED5019C90922A9C9293
:1012C000992361F0873054F45B01B0E8AB0EB11C98
:1012D000AC0EBD1ED5012C91232B2C93662069F0FA
:1012E00031976F5F7F4FBACFE00FF11F85CF320389
:1012F000B0011124E60FF71F95CF3196F2CF8F5F23
:10130000662049F0EC0DFD1D772011F0E40DF51D70
:10131000C058DF4F9ECFE00FF11FF6CFDF91CF9186
:101320001F910F91FF90EF90DF90CF90BF90AF9003
:101330009F908F907F906F905F904F900895FC01E9
:101340008091C201882311F13FB7F89482E0809325
:10135000E9002091F200822F90E01816190614F48B
:1013600081E090E0882339F0289844E64093C10159
:101370004091F1004083222339F02091F2002111A5
:1013800003C02BE62093E8003FBF08958FEF9FEF47
:1013900008952FB7F89483E08093E9009091E800D6
:1013A000892F807295FF04C09091F20080E4891B20
:1013B0002FBF08958091B90181110DC082E0809303
:1013C000B50184E08093B6011092B8011092B70184
:1013D00081E08093B90185EB91E008953FB7F894DF
:1013E0008091B1019091B201A091B301B091B4018B
:1013F00026B5A89B05C02F3F19F00196A11DB11D70
:101400003FBFBA2FA92F982F8827BC01CD01620FAB
:10141000711D811D911D42E0660F771F881F991F66
:101420004A95D1F708958F929F92AF92BF92CF9233
:10143000DF92EF92FF926B017C010E94EE094B015B
:101440005C01C114D104E104F104B9F00E94EE0979
:10145000681979098A099B09683E734081059105DD
:1014600080F321E0C21AD108E108F10888EE880E65
:1014700083E0981EA11CB11CE4CFFF90EF90DF9099
:10148000CF90BF90AF909F908F900895409194011E
:101490005091950120919201309193014217530789
:1014A000B4F49091E8009570E1F39091E80092FD1A
:1014B00019C08093F100809194019091950101965B
:1014C0008F739927892B19F48EEF8093E800809110
:1014D00094019091950101969093950180939401C8
:1014E00081E0089580E00895DF92EF92FF920F93DC
:1014F0001F93CF93DF93D82E8A01EB017B01E40E7B
:10150000F51ECE15DF0559F0D7FE12C0FE018491FD
:101510000E94460A21968111F4CF0FEF1FEFC801F8
:10152000DF91CF911F910F91FF90EF90DF90089581
:101530008881EECF0F931F93CF93DF931F92CDB788
:10154000DEB782E0898342E450E06AED78E080E82B
:101550000E94740A0E94DA09DC0112960D911C9116
:101560000115110589F0D801ED91FC910280F381FC
:10157000E02DBE016F5F7F4FC801099597FD04C044
:10158000F80100851185ECCF89810F90DF91CF9113
:101590001F910F910895615030F02091F100FC01EE
:1015A00020830196F8CF289884E68093C10108959E
:1015B000AF92BF92CF92DF92EF92FF920F931F9361
:1015C000CF93DF936C017B018B01040F151FEB019F
:1015D0005E01AE18BF08C017D10759F06991D60156
:1015E000ED91FC910190F081E02DC6010995892BC8
:1015F00079F7C501DF91CF911F910F91FF90EF9087
:10160000DF90CF90BF90AF9008958F929F92AF924E
:10161000BF92CF92DF92EF92FF920F931F93CF93DF
:10162000DF936C017B018A0180910B01882309F40F
:101630005CC08091C201882309F457C08091980151
:1016400080FF05C08091E00082608093E000E801A7
:10165000B12C8AEFA82E93E0892E2AE3922E2097B0
:1016600011F4BB20D9F10E94C90981110AC0AA94C2
:10167000AA20D9F161E070E080E090E00E94130AB6
:10168000EECF8C171D0611F00CF08C2F9FB7F8943D
:101690008092E9002091E80025FD02C09FBFDFCFC6
:1016A000282F30E0C21BD30BF701815020F041916D
:1016B0004093F100FACFE20EF31EBB2021F090928E
:1016C000E800B12CEBCF8091E80085FDE7CF909248
:1016D000E800BB24B394209709F3F3CF5D9884E628
:1016E00080939701101611063CF081E090E0F6011E
:1016F0009383828310E000E0C801DF91CF911F91B6
:101700000F91FF90EF90DF90CF90BF90AF909F90A0
:101710008F900895CF93DF931F92CDB7DEB7698383
:10172000DC01ED91FC910280F381E02D41E050E07D
:10173000BE016F5F7F4F09950F90DF91CF910895A4
:1017400083E08093E9008091F200882319F08AE316
:101750008093E80008950E94C90990E00895CF930E
:10176000DF931F92CDB7DEB7FC018485958597FD89
:1017700008C02FEF3FEF358724870F90DF91CF917F
:101780000895CE0101960E949F09019719F489815D
:1017900090E0F3CF8FEF9FEFF0CF0F931F93CF9396
:1017A000DF931F92CDB7DEB78C01FC018485958550
:1017B00097FF0BC0CE0101960E949F09019771F41B
:1017C000898190E0F80195878487F8018485958563
:1017D0000F90DF91CF911F910F9108958FEF9FEFA1
:1017E000F1CFFC018485958597FD0BC09FB7F894D8
:1017F00082E08093E9008091F2009FBF90E0019623
:1018000008959FB7F89482E08093E9008091F200F8
:101810009FBF90E008952D9A0895BC0190E080E06C
:101820000C94130A8FB18095807F669B88601C9B07
:101830008460089580E0E3ECF1E081118FEF0024F3
:1018400081938193819381930394D1F710929B01AB
:1018500010929A0110929D0110929C010895CF93CD
:10186000C82F0E94120C982F9C2381E09C1380E0CB
:10187000CF91089580E00C94160880389105B8F453
:1018800060347105A0F420E191E061FD94E060FD19
:10189000990F62FD9295687F269FD0011124A80FB1
:1018A000AD53BE4F8C9140FF03C0892B8C9308959C
:1018B00090958923FBCF8F929F92AF92BF92CF9248
:1018C000DF92EF92FF920F931F93CF93DF936D30D0
:1018D00089F0C0909A01D0909B016A30D1F41092A7
:1018E0009D0110929C0188E0C80ED11CD0929B01F2
:1018F000C0929A0181E090E0DF91CF911F910F910A
:10190000FF90EF90DF90CF90BF90AF909F908F901F
:10191000089500919C0110919D01E5E06E9FE0010A
:101920001124C652DC4F4801F12CF5E0E12CFF16E2
:1019300029F0CE010196FE01E490EC01B12CA12C1E
:101940004E2D4170B6016A0D7B1DC4010E943D0CF5
:10195000E694FFEFAF1ABF0A88E0A816B10481F73A
:10196000F394EFEF8E1A9E0AF6E0FF12DECF0A5FC5
:101970001F4F10939D0100939C01BCCF8FB7F8942B
:101980004091AD015091AE016091AF017091B001F5
:101990008FBF80919001882321F01092900180E008
:1019A000089590919101242F291B922F20910C01D1
:1019B000921740F49F5F9217A0F491E093BF88952F
:1019C00013BE089581E0809390014093910180912E
:1019D0008E0190918F01019690938F0180938E01DB
:1019E00081E00895EF92FF920F931F93CF93DF93BF
:1019F000EC0122968C0102581F4FC017D10789F0C5
:101A000083E0E82EF12C41E0B701CE010E943D0CAD
:101A10008FEFE81AF80A87E0E816F104A1F721969B
:101A2000ECCFDF91CF911F910F91FF90EF90089530
:101A3000AF92BF92CF92DF92EF92FF920F931F93DC
:101A4000CF93DF93EC0170E060E00E94250810E086
:101A500000E041E0B801CE010E943D0C0F5F1F4F36
:101A600000341105B1F77E018FE7E80EF11C10E09C
:101A700000E041E0B801C7010E943D0C0F5F1F4F1D
:101A800000341105B1F721968DE7A82EB12C850100
:101A900015950795CC24C394D12CCE15DF0571F094
:101AA00041E0B601CE010E943D0C17FF05C081E068
:101AB000C81AD1080A0D1B1D2196EFCFDF91CF91D7
:101AC0001F910F91FF90EF90DF90CF90BF90AF905C
:101AD0000895089590E080E008950C94641A1F9290
:101AE0000F920FB60F9211242F933F938F939F93D2
:101AF000AF93BF938091AD019091AE01A091AF01E2
:101B0000B091B0013091AC0123E0230F2D3758F58F
:101B10000196A11DB11D2093AC018093AD0190935E
:101B2000AE01A093AF01B093B0018091B10190914B
:101B3000B201A091B301B091B4010196A11DB11DF4
:101B40008093B1019093B201A093B301B093B4011B
:101B5000BF91AF919F918F913F912F910F900FBEA9
:101B60000F901F90189526E8230F0296A11DB11D16
:101B7000D2CF1F920F920FB60F9211248F939F9383
:101B80008091E1009091E100937F9093E10083FFC9
:101B90000FC01092E90091E09093EB001092EC00DE
:101BA00092E39093ED001092C20198E09093F000C0
:101BB00082FF22C093E09093E9009091F200992374
:101BC00019F09AE39093E80090919701992341F0DE
:101BD00090919701915090939701911101C05D9A56
:101BE0009091C101992341F09091C101915090933E
:101BF000C101911101C0289A84FF18C08091E200B0
:101C00008E7E81608093E2008091E1008F7E8093E0
:101C1000E100809198018E7E8061809398019F9170
:101C20008F910F900FBE0F901F90189580FFF7CFE8
:101C30008091E2008E7E80618093E2008091E100DD
:101C40008E7E8093E100809198018E7E8160E5CF49
:101C50001F920F920FB60F921124CF92DF92EF9244
:101C6000FF920F931F932F933F934F935F936F9325
:101C70007F938F939F93AF93BF93EF93FF93CF93F4
:101C8000DF93CDB7DEB76C97DEBFCDBF1092E90012
:101C90008091E80083FF25C068E0CE0145960E9450
:101CA000CB0A82EF8093E8008D8987FF39C090913D
:101CB000E80090FFFCCF982F907609F034C19E8900
:101CC0004F89588D2F89F88C911131C0803861F57A
:101CD000809199018093F1001092F1008EEF809332
:101CE000E8006C960FB6F894DEBF0FBECDBFDF9153
:101CF000CF91FF91EF91BF91AF919F918F917F9184
:101D00006F915F914F913F912F911F910F91FF9094
:101D1000EF90DF90CF900F900FBE0F901F9018950F
:101D20009EEF9093E800C7CF1092F100D5CF91308D
:101D300059F48111D3CF4130510581F68091990139
:101D40008D7F80939901CACF933049F48111C6CF1A
:101D50004130510519F6809199018260F2CF95309A
:101D600041F48091E80080FFFCCF20682093E300DD
:101D7000B5CF963009F0A9C00B8D1C8D22E01092D2
:101D8000E9001092950110929401F2122EC0109267
:101D90009301109292010E949A0A1F8299E09983FE
:101DA000FA8291E09E8390EA98879AEF9987209132
:101DB000940130919501275F3F4F3C832B838D83A6
:101DC0001092E900109295011092940110939301E2
:101DD0000093920149E050E0BE016F5F7F4F80E0C9
:101DE0000E94740A0E949A0A79CF1093930100937B
:101DF00092010E94DA09DC0112960D911C910115E5
:101E0000110509F451C1D801ED91FC910480F581CF
:101E1000E02DBE016B5E7F4FC8010995009709F068
:101E20003EC1F80100851185EACFF3E0FF120EC034
:101E30008F89882309F440C0823061F440E860E172
:101E40008EE399E00E945A10811148CF81E280937D
:101E5000EB0047CF813029F440E86BE082E399E062
:101E6000F1CF833099F70E94DA09DC011296ED90E8
:101E7000FC908E010F5F1F4F6801E114F10479F0AF
:101E8000D701ED91FC910680F781E02DB801C701E3
:101E90000995080F111DF701E084F184EECFD801F8
:101EA0001C92F60101900020E9F73197BF016C19EF
:101EB0007D0940E0C601C6CF6CE179E0FB014491A9
:101EC00050E080E80E94740A09CF973009F4BECF31
:101ED000983021F481E08093F10000CF993009F02F
:101EE000FDCE837009F0B2CFECE2F1E081E031E0A9
:101EF00096E32191222371F08093E9003093EB0067
:101F0000DF0111972C912093EC009093ED008F5FEF
:101F1000873079F78EE78093EA001092EA008F8984
:101F20008093C201DBCE8B8D9C8D1092E9001092C4
:101F30009501109294019093930180939201898D61
:101F4000811192C08E899D89913A49F4813209F0BC
:101F50007DCF47E050E064E071E080E0B3CF9132A4
:101F600009F074CF833269F48F89988DB0E0A0E0D6
:101F70008093000190930101A0930201B0930301AB
:101F8000ADCE803269F48091E80082FFFCCF67E03B
:101F900084E091E00E94CB0A8BEF8093E8009ECE14
:101FA000823209F09BCE8F8980930B01EEEFFFE721
:101FB000859194918B3F9C4D51F1E0E0F8E0809148
:101FC000040190910501A0910601B0910701803BA9
:101FD0009440A105B105F1F480910B0180FD1AC078
:101FE000EE3F8AE0F80789F587E797E791838083DA
:101FF000809160008093960188E19BE00FB6F89491
:10200000A895809360000FBE9093600067CEEEEFBE
:10201000FAE0D5CF808191818737974709F05ECE6E
:10202000A8958091600088618093600080919601FE
:1020300080936000EE3F2AE0F20789F08091FE0A6B
:102040009091FF0A9183808349CE80819181873767
:10205000980751F29093FF0A8093FE0AC5CF109221
:10206000FF0A1092FE0A3ACE0E94DA09DC011296AB
:102070000D911C910115110509F4E8CED801ED91DF
:10208000FC910190F081E02DBE016B5E7F4FC80195
:102090000995811123CEF80100851185EBCF181623
:1020A00019060CF41BCED2CEF1E0FF12BECE60E2D8
:1020B00079E004CFEF92FF920F931F93CF93DF93BA
:1020C000F82E192FE62E042F81E0860F880F0E942C
:1020D000460A83E00E94460ACF2DD12FEC0EFD2E3A
:1020E000F11CCE15DF05B9F007FF13C0FE01849186
:1020F0000E94460A182F80E00E94460A81232196FA
:102100008111EFCFDF91CF911F910F91FF90EF9051
:1021100008958881EDCF81E0F5CFCF93DF93E3EC95
:10212000F5E01382128288EE93E0A0E0B0E08483B1
:102130009583A683B78384E791E0918380838FEFB3
:102140009FEF95878487E7E1F6E01382128286E8A5
:1021500091E0918380830E940C1AC3E1D6E028E5C8
:1021600030E040E050E00E947A1A6C5E7F4F8F4F63
:102170009F4F798368830E940C1A28E130E040E089
:1021800050E00E947A1A6C5E7F4F8F4F9F4F7B8387
:102190006A83DF91CF910895CF93DF93CDB7DEB7F8
:1021A0002C970FB6F894DEBF0FBECDBF789484B5E0
:1021B000826084BD84B5816084BD85B5826085BD43
:1021C00085B5816085BD80916E00816080936E00D1
:1021D00010928100809181008260809381008091C3
:1021E0008100816080938100809180008160809374
:1021F0008000809191008260809391008091910095
:102200008160809391008091900081608093900024
:102210008091C10084608093C1008091C100826080
:102220008093C1008091C10081608093C100809142
:10223000C30081608093C3008091C000826080935E
:10224000C0008091C20081608093C20080917A00BA
:10225000846080937A0080917A00826080937A0013
:1022600080917A00816080937A0080917A00806802
:1022700080937A001092C2011092990110929801F5
:102280008091D70081608093D70080EA8093D80046
:1022900089B5806189BD89B5826089BD09B400FEB8
:1022A000FDCF61E070E080E090E00E94130A809131
:1022B000D8008F7C80618093D8008091E000807F7F
:1022C0008093E0008091E1008E7E8093E1008DE0BC
:1022D0008093E200559A209AEFE4F9E0E49190911E
:1022E0007B008E2F880F880F80729F7D892B8093B3
:1022F0007B00E770E064E0937C0080917A0080646A
:1023000080937A0080917A0086FDFCCF60917800FE
:1023100070917900072E000C880B990B61157105DF
:102320008105910511F00E945B1A8FEF9FEF90934A
:10233000D0058093CF0581EC80937C0085B1806FC0
:1023400085B984B1877E84B984B1876E84B95E9A79
:102350005F988AB1806D8AB9769A6E9881B3806FE2
:1023600081BB899880B38D7080BB80E58CBD81E096
:102370008DBD85E090E00E940D0C5F9A85E090E0B5
:102380000E940D0C5E985C98EBE0FAE084918EBDA3
:1023900000000DB407FEFDCF31962AE0E831F207C8
:1023A000A9F75C9A81E88093640080916500816060
:1023B000809365000E943A0C80E80E942F0C8823CD
:1023C000A9F05C9885EA8EBD00000DB407FEFDCF34
:1023D0005C9A2E982F982D9880916400806280934B
:1023E000640081E083BF889513BEFCCF84E00E9427
:1023F0002F0C882309F448C02D9884E80E942F0CE4
:102400008823E1F00E940B0C88EC90E00E940D0CF8
:102410002F9882E090E00E94641A8F3F29F06FEFBE
:1024200082E090E00E946C1A84EF91E00E940D0C13
:102430002F9A84E80E942F0C8111FBCF84E10E9427
:102440002F0C8823E1F00E940B0C88EC90E00E9496
:102450000D0C2E9882E090E00E94641A882329F0E7
:1024600060E082E090E00E946C1A84EF91E00E94AC
:102470000D0C2E9A84E10E942F0C8111FBCF88EC69
:1024800090E00E940D0CB2CF0E940B0C82E090E015
:102490000E946D0D882309F460C03E9A3F9A81E046
:1024A00090E00E946D0D182F147081FF10C0111163
:1024B0002E9841EF5FEF5A83498380E40E942F0CEE
:1024C000882309F44DC02E9A2F9A0E940B0C82E3A8
:1024D00090E00E940D0C0E94120C8111F8CF80E157
:1024E00080930C01BEE12B2E312C8091AA0190919A
:1024F000AB01009709F099C00E94120C8C70C1F0DA
:1025000083E090E090930E0180930D0141E050E054
:1025100050931E0140931D0180E890E090932001AC
:1025200080931F0182E090E09093AB018093AA0119
:102530000E941A0C00E420E848E15AE070E060E0F4
:1025400090E080E00E9446070E943A0C80E090E014
:10255000892B59F20E940000C8CF3E983F989FCF28
:10256000112331F089819A81049711F42E9A2F98C2
:1025700081E00E94160800E128E54BE559E06981F9
:102580007A8184E190E00E9446070E943A0C8FE035
:1025900090E00E940D0CA981BA811196BA83A9839B
:1025A000599709F08ACF112311F02F9A2D9880E9BD
:1025B00091E00E940D0C0E940B0C81E090E00E94C3
:1025C0006D0D80FF84CF8AE090E00E946D0D9FEF3B
:1025D000980F9E3F08F07BCF22E330E030939D01BF
:1025E00020939C0128E330E030939B0120939A01D3
:1025F000EBE0F0E0FA83E983682F87E196E00E9440
:102600005B0C89819A810E946D0D29813A812F5F2F
:102610003F4F3A8329832131310571F70E943A0CEB
:1026200088EE93E00E940D0C52CF8130910509F0A5
:10263000C6C50E94BE0C882309F488CF0E941A0CDC
:1026400080E40E942F0C182F80E20E942F0C8B83B5
:1026500080E10E942F0C898380E80E942F0C20913A
:10266000A4013091A501121613060CF4C4C2A12FC7
:10267000EB81AE1BBB0BBD012981281B330B3A83B9
:102680002983AB2B19F4232B09F496C280910F01F7
:102690009091100101979093100180930F011816EB
:1026A00019069CF080919E0190919F0101968430C3
:1026B00091050CF07CC290939F0180939E0188E06D
:1026C00090E09093100180930F0129813A812F5F50
:1026D0003F4FC901880F991F280F391FCB01019661
:1026E000280F391FF901EE0FFF1FE25AFE4F8081BC
:1026F00091819093A1018093A001072E000C880B7B
:10270000990B0E949E1B9B01AC0160911501709179
:10271000160180911701909118010E94DE1A6093B2
:102720001501709316018093170190931801498148
:102730005A81BA01550F880B990B0E949E1B9B0171
:10274000AC0160911101709112018091130190917F
:1027500014010E94DE1A609311017093120180939C
:102760001301909314018091A2019091A301181676
:1027700019060CF43AC20E94120C8C7051F08FE0D2
:1027800090E09093A5018093A4013092A301209240
:10279000A2018091A6019091A701181619062CF4A8
:1027A00001979093A7018093A601C0901501D09046
:1027B0001601E0901701F090180120E030E040E1B0
:1027C00051E4C701B6010E94611B87FF1BC280E074
:1027D00090E0A0E1B1E48093150190931601A093DD
:1027E0001701B0931801C0901101D0901201E09030
:1027F0001301F090140120E030E040E251E4C70101
:10280000B6010E94611B87FF0DC280E090E0A0E24C
:10281000B1E48093110190931201A0931301B0933E
:1028200014018091190190911A019A83898381E0A2
:1028300090E0A981BA811A161B0614F090E080E09E
:10284000880F991FFC01E65CFE4F40815181609129
:102850001506709116060CE02BE0809113069091FE
:1028600014060E944607E981FA811E161F060CF421
:1028700088C08090110190901201A0901301B09037
:102880001401009115061091160620E030E040E09A
:1028900051E4C501B4010E94DE1A0E94661B0617AE
:1028A00017070CF06EC0C0901501D0901601E09093
:1028B0001701F090180120911306309114063A8305
:1028C000298320E030E040E151E4C701B6010E94D5
:1028D000DE1A0E94661B49815A81461757070CF081
:1028E00050C0045F1F4F20E030E040E051E4C501DC
:1028F000B4010E94DD1A0E94661B601771070CF07C
:1029000040C089819A810B969A83898320E030E0C8
:1029100040E151E4C701B6010E94DD1A0E94661B26
:10292000A981BA816A177B0764F582E090E09093F1
:10293000AB018093AA0180E890E0909320018093FE
:102940001F010E940C1A28E530E040E050E00E9490
:102950007A1A6C5E7F4F8F4F9F4F7093140660936F
:1029600013060E940C1A28E130E040E050E00E947B
:102970007A1A6C5E7F4F8F4F9F4F7093160660934D
:10298000150690E080E00E94F20CE091A001F09129
:10299000A101EE0FFF1FEA5AFE4F20813181211560
:1029A000310509F457C140919E01F9010491319616
:1029B00014912E5F3F4F3A832983402E512C44239C
:1029C000F9F081E090E0212F277011F490E080E091
:1029D000212F269526952695820F911D849D900185
:1029E000859D300D949D300D1124429FC001439F61
:1029F000900D112449815A81480F591F5A834983E8
:102A000020E030E040E151E4609115017091160141
:102A100080911701909118010E94DD1A0E94661B97
:102A20006B014B015201A60EB71E1A141B040CF0C9
:102A300011C1603871050CF00DC120E030E040E0BC
:102A400051E46091110170911201809113019091F4
:102A500014010E94DD1A0E94661B9B01412F50E069
:102A6000460F571F141615060CF0F4C0603471059C
:102A70000CF0F0C0A981BA81AB2B09F4EBC0B62FE2
:102A8000B7707B2EAB0177FF02C0495F5F4FCA0171
:102A900043E0959587954A95E1F7F82F37FF04C0F5
:102AA000772011F0FFEFF80F882799278C199D09DF
:102AB00097FC02C090E080E0E0E8AE16B1040CF4B0
:102AC000C1C030E83C19B32EB81A4F2F0F2E000C9E
:102AD000550BA42FA095FF3F0CF0A0E0E1E0212FC3
:102AE000277009F4E0E0169516951695E10F4E0F44
:102AF000511D4930510514F0E8E0EF1B2F2F2A0F2C
:102B000030E82303B00111246C0D7D1D680F791F7F
:102B10000A9F800D911D112449815A81840F951FB0
:102B2000072D072C000C110B4FEF50E0072C02C0B3
:102B3000440F551F0A94E2F740955095D52ECF2E9D
:102B4000CE0EC21609F486C0DB01AD53BE4F1A8209
:102B50001982E981EB1508F077C0E981FA81E80F65
:102B6000F91FE491F0E04F01002E02C0880C991C7F
:102B70000A94E2F727FD04C0FC90F422F828FC92A6
:102B8000772071F0273064F47D01F0E8EF0EF11C3E
:102B9000F7013081E32FED213E2F3929F7013083F2
:102BA000E981FA813196FA83E9831196D2CF1092A6
:102BB0009F0110929E0183CD80919E0190919F0173
:102BC000892B09F4D0CD80910F01909110010897C5
:102BD00009F4C9CD10929F0110929E0188E090E007
:102BE0009093100180930F01BECD01979093A301A4
:102BF0008093A201CECD215031093093A5012093BD
:102C0000A401C7CD20E030E04EEE52E4C701B6018A
:102C10000E948F1C18160CF0E6CD80E090E0AEEE1E
:102C2000B2E4D9CD20E030E040E652E4C701B6017D
:102C30000E948F1C18160CF0F4CD80E090E0A0E606
:102C4000B2E4E7CDB02E40CF2F5F840D951D6058C4
:102C50007F4F77CF90E080E00E94180DD12CC12CDF
:102C60001A82198280911B0190911C0129813A815D
:102C7000281739070CF0A6C14091A8015091A9016D
:102C80005C834B834C0D5D1D5C874B87DA01189686
:102C9000EC90189712966D917C9113978D919C9161
:102CA00011971A962C911A97222309F484C1409007
:102CB00011015090120160901301709014018090E6
:102CC000150190901601A0901701B090180116966A
:102CD000ED91FC91EE0FFF1FEE5CFE4F40815181A4
:102CE00001E12AE00E945C08EB85FC8584819581E6
:102CF00001979583848397FF46C080911D01909131
:102D00001E019101281B390BC9012A30310514F429
:102D10008AE090E0AB85BC8515969C938E931497C2
:102D200016968D919C9117970196843091050CF021
:102D3000C1C017969C938E931697C501B4010E944B
:102D4000661BAB85BC858D919C9111978617970763
:102D50000CF0B5C0029611969C938E93E1E0F0E0E2
:102D60001996FC93EE931897C301B2010E94661B5B
:102D7000EB85FC8582819381861797070CF0AEC0A6
:102D8000029693838283EB85FC8520813181A901A2
:102D9000455051095E834D83828193817C0158E0C7
:102DA000E51AF108D9011596B887AF83FC0138966A
:102DB000FA87E9878091A4019091A5011816190658
:102DC0000CF098C08091A0019091A101F6E0F89FCD
:102DD0008001F99F100D1124025C1E4FD80112963C
:102DE0006D917C91072E000C880B990B0E949E1B05
:102DF000A30192010E94DE1A2B013C0120E030E089
:102E000040EC50E40E94DE1A0E94661BE616F706AC
:102E10000CF046C0F80160817181072E000C880B10
:102E2000990B0E949E1BA50194010E94DE1A4B0182
:102E30005C0120E030E040EC50E40E94DE1A0E9489
:102E4000661B2D813E812617370754F520E030E0C0
:102E500040EC50E4C301B2010E94DD1A0E94661BDF
:102E600049855A8564177507DCF420E030E040ECB2
:102E700050E4C501B4010E94DD1A0E94661BAF81B7
:102E8000B8856A177B0764F4EB85FC851286809110
:102E9000190190911A01019790931A0180931901D9
:102EA00029813A812F5F3F4F3A8329833BE0C30E4C
:102EB000D11CD8CEEB85FC85178216823ECF6817D1
:102EC00079070CF051CF0297AB85BC8511969C9386
:102ED0008E9319961C921E92189746CF6817790701
:102EE0000CF051CF0297AB85BC8513969C938E93C3
:102EF000129749CF8091A6019091A7011816190643
:102F00007CF220E030E040E050E4C301B2010E94D6
:102F1000DE1A0E94661BE616F70614F620E030E083
:102F200040E050E4C501B4010E94DE1A0E94661B15
:102F30002D813E81261737070CF0B2CF20E030E01C
:102F400040E050E4C301B2010E94DD1A0E94661BFA
:102F500049855A85641775070CF0A2CF20E030E050
:102F600040E050E4C501B4010E94DD1A0E94661BD6
:102F7000AF81B8856A177B070CF092CF80910D0165
:102F800090910E01019790930E0180930D01309264
:102F9000A7012092A601181619060CF481CFEB8127
:102FA000FC81309719F0CF010E94361D1092AB01C1
:102FB0001092AA0175CF01E12AE048E15EE00E948B
:102FC0005C086ECF8091A4019091A5011816190696
:102FD0000CF050C08091A0019091A101809011014E
:102FE00090901201A0901301B0901401C0901501AF
:102FF000D0901601E0901701F09018019C012D7FF0
:103000002130310509F06EC026E0289FA001299FDC
:10301000500D1124425C5E4F5A834983DA011296A7
:103020006D917C91072E000C880B990B0E949E1BC2
:10303000A50194010E94DE1A0E94661B4B01E981E2
:10304000FA8160817181072E000C880B990B0E9418
:103050009E1BA70196010E94DE1A0E94661BCB01EF
:10306000E981FA81E48005E02AE04EE751E0B4010D
:103070000E945C081A82198210E000E040E0B8016A
:1030800089819A810E943D0C0F5F1F4F0930110505
:10309000A9F729813A812F5F3F4F3A8329832B314A
:1030A000310551F71A821982F12CE12CC0900D01E3
:1030B000D0900E01EC14FD040CF063C009E029E08F
:1030C00042E651E070E060E089819A810E94460703
:1030D0003FEFE31AF30A49815A81475F5F4F5A83F2
:1030E0004983E4CF0097D9F420E030E040E251E496
:1030F000C501B4010E94DE1A0E94661B4B0120E04C
:1031000030E0A901C701B6010E94DE1A0E94661BC9
:10311000CB01E12C0AE025E044E751E0A8CF26E00E
:10312000289FA001299F500D1124425C5E4F5A83B5
:103130004983DA0112966D917C91072E000C880B61
:10314000990B0E949E1BA50194010E94DE1A0E9409
:10315000661B4B01E981FA8160817181072E000CA9
:10316000880B990B0E949E1BA70196010E94DE1AF4
:103170000E94661BCB01E12C0AE025E048E851E003
:1031800076CF82E190E09A83898392E0E92EF12C58
:10319000EC14FD040CF4D8C909E029E040E551E045
:1031A00070E060E089819A810E94460791E0E91A07
:1031B000F108A981BA811997BA83A983E9CF029747
:1031C00009F0C4C90E94BE0C882309F4BFC90E943B
:1031D0001A0CE0911F01F0912001FA83E983CF01DD
:1031E0000E94180D89819A810E94F20C09811A812E
:1031F00000581109C8010E94180DC8010E94F20C64
:1032000029813A81121613063CF42150310930937A
:10321000200120931F0198C941E050E05093AB0179
:103220004093AA018091A8019091A901009711F003
:103230000E94361D80911D0190911E01BC016F5F9F
:103240007F4F70931E0160931D0177FF02C06D5F79
:103250007F4F7595679575956795072E000C880BC0
:10326000990B0E949E1B2DEC3CEC4CEC5DE30E9404
:10327000DE1A0E944A1B0E94661B663071050CF024
:1032800062C070931C0160931B0190911B0180919F
:103290001C019093190180931A01092F182F8FEFA9
:1032A0009FEF033A5BE0150748F42BE0209FC00135
:1032B000219F900D1124009709F44CC00E949A1C84
:1032C0007C018983FA820150110917FD46C00E94D2
:1032D0000C1A28E530E040E050E00E947A1A6C5E5B
:1032E0007F4F8F4F9F4FA981BA816D937C930E942E
:1032F0000C1A28E130E040E050E00E947A1A6C5E3F
:103300007F4F8F4F9F4FE981FA81738362831782CA
:1033100016821186108621E022870E940C1A28E26C
:1033200030E040E050E00E947A1A665F7F4F8F4F96
:103330009F4FA981BA8115967C936E9314971B9623
:10334000BA83A983C0CF85E090E090931C0180935D
:103350001B019BCF81E090E0B1CFE092A801F092F9
:10336000A901ECE3F0E0F093A701E093A60110922D
:10337000A5011092A4013092A3012092A201E4C8F9
:103380008F929F92AF92BF92CF92DF92EF92FF9275
:10339000CF93DF93EC01688179818A819B816115EC
:1033A00071058105910521F464E279ED8BE597E0E3
:1033B0002DE133EF41E050E00E947A1A49015A01B1
:1033C0009B01AC01A7EAB1E40E94991A6B017C0150
:1033D000ACEEB4EFA50194010E94A71AC60ED71E49
:1033E000E81EF91EF7FE06C081E0C81AD108E10800
:1033F00080E8F80AC882D982EA82FB82C701B60156
:103400009F77DF91CF91FF90EF90DF90CF90BF90AB
:10341000AF909F908F9008958F929F92AF92BF929E
:10342000CF92DF92EF92FF92609121017091220181
:103430008091230190912401611571058105910509
:1034400021F464E279ED8BE597E02DE133EF41E083
:1034500050E00E947A1A49015A019B01AC01A7EA87
:10346000B1E40E94991A6B017C01ACEEB4EFA501A6
:1034700094010E94A71AC60ED71EE81EF91EF7FE79
:1034800006C081E0C81AD108E10880E8F80AC092B5
:103490002101D0922201E0922301F0922401C70180
:1034A000B6019F77FF90EF90DF90CF90BF90AF90E5
:1034B0009F908F90089560932101709322018093D3
:1034C0002301909324010895F999FECF92BD81BD07
:1034D000F89A992780B50895262FF999FECF1FBA3B
:1034E00092BD81BD20BD0FB6F894FA9AF99A0FBE2D
:1034F00001960895052E97FB1EF400940E94911AE0
:1035000057FD07D00E94AC1A07FC03D04EF40C9470
:10351000911A50954095309521953F4F4F4F5F4FF1
:10352000089590958095709561957F4F8F4F9F4F2F
:1035300008950E94CE1AA59F900DB49F900DA49F50
:10354000800D911D11240895B7FF0C94991A0E94C3
:10355000991A821B930B0895A1E21A2EAA1BBB1B7A
:10356000FD010DC0AA1FBB1FEE1FFF1FA217B3074F
:10357000E407F50720F0A21BB30BE40BF50B661F65
:10358000771F881F991F1A9469F760957095809529
:1035900090959B01AC01BD01CF010895A29FB001A0
:1035A000B39FC001A39F700D811D1124911DB29F77
:1035B000700D811D1124911D08955058BB27AA2715
:1035C0000E94F51A0C943D1C0E942F1C38F00E949A
:1035D000361C20F039F49F3F19F426F40C942C1C6F
:1035E0000EF4E095E7FB0C94FD1BE92F0E944E1CA6
:1035F00058F3BA17620773078407950720F079F428
:10360000A6F50C94881C0EF4E0950B2EBA2FA02D75
:103610000B01B90190010C01CA01A0011124FF277F
:10362000591B99F0593F50F4503E68F11A16F0407A
:10363000A22F232F342F4427585FF3CF4695379579
:103640002795A795F0405395C9F77EF41F16BA0B3E
:10365000620B730B840BBAF09150A1F0FF0FBB1FEC
:10366000661F771F881FC2F70EC0BA0F621F731F35
:10367000841F48F4879577956795B795F7959E3F92
:1036800008F0B0CF9395880F08F09927EE0F979523
:10369000879508950E94701C90F09F3748F491110F
:1036A00016F40C94891C60E070E080E89FE30895B4
:1036B00026F01B16611D711D811D0C94031C0C94BA
:1036C0001E1C0E94D91B08F481E008950E946D1B06
:1036D0006894B1110C94891C08950E94561C88F0BE
:1036E0009F5798F0B92F9927B751B0F0E1F0660FC6
:1036F000771F881F991F1AF0BA95C9F714C0B13007
:1037000091F00E94881CB1E008950C94881C672FEA
:10371000782F8827B85F39F0B93FCCF38695779535
:103720006795B395D9F73EF490958095709561951E
:103730007F4F8F4F9F4F0895E89409C097FB3EF449
:1037400090958095709561957F4F8F4F9F4F9923EE
:10375000A9F0F92F96E9BB279395F695879577956C
:103760006795B795F111F8CFFAF4BB0F11F460FF2C
:103770001BC06F5F7F4F8F4F9F4F16C0882311F084
:1037800096E911C0772321F09EE8872F762F05C098
:10379000662371F096E8862F70E060E02AF09A9533
:1037A000660F771F881FDAF7880F9695879597F928
:1037B0000895990F0008550FAA0BE0E8FEEF1616C2
:1037C0001706E807F907C0F012161306E407F50715
:1037D00098F0621B730B840B950B39F40A2661F089
:1037E000232B242B252B21F408950A2609F4A1402C
:1037F000A6958FEF811D811D089597F99F6780E839
:1038000070E060E00895882371F4772321F09850E8
:10381000872B762F07C0662311F499270DC090518E
:10382000862B70E060E02AF09A95660F771F881F5C
:10383000DAF7880F9695879597F908959F3F31F0AD
:10384000915020F4879577956795B795880F911DCE
:103850009695879597F908959FEF80EC0895002439
:103860000A941616170618060906089500240A94E5
:1038700012161306140605060895092E0394000C6B
:1038800011F4882352F0BB0F40F4BF2B11F460FFFA
:1038900004C06F5F7F4F8F4F9F4F089557FD905823
:1038A000440F551F59F05F3F71F04795880F97FB04
:1038B000991F61F09F3F79F08795089512161306BE
:1038C0001406551FF2CF4695F1DF08C016161706ED
:1038D0001806991FF1CF8695710561050894089522
:1038E0000E94561CA0F0BEE7B91788F4BB279F388A
:1038F00060F41616B11D672F782F8827985FF7CFD1
:10390000869577956795B11D93959639C8F3089577
:10391000E894BB2766277727CB0197F908950E9483
:10392000D91B08F48FEF0895EE0FFF1F0590F49157
:10393000E02D09940F931F93CF93DF93823091056D
:1039400010F482E090E0E0911D06F0911E0630E058
:1039500020E0B0E0A0E0309799F42115310509F49A
:103960004AC0281B390B24303105D8F58A819B8148
:103970006115710589F1FB0193838283FE0111C0FA
:10398000408151810281138148175907E0F048179F
:10399000590799F4109761F012960C9312971396A9
:1039A0001C933296CF01DF91CF911F910F91089513
:1039B00000931D0610931E06F4CF2115310551F01A
:1039C0004217530738F0A901DB019A01BD01DF015D
:1039D000F801C1CFEF01F9CF90931E0680931D0629
:1039E000CDCFFE01E20FF31F819391932250310955
:1039F00039832883D7CF20911B0630911C06232BB7
:103A000041F4209127013091280130931C06209326
:103A10001B0620912501309126012115310541F425
:103A20002DB73EB74091290150912A01241B350B37
:103A3000E0911B06F0911C06E217F307A0F42E1B81
:103A40003F0B2817390778F0AC014E5F5F4F241702
:103A5000350748F04E0F5F1F50931C0640931B061E
:103A6000819391939FCFF0E0E0E09CCFCF93DF93E1
:103A70000097E9F0FC01329713821282A0911D0693
:103A8000B0911E06ED0130E020E01097A1F42081F6
:103A90003181820F931F20911B0630911C0628173D
:103AA000390709F061C0F0931C06E0931B06DF9113
:103AB000CF910895EA01CE17DF07E8F54A815B81CF
:103AC0009E0141155105B1F7E901FB83EA83499154
:103AD0005991C40FD51FEC17FD0761F480819181C6
:103AE0000296840F951FE9019983888382819381CF
:103AF0009B838A83F0E0E0E012968D919C9113976E
:103B00000097B9F52D913C911197CD010296820F46
:103B1000931F20911B0630911C062817390739F690
:103B2000309751F510921E0610921D06B0931C0698
:103B3000A0931B06BCCFD383C28340815181840FE5
:103B4000951FC817D90761F44E5F5F4F888199812F
:103B5000480F591F518340838A819B8193838283BD
:103B60002115310509F0B0CFF0931E06E0931D0634
:103B70009ECFFD01DC01C0CF13821282D7CFF89413
:023B8000FFCF75
:103B8200FFFFFFFF00E1000000000000100200083C
:103B9200000000004200008042010001000100809C
:103BA200000100000000001F06800000C1808100AB
:103BB20000000601E800CA00AC003A01240100003E
:103BC2000A000000F7FF010001000000F6FF0000FC
:103BD2000900010000004803B6022402920102001B
:103BE20002000200010000000300000000000000CB
:103BF200000000008A0B050BAB0BA00BF10BAF0B07
:0E3C0200CD0B000000005B0CD80A6A0D690DA6
:00000001FF
