:100000000C94DC030C9404040C9404040C94040479
:100010000C9404040C9404040C9404040C94040440
:100020000C9404040C9404040C941F080C948E0883
:100030000C9404040C9404040C9404040C94040420
:100040000C9404040C9404040C9404040C94040410
:100050000C9404040C9404040C9404040C94D5072C
:100060000C9404040C9404040C9404040C940404F0
:100070000C9404040C9404040C9404040C940404E0
:100080000C9404040C9404040C9404040C940404D0
:100090000C9404040C9404040C9404040C940404C0
:1000A0000C9404040C9404040C940404000080C018
:1000B00000E0100804040810E000C0800000000008
:1000C0001824420102020101020281822418000068
:1000D000000080C000E0100804040810E000C080A8
:1000E0000000000018248281020201010202014284
:1000F000241800000000406000F008048282040818
:10010000F000604000000000003E8180010100001E
:10011000010180813E000000000080C0006050C8E6
:1001200044848890E000C080000000001824424110
:100130004202FEFE0282818224180000000080C07C
:10014000006050C844848890E000C0800000000037
:10015000182482818202FEFE0242414224180000DD
:100160000000406000B0286422424448F000604033
:1001700000000000003E81808101FFFF018180813D
:100180003E00000000000000003E5B4F5B3E3E6B07
:100190004F6B3E1C3E7C3E1C183C7E3C181C577D21
:1001A000571C1C5E7F5E1C00183C1800FFE7C3E76D
:1001B000FF0018241800FFE7DBE7FF30483A060E7F
:1001C0002629792926407F050507407F05253F5AC6
:1001D0003CE73C5A7F3E1C1C08081C1C3E7F142236
:1001E0007F22145F5F005F5F06097F017F006689E1
:1001F000956A606060606094A2FFA29408047E0427
:100200000810207E201008082A1C08081C2A08084C
:100210001E101010100C1E0C1E0C30383E3830060C
:100220000E3E0E06000000000000005F0000000708
:10023000000700147F147F14242A7F2A1223130836
:10024000646236495620500008070300001C224112
:10025000000041221C002A1C7F1C2A08083E0808B6
:100260000080703000080808080800006060002066
:10027000100804023E5149453E00427F4000724949
:100280004949462141494D331814127F10274545ED
:1002900045393C4A49493141211109073649494903
:1002A00036464949291E0000140000004034000071
:1002B00000081422411414141414004122140802DA
:1002C000015909063E415D594E7C1211127C7F494D
:1002D0004949363E414141227F4141413E7F4949A2
:1002E00049417F090909013E414151737F080808CE
:1002F0007F00417F41002040413F017F081422419F
:100300007F404040407F021C027F7F0408107F3EF8
:100310004141413E7F090909063E4151215E7F0965
:10032000192946264949493203017F01033F4040CC
:10033000403F1F2040201F3F4038403F63140814B7
:100340006303047804036159494D43007F414141EF
:100350000204081020004141417F040201020440D0
:1003600040404040000307080020545478407F2854
:100370004444383844444428384444287F3854544A
:10038000541800087E090218A4A49C787F0804046D
:100390007800447D40002040403D007F102844000C
:1003A00000417F40007C047804787C08040478389D
:1003B00044444438FC1824241818242418FC7C08CD
:1003C000040408485454542404043F44243C40404A
:1003D000207C1C2040201C3C4030403C44281028FD
:1003E000444C9090907C4464544C44000836410046
:1003F0000000770000004136080002010204023CC0
:100400002623263C1EA1A161123A4040207A38548E
:100410005455592155557941215454784121555409
:10042000784020545579400C1E527212395555555A
:1004300059395454545939555454580000457C4145
:100440000002457D420001457C40F0292429F0F05E
:10045000282528F07C545545002054547C547C0AAF
:10046000097F4932494949323248484832324A487C
:1004700048303A4141217A3A42402078009DA0A07C
:100480007D39444444393D4040403D3C24FF2424D0
:10049000487E4943662B2FFC2F2BFF0929F620C0ED
:1004A000887E090320545479410000447D4130483E
:1004B000484A32384040227A007A0A0A727D0D1981
:1004C000317D2629292F28262929292630484D40E3
:1004D00020380808080808080808382F10C8ACBADF
:1004E0002F102834FA00007B000008142A1422225E
:1004F000142A14089500220095AA005500AAAA55AE
:10050000AA55AA000000FF00101010FF00141414D8
:10051000FF001010FF00FF1010F010F0141414FC76
:10052000001414F700FF0000FF00FF1414F404FC93
:10053000141417101F10101F101F1414141F001074
:100540001010F0000000001F101010101F101010ED
:1005500010F010000000FF101010101010101010FC
:10056000FF10000000FF140000FF00FF00001F103C
:10057000170000FC04F414141710171414F404F4F6
:100580000000FF00F714141414141414F700F714E7
:100590001414171410101F101F141414F414101036
:1005A000F010F000001F101F0000001F14000000DA
:1005B000FC140000F010F01010FF10FF141414FFD2
:1005C000141010101F00000000F010FFFFFFFFFFCD
:1005D000F0F0F0F0F0FFFFFF0000000000FFFF0F61
:1005E0000F0F0F0F38444438447C2A2A3E147E02F1
:1005F000020606027E027E02635549416338444486
:100600003C04407E201E2006027E020299A5E7A53A
:10061000991C2A492A1C4C7201724C304A4D4D30AB
:100620003048784830BC625A463D3E494949007ED0
:100630000101017E2A2A2A2A2A44445F4444405167
:100640004A444040444A51400000FF0103E080FF1B
:10065000000008086B6B083612362436060F090FA7
:1006600006000018180000001010003040FF0101C3
:10067000001F01011E00191D1712003C3C3C3C00EC
:1006800000000000080B0002020200000904000044
:1006900001020200000524001001052401010104EB
:1006A0002402060524060001070581031000400905
:1006B000040100020A0000000705020240000007D2
:1006C0000583024000000403090412010002EF0246
:1006D000014041233680000101020301417264752B
:1006E000696E6F204C4C430041726475696E6F20D7
:1006F0004C656F6E6172646F00F0F89C8E87838723
:100700008E9CF8F00000FEFF0303030303070EFCBA
:10071000F80000FEFF0303030303070EFCF80000CC
:10072000FFFF00000000000000FFFF0000FEFF834D
:1007300083838383C7EE7C380000F8FC0E07030335
:1007400003070EFCF800003F7FE0C08080C0E07F20
:100750003FFFFF01010101010101FFFF0000FFFF59
:100760000C0C0C0C1C3E77E3C100007FFFC0C0C026
:10077000C0C0E0703F1F00001F3F70E0C0C0C0E07D
:10078000703F1F00007FFFC1C1C1C1C1E3773E1CA4
:1007900000001F3F70E0C0C0C0E0703F1F000000BD
:1007A000000001FFFF01000000D5F08D14A1C881F9
:1007B000CFD9F1AF2000F30A11241FBECFEFDAE04A
:1007C000DEBFCDBF11E0A0E0B1E0E2E3FFE102C097
:1007D00005900D92AE35B107D9F725E0AEE5B1E051
:1007E00001C01D92A93DB207E1F713E0CCEDD3E0C3
:1007F00004C02197FE010E94910FCB3DD107C9F79C
:100800000E94100B0C94970F0C940000E5E8F1E0A7
:10081000A0E0B8E000800EBC8111012C1197A0FD72
:10082000FDCF0192B9F70DB408954F925F926F9288
:100830007F928F929F92AF92BF92CF92DF92EF9270
:10084000FF920F931F93CF93DF9330E0F901E80FEE
:10085000F91F1E161F060CF08EC0803891050CF093
:100860008AC0FB013F96EF34F10508F084C0DB013C
:1008700077FF04C0AA27BB27A61BB70BA770BB270F
:10088000FB0177FD3796C3E0F595E795CA95E1F74B
:1008900077FF07C0319768E070E0EB01CA1BDB0B04
:1008A000DE01BF018A01AF015695542F44275795A9
:1008B0004795480F591F4B575E4F4B01D2E08D0EA5
:1008C000911CE8E0F0E03F016A1A7B0A6E3FEFEF0F
:1008D0007E0709F443C07C01D0E0C0E05A01E0E8A3
:1008E000AE0EB11CF7FC2EC06F3F760709F454C062
:1008F000F801EC0FFD1FE4916A01CC0EDD1EF0E063
:100900002F010A2E01C0440C0A94EAF7F601508028
:10091000452840821097B1F06730710599F0F801D1
:10092000EC0FFD1FE4916501CC0EDD1EF0E02F0100
:10093000062C02C0559447940A94E2F7F6015080C1
:10094000452840822196FFEFEF1AFF0AC217D3070E
:100950002CF4F0E8EF16F10409F0C4CF6F5F7F4F7D
:10096000020F131F40585F4F8616970621F068301C
:10097000710509F0ABCFDF91CF911F910F91FF90DF
:10098000EF90DF90CF90BF90AF909F908F907F902F
:100990006F905F904F900895109709F0C0CFD2CF1D
:1009A000FC0180918401882311F13FB7F89482E023
:1009B0008093E9002091F200822F90E0181619062A
:1009C00014F481E090E0882339F0289844E64093BD
:1009D00083014091F1004083222339F02091F200FD
:1009E000211103C02BE62093E8003FBF08958FEF4D
:1009F0009FEF08952FB7F89483E08093E9009091DA
:100A0000E800892F807295FF04C09091F20080E485
:100A1000891B2FBF089580917B0181110DC082E059
:100A20008093770184E08093780110927A0110928C
:100A3000790181E080937B0187E791E008953FB7DA
:100A4000F8948091730190917401A0917501B09117
:100A5000760126B5A89B05C02F3F19F00196A11D70
:100A6000B11D3FBFBA2FA92F982F8827BC01CD01F8
:100A7000620F711D811D911D42E0660F771F881F57
:100A8000991F4A95D1F708958F929F92AF92BF9286
:100A9000CF92DF92EF92FF926B017C010E941F05C3
:100AA0004B015C01C114D104E104F104B9F00E94CE
:100AB0001F05681979098A099B09683E73408105F9
:100AC000910580F321E0C21AD108E108F10888EE0F
:100AD000880E83E0981EA11CB11CE4CFFF90EF901C
:100AE000DF90CF90BF90AF909F908F9008954091EE
:100AF00060015091610120915E0130915F014217C8
:100B00005307B4F49091E8009570E1F39091E800F8
:100B100092FD19C08093F100809160019091610174
:100B200001968F739927892B19F48EEF8093E80033
:100B30008091600190916101019690936101809391
:100B4000600181E0089580E00895DF92EF92FF92C6
:100B50000F931F93CF93DF93D82E8A01EB017B0174
:100B6000E40EF51ECE15DF0559F0D7FE12C0FE01CA
:100B700084910E94770521968111F4CF0FEF1FEF2A
:100B8000C801DF91CF911F910F91FF90EF90DF90FF
:100B900008958881EECF0F931F93CF93DF931F9219
:100BA000CDB7DEB782E0898342E450E064E876E0C6
:100BB00080E80E94A5050E940B05DC0112960D91AC
:100BC0001C910115110589F0D801ED91FC9102806D
:100BD000F381E02DBE016F5F7F4FC801099597FD3E
:100BE00004C0F80100851185ECCF89810F90DF9159
:100BF000CF911F910F910895615030F02091F10035
:100C0000FC0120830196F8CF289884E68093830125
:100C10000895AF92BF92CF92DF92EF92FF920F931F
:100C20001F93CF93DF936C017B018B01040F151F82
:100C3000EB015E01AE18BF08C017D10759F06991EA
:100C4000D601ED91FC910190F081E02DC60109954E
:100C5000892B79F7C501DF91CF911F910F91FF90FB
:100C6000EF90DF90CF90BF90AF9008958F929F92BA
:100C7000AF92BF92CF92DF92EF92FF920F931F93AA
:100C8000CF93DF936C017B018A0180910B01882354
:100C900009F45CC080918401882309F457C08091D5
:100CA000640180FF05C08091E00082608093E000D5
:100CB000E801B12C8AEFA82E93E0892E2AE3922E28
:100CC000209711F4BB20D9F10E94FA0481110AC0C7
:100CD000AA94AA20D9F161E070E080E090E00E943F
:100CE0004405EECF8C171D0611F00CF08C2F9FB72A
:100CF000F8948092E9002091E80025FD02C09FBF92
:100D0000DFCF282F30E0C21BD30BF701815020F03A
:100D100041914093F100FACFE20EF31EBB2021F087
:100D20009092E800B12CEBCF8091E80085FDE7CFF1
:100D30009092E800BB24B394209709F3F3CF5D9819
:100D400084E680936301101611063CF081E090E088
:100D5000F6019383828310E000E0C801DF91CF9118
:100D60001F910F91FF90EF90DF90CF90BF90AF90C9
:100D70009F908F900895CF93DF931F92CDB7DEB7EA
:100D80006983DC01ED91FC910280F381E02D41E06B
:100D900050E0BE016F5F7F4F09950F90DF91CF91BB
:100DA000089583E08093E9008091F200882319F090
:100DB0008AE38093E80008950E94FA0490E0089581
:100DC000CF93DF931F92CDB7DEB7FC018485958565
:100DD00097FD08C02FEF3FEF358724870F90DF91F5
:100DE000CF910895CE0101960E94D004019719F485
:100DF000898190E0F3CF8FEF9FEFF0CF0F931F9398
:100E0000CF93DF931F92CDB7DEB78C01FC018485B1
:100E1000958597FF0BC0CE0101960E94D0040197E3
:100E200071F4898190E0F80195878487F8018485C1
:100E300095850F90DF91CF911F910F9108958FEFBE
:100E40009FEFF1CFFC018485958597FD0BC09FB77F
:100E5000F89482E08093E9008091F2009FBF90E0D7
:100E6000019608959FB7F89482E08093E9008091FD
:100E7000F2009FBF90E008952D9A0895BC0190E084
:100E800080E00C9444058FB18095807F669B8860DC
:100E90001C9B84600895AF92BF92CF92DF92EF9235
:100EA000FF920F931F93CF93DF936D3079F0C09132
:100EB0006801D09169016A30B1F410926701109213
:100EC00066012896D0936901C093680181E090E0A3
:100ED000DF91CF911F910F91FF90EF90DF90CF9016
:100EE000BF90AF900895409166015091670185E0F1
:100EF000689FF0011124EC57FE4F9A01C12C80E14C
:100F0000E82EA5E070E0CA1621F0CF010196749199
:100F1000FC0110E000E0B72FB170DB2E2038310566
:100F2000D0F4CE01800F911F80349105A0F461E0D0
:100F300081FD64E080FD660F82FD6295887FE89EFA
:100F4000D0011124A20FF62EAB57BE4F8C91DD209D
:100F5000A9F0862B8C9376950F5F1F4F08301105F3
:100F6000D1F6C3942F5F3F4F86E0C812CACF4A5FC5
:100F70005F4F5093670140936601A8CFF0948F2193
:100F8000E9CFCF93C82F0E944307982F9C2381E07D
:100F90009C1380E0CF91089580E00C94060408959E
:100FA00090E080E008950C94DD0D1F920F920FB633
:100FB0000F9211242F933F938F939F93AF93BF93DF
:100FC00080916F0190917001A0917101B0917201B7
:100FD00030916E0123E0230F2D3758F50196A11DA6
:100FE000B11D20936E0180936F0190937001A093C7
:100FF0007101B09372018091730190917401A0917D
:101000007501B09176010196A11DB11D8093730108
:1010100090937401A0937501B0937601BF91AF9145
:101020009F918F913F912F910F900FBE0F901F9026
:10103000189526E8230F0296A11DB11DD2CF1F924D
:101040000F920FB60F9211248F939F938091E1001E
:101050009091E100937F9093E10083FF0FC0109285
:10106000E90091E09093EB001092EC0092E39093F2
:10107000ED001092840198E09093F00082FF22C06E
:1010800093E09093E9009091F200992319F09AE38C
:101090009093E80090916301992341F0909163014E
:1010A000915090936301911101C05D9A90918301D9
:1010B000992341F090918301915090938301911174
:1010C00001C0289A84FF18C08091E2008E7E816062
:1010D0008093E2008091E1008F7E8093E100809117
:1010E00064018E7E8061809364019F918F910F9047
:1010F0000FBE0F901F90189580FFF7CF8091E200F0
:101100008E7E80618093E2008091E1008E7E8093EC
:10111000E100809164018E7E8160E5CF1F920F9285
:101120000FB60F921124CF92DF92EF92FF920F939E
:101130001F932F933F934F935F936F937F938F935F
:101140009F93AF93BF93EF93FF93CF93DF93CDB76D
:10115000DEB76C97DEBFCDBF1092E9008091E8004A
:1011600083FF25C068E0CE0145960E94FC0582EF12
:101170008093E8008D8987FF39C09091E80090FF47
:10118000FCCF982F907609F034C19E894F89588DF5
:101190002F89F88C911131C0803861F580916501FB
:1011A0008093F1001092F1008EEF8093E8006C962E
:1011B0000FB6F894DEBF0FBECDBFDF91CF91FF9188
:1011C000EF91BF91AF919F918F917F916F915F91BF
:1011D0004F913F912F911F910F91FF90EF90DF90D2
:1011E000CF900F900FBE0F901F9018959EEF909389
:1011F000E800C7CF1092F100D5CF913059F481119A
:10120000D3CF4130510581F6809165018D7F809368
:101210006501CACF933049F48111C6CF41305105E1
:1012200019F6809165018260F2CF953041F480918A
:10123000E80080FFFCCF20682093E300B5CF963014
:1012400009F0A9C00B8D1C8D22E01092E9001092CC
:10125000610110926001F2122EC010925F01109293
:101260005E010E94CB051F8299E09983FA8291E08A
:101270009E8390EA98879AEF998720916001309138
:101280006101275F3F4F3C832B838D831092E900E0
:10129000109261011092600110935F0100935E0152
:1012A00049E050E0BE016F5F7F4F80E00E94A505DE
:1012B0000E94CB0579CF10935F0100935E010E94DD
:1012C0000B05DC0112960D911C910115110509F415
:1012D00051C1D801ED91FC910480F581E02DBE0152
:1012E0006B5E7F4FC8010995009709F03EC1F80178
:1012F00000851185EACFF3E0FF120EC08F898823A5
:1013000009F440C0823061F440E860E188EE96E084
:101310000E94C00A811148CF81E28093EB0047CF41
:10132000813029F440E86BE08CED96E0F1CF83301A
:1013300099F70E940B05DC011296ED90FC908E014E
:101340000F5F1F4F6801E114F10479F0D701ED91AF
:10135000FC910680F781E02DB801C7010995080FBF
:10136000111DF701E084F184EECFD8011C92F60143
:1013700001900020E9F73197BF016C197D0940E029
:10138000C601C6CF66EC76E0FB01449150E080E8F0
:101390000E94A50509CF973009F4BECF983021F4FB
:1013A00081E08093F10000CF993009F0FDCE837089
:1013B00009F0B2CFE7E1F1E081E031E096E321917D
:1013C000222371F08093E9003093EB00DF01119745
:1013D0002C912093EC009093ED008F5F873079F78C
:1013E0008EE78093EA001092EA008F89809384014F
:1013F000DBCE8B8D9C8D1092E900109261011092D2
:10140000600190935F0180935E01898D811192C08C
:101410008E899D89913A49F4813209F07DCF47E068
:1014200050E064E071E080E0B3CF913209F074CF16
:10143000833269F48F89988DB0E0A0E08093000139
:1014400090930101A0930201B0930301ADCE8032CD
:1014500069F48091E80082FFFCCF67E084E091E0CE
:101460000E94FC058BEF8093E8009ECE823209F04B
:101470009BCE8F8980930B01EEEFFFE785919491CE
:101480008B3F9C4D51F1E0E0F8E080910401909198
:101490000501A0910601B0910701803B9440A10590
:1014A000B105F1F480910B0180FD1AC0EE3F8AE096
:1014B000F80789F587E797E791838083809160003B
:1014C0008093620188E19BE00FB6F894A895809321
:1014D00060000FBE9093600067CEEEEFFAE0D5CFCC
:1014E000808191818737974709F05ECEA8958091DA
:1014F0006000886180936000809162018093600049
:10150000EE3F2AE0F20789F08091FE0A9091FF0AEF
:101510009183808349CE808191818737980751F2EA
:101520009093FF0A8093FE0AC5CF1092FF0A109293
:10153000FE0A3ACE0E940B05DC0112960D911C9119
:101540000115110509F4E8CED801ED91FC91019047
:10155000F081E02DBE016B5E7F4FC80109958111BE
:1015600023CEF80100851185EBCF181619060CF46F
:101570001BCED2CEF1E0FF12BECE6AEC76E004CFF5
:10158000EF92FF920F931F93CF93DF93F82E192FB3
:10159000E62E042F81E0860F880F0E94770583E0F6
:1015A0000E947705CF2DD12FEC0EFD2EF11CCE150C
:1015B000DF05B9F007FF13C0FE0184910E94770593
:1015C000182F80E00E947705812321968111EFCFAB
:1015D000DF91CF911F910F91FF90EF900895888137
:1015E000EDCF81E0F5CFE5E8F5E01382128288EED9
:1015F00093E0A0E0B0E084839583A683B78383E47F
:1016000091E0918380838FEF9FEF95878487E5ED4D
:10161000F5E01382128285E591E09183808308953D
:10162000789484B5826084BD84B5816084BD85B5BD
:10163000826085BD85B5816085BD80916E008160C9
:1016400080936E001092810080918100826080936F
:101650008100809181008160809381008091800071
:1016600081608093800080919100826080939100DE
:1016700080919100816080939100809190008160C1
:10168000809390008091C10084608093C10080911C
:10169000C10082608093C1008091C100816080930D
:1016A000C1008091C30081608093C3008091C0001D
:1016B00082608093C0008091C20081608093C200EC
:1016C00080917A00846080937A0080917A008260B1
:1016D00080937A0080917A00816080937A00809173
:1016E0007A00806880937A001092840110926501DC
:1016F000109264018091D70081608093D70080EAC6
:101700008093D80089B5806189BD89B5826089BD23
:1017100009B400FEFDCF61E070E080E090E00E943F
:1017200044058091D8008F7C80618093D80080919F
:10173000E000807F8093E0008091E1008E7E8093C6
:10174000E1008DE08093E200559A209A81EC80932D
:101750007C0085B1806F85B984B1877E84B984B1FE
:10176000876E84B95E9A5F988AB1806D8AB9769ADD
:101770006E9881B3806F81BB899880B38D7080BB78
:1017800080E58CBD81E08DBD85E090E00E943E0744
:101790005F9A85E090E00E943E075E985C98E9EAD7
:1017A000F7E086EB97E024912EBD00000DB407FE14
:1017B000FDCF31968E179F07B1F75C9A81E8809331
:1017C0006400809165008160809365000E94CC0771
:1017D00080E80E94C1078823A9F05C9885EA8EBD45
:1017E00000000DB407FEFDCF5C9A2E982F982D981F
:1017F0008091640080628093640081E083BF88955B
:1018000013BEFCCF84E00E94C107882309F448C0BE
:101810002D9884E80E94C1078823E1F00E943C07CC
:1018200088EC90E00E943E072F9882E090E00E94B2
:10183000DD0D8F3F29F06FEF82E090E00E94E50D13
:1018400084EF91E00E943E072F9A84E80E94C1072E
:101850008111FBCF84E10E94C1078823E1F00E943F
:101860003C0788EC90E00E943E072E9882E090E0D2
:101870000E94DD0D882329F060E082E090E00E9464
:10188000E50D84EF91E00E943E072E9A84E10E94CC
:10189000C1078111FBCF88EC90E00E943E07B2CFD8
:1018A0000E943C0782E090E00E94D307882309F45D
:1018B00012C13E9A3F9A81E090E00E94D307182F10
:1018C000147081FF0EC011112E98C1EFDFEF80E47C
:1018D0000E94C107882309F401C12E9A2F9A0E9401
:1018E0003C0782E390E00E943E070E94430781117B
:1018F000F8CF8FEF9FEF9093920580939105D12CB5
:1019000005E811E040E0E42E40E0F42ECCE3D0E026
:101910008D2DF80181118FEF0024819381938193A4
:1019200081930394D1F7109269011092680110928B
:1019300067011092660180E40E94C107882E80E250
:101940000E94C107881A990880E10E94C107A82E49
:1019500080E80E94C107A81ABB0880916A01909193
:101960006B018114910421F4A114B10409F412C192
:1019700020910C0130910D012150310930930D015E
:1019800020930C01121613066CF001968430910519
:101990000CF0FBC090936B0180936A01D0930D0112
:1019A000C0930C01C5010196FC01EE0FFF1FE80F6B
:1019B000F91FC4010196E80FF91FEE0FFF1FE35D49
:1019C000FE4F8081918190936D0180936C01B401F1
:1019D000990C880B990B0E94980E2DEC3CEC4CEC6A
:1019E0005DE30E94240F9B01AC0160911201709194
:1019F000130180911401909115010E94F40D6093E0
:101A00001201709313018093140190931501B50195
:101A1000BB0C880B990B0E94980E2DEC3CEC4CEC07
:101A20005DE30E94240F9B01AC0160910E01709157
:101A30000F0180911001909111010E94F40D6093AB
:101A40000E0170930F018093100190931101E091AA
:101A50006C01F0916D01EE0FFF1FEE0FFF1F8091E3
:101A60006A0190916B01E80FF91FEE0FFF1FE35E13
:101A7000FE4FA080B18020E030E040E051E4609172
:101A80000E0170910F0180911001909111010E943F
:101A9000F30D0E94600E2B0120E030E040E151E4A4
:101AA00060911201709113018091140190911501C0
:101AB0000E94F30D0E94600ECB0122E1A501B2014C
:101AC0000E9415040E94CC07E114F10409F420CF10
:101AD0000E9400001DCF3E983F98EDCE112329F0C3
:101AE000C430D10511F42E9A2F9881E00E9406048B
:101AF00028E549EF56E0BE0184E190E00E9415041C
:101B00000E94CC078FE090E00E943E072196C931E9
:101B1000D10509F0DCCE112311F02F9A2D9880E920
:101B200091E00E943E070E943C0781E090E00E9405
:101B3000D30780FFD6CE8AE090E00E94D3079FEFC4
:101B4000980F9E3F08F0CDCE22E330E0309367013E
:101B50002093660128E330E0309369012093680107
:101B6000CBE0D0E0682F85ED95E00E944B07CE01D9
:101B70000E94D3072196C131D105A1F70E94CC075D
:101B800088EE93E00E943E07ACCE10926B0110925B
:101B90006A0104CF892B09F45ACF80910C019091EE
:101BA0000D01CC9709F453CF10926B0110926A018A
:101BB000D0930D01C0930C014ACFF999FECF92BD8D
:101BC00081BDF89A992780B50895262FF999FECFFF
:101BD0001FBA92BD81BD20BD0FB6F894FA9AF99A4A
:101BE0000FBE019608955058BB27AA270E940B0EDE
:101BF0000C94EA0E0E94DC0E38F00E94E30E20F0F6
:101C000039F49F3F19F426F40C94D90E0EF4E095A4
:101C1000E7FB0C94D30EE92F0E94FB0E58F3BA1782
:101C2000620773078407950720F079F4A6F50C94F2
:101C30001D0F0EF4E0950B2EBA2FA02D0B01B9014C
:101C400090010C01CA01A0011124FF27591B99F032
:101C5000593F50F4503E68F11A16F040A22F232F3E
:101C6000342F4427585FF3CF469537952795A7958E
:101C7000F0405395C9F77EF41F16BA0B620B730B35
:101C8000840BBAF09150A1F0FF0FBB1F661F771FA6
:101C9000881FC2F70EC0BA0F621F731F841F48F45B
:101CA000879577956795B795F7959E3F08F0B0CFE4
:101CB0009395880F08F09927EE0F979587950895CB
:101CC0000E94670E6894B1110C941E0F08950E9433
:101CD000030F88F09F5798F0B92F9927B751B0F0AC
:101CE000E1F0660F771F881F991F1AF0BA95C9F7A0
:101CF00014C0B13091F00E941D0FB1E008950C9412
:101D00001D0F672F782F8827B85F39F0B93FCCF3C4
:101D1000869577956795B395D9F73EF4909580951C
:101D2000709561957F4F8F4F9F4F0895E89409C03C
:101D300097FB3EF490958095709561957F4F8F4FFE
:101D40009F4F9923A9F0F92F96E9BB279395F69514
:101D5000879577956795B795F111F8CFFAF4BB0F92
:101D600011F460FF1BC06F5F7F4F8F4F9F4F16C0F6
:101D7000882311F096E911C0772321F09EE8872F80
:101D8000762F05C0662371F096E8862F70E060E03C
:101D90002AF09A95660F771F881FDAF7880F9695B5
:101DA000879597F9089597F99F6780E870E060E05C
:101DB00008959FEF80EC089500240A9416161706E4
:101DC00018060906089500240A941216130614062C
:101DD00005060895092E0394000C11F4882352F08F
:101DE000BB0F40F4BF2B11F460FF04C06F5F7F4F47
:101DF0008F4F9F4F089557FD9058440F551F59F02E
:101E00005F3F71F04795880F97FB991F61F09F3FE7
:101E100079F087950895121613061406551FF2CF10
:101E20004695F1DF08C0161617061806991FF1CF60
:101E300086957105610508940895E894BB27662787
:101E40007727CB0197F908950E94370F0C94EA0E7B
:101E50000E94DC0E38F00E94E30E20F0952311F072
:101E60000C94D30E0C94D90E11240C941E0F0E94C6
:101E7000FB0E70F3959FC1F3950F50E0551F629FC5
:101E8000F001729FBB27F00DB11D639FAA27F00DD3
:101E9000B11DAA1F649F6627B00DA11D661F829FFA
:101EA0002227B00DA11D621F739FB00DA11D621FDF
:101EB000839FA00D611D221F749F3327A00D611DFC
:101EC000231F849F600D211D822F762F6A2F1124DE
:101ED0009F5750409AF0F1F088234AF0EE0FFF1F11
:101EE000BB1F661F771F881F91505040A9F79E3F68
:101EF000510580F00C94D30E0C941E0F5F3FE4F359
:101F0000983ED4F3869577956795B795F795E795BD
:101F10009F5FC1F7FE2B880F911D9695879597F9C6
:101F20000895EE0FFF1F0590F491E02D0994F894A9
:021F3000FFCFE1
:101F3200FFFFFFFF00E10000000000003C00000086
:101F420000420000804200C1808100000060013C2C
:101F52000160011801F400D000F400AC000100019E
:101F6200000100010001000100000000000000006B
:101F7200000000BB063606DC06D1062207E006FE9C
:0E1F820006000000004B070906D007CF07003D
:00000001FF
