:100000000C9498040C94C0040C94C0040C94C00488
:100010000C94C0040C94C0040C94C0040C94C00450
:100020000C94C0040C94C0040C9491080C94000926
:100030000C94C0040C94C0040C94C0040C94C00430
:100040000C94C0040C94C0040C94C0040C94C00420
:100050000C94C0040C94C0040C94C0040C94320B97
:100060000C94C0040C94C0040C94C0040C94C00400
:100070000C94C0040C94C0040C94C0040C94C004F0
:100080000C94C0040C94C0040C94C0040C94C004E0
:100090000C94C0040C94C0040C94C0040C94C004D0
:1000A0000C94C0040C94C0040C94C0040000000024
:1000B00000F0684422226428D00000000000000004
:1000C000000C1201000020213D41021C0000000034
:1000D0000000000000F0684422226428D0000000E4
:1000E00000000000000C1201004040011D21021C14
:1000F000000000000000000000F834221191B294CA
:10010000680000000000000000001F0000404000E8
:100110003E40011E00000000000080C000E010080A
:1001200004040810E000C080000000001824420110
:10013000020201010202818224180000000080C036
:1001400000E0100804040810E000C0800000000077
:1001500018248281020201010202014224180000D7
:100160000000406000F0080482820408F000604053
:1001700000000000003E818001010000010180813B
:100180003E0000000000000000B0484442424468C5
:10019000F00000000000000000001C02413D212092
:1001A000000001120C0000000000000000B04844F4
:1001B00042424468F00000000000000000001C0201
:1001C000211D0140400001120C0000000000000051
:1001D0000058A4A2A1212234F80000000000000071
:1001E00000001E01403E00404000001F00000000D3
:1001F000000080C0006050C844848890E000C08047
:1002000000000000182442414202FEFE0282818268
:1002100024180000000080C0006050C8448488900A
:10022000E000C08000000000182482818202FEFEEF
:1002300002424142241800000000406000B02864DF
:1002400022424448F000604000000000003E8180EF
:100250008101FFFF018180813E000000000000005D
:10026000003E5B4F5B3E3E6B4F6B3E1C3E7C3E1C3C
:10027000183C7E3C181C577D571C1C5E7F5E1C0082
:10028000183C1800FFE7C3E7FF0018241800FFE739
:10029000DBE7FF30483A060E2629792926407F05FC
:1002A0000507407F05253F5A3CE73C5A7F3E1C1C12
:1002B00008081C1C3E7F14227F22145F5F005F5FD2
:1002C00006097F017F006689956A606060606094BE
:1002D000A2FFA29408047E040810207E20100808C3
:1002E0002A1C08081C2A08081E101010100C1E0CCE
:1002F0001E0C30383E3830060E3E0E060000000060
:100300000000005F00000007000700147F147F1446
:10031000242A7F2A1223130864623649562050008B
:1003200008070300001C2241000041221C002A1C77
:100330007F1C2A08083E0808008070300008080862
:100340000808000060600020100804023E51494582
:100350003E00427F400072494949462141494D33A0
:100360001814127F1027454545393C4A4949314107
:10037000211109073649494936464949291E0000D5
:10038000140000004034000000081422411414142A
:100390001414004122140802015909063E415D5916
:1003A0004E7C1211127C7F494949363E414141221F
:1003B0007F4141413E7F494949417F090909013E49
:1003C000414151737F0808087F00417F4100204070
:1003D000413F017F081422417F404040407F021C82
:1003E000027F7F0408107F3E4141413E7F09090999
:1003F000063E4151215E7F09192946264949493265
:1004000003017F01033F4040403F1F2040201F3F2A
:100410004038403F631408146303047804036159AF
:10042000494D43007F4141410204081020004141F1
:10043000417F04020102044040404040000307089D
:100440000020545478407F28444438384444442899
:10045000384444287F385454541800087E09021840
:10046000A4A49C787F0804047800447D40002040C8
:10047000403D007F1028440000417F40007C04780C
:1004800004787C080404783844444438FC18242454
:100490001818242418FC7C080404084854545424D4
:1004A00004043F44243C4040207C1C2040201C3C51
:1004B0004030403C44281028444C9090907C446448
:1004C000544C4400083641000000770000004136DB
:1004D000080002010204023C2623263C1EA1A16161
:1004E000123A4040207A3854545559215555794193
:1004F0002154547841215554784020545579400C6A
:100500001E5272123955555559395454545939554A
:100510005454580000457C410002457D420001458D
:100520007C40F0292429F0F0282528F07C545545FA
:10053000002054547C547C0A097F4932494949328D
:100540003248484832324A4848303A4141217A3AA2
:1005500042402078009DA0A07D39444444393D406C
:1005600040403D3C24FF2424487E4943662B2FFC19
:100570002F2BFF0929F620C0887E090320545479C7
:10058000410000447D413048484A32384040227A98
:10059000007A0A0A727D0D19317D2629292F282615
:1005A0002929292630484D4020380808080808081D
:1005B0000808382F10C8ACBA2F102834FA00007B76
:1005C000000008142A142222142A1408950022007C
:1005D00095AA005500AAAA55AA55AA000000FF0036
:1005E000101010FF00141414FF001010FF00FF1073
:1005F00010F010F0141414FC001414F700FF0000A5
:10060000FF00FF1414F404FC141417101F10101F23
:10061000101F1414141F00101010F0000000001F11
:10062000101010101F10101010F010000000FF101C
:100630001010101010101010FF10000000FF140018
:1006400000FF00FF00001F10170000FC04F414144A
:100650001710171414F404F40000FF00F714141416
:1006600014141414F700F7141414171410101F1096
:100670001F141414F4141010F010F000001F101FB9
:100680000000001F14000000FC140000F010F01027
:1006900010FF10FF141414FF141010101F0000009E
:1006A00000F010FFFFFFFFFFF0F0F0F0F0FFFFFFA2
:1006B0000000000000FFFF0F0F0F0F0F38444438F9
:1006C000447C2A2A3E147E02020606027E027E0234
:1006D00063554941633844443C04407E201E200653
:1006E000027E020299A5E7A5991C2A492A1C4C7290
:1006F00001724C304A4D4D303048784830BC625A17
:10070000463D3E494949007E0101017E2A2A2A2AA6
:100710002A44445F444440514A444040444A514082
:100720000000FF0103E080FF000008086B6B083643
:1007300012362436060F090F0600001818000000B4
:100740001010003040FF0101001F01011E00191DA3
:100750001712003C3C3C3C0000000000F0F89C8E6E
:100760008783878E9CF8F00000FEFF0303030303DA
:10077000070EFCF80000FEFF0303030303070EFC53
:10078000F80000FFFF00000000000000FFFF000075
:10079000FEFF8383838383C7EE7C380000F8FC0E62
:1007A00007030303070EFCF800003F7FE0C08080D2
:1007B000C0E07F3FFFFF01010101010101FFFF00D8
:1007C00000FFFF0C0C0C0C1C3E77E3C100007FFF08
:1007D000C0C0C0C0C0E0703F1F00001F3F70E0C03D
:1007E000C0C0E0703F1F00007FFFC1C1C1C1C1E3B5
:1007F000773E1C00001F3F70E0C0C0C0E0703F1F8C
:10080000000000000001FFFF01000000D5F08D1482
:10081000A1C881CFD9F1AF200000FCFAF6EEDE3E90
:10082000BEBE3E1E0E0602FC00003F5F4F47434027
:10083000414140444850603F00000000000000007B
:1008400000000000000100000000000000000000A7
:100850000000000000000000000000010000000097
:100860000000000000000000000000000000000088
:100870000000000100000000000000000000000077
:100880000000000000000000000000000001000067
:100890000000000000000000000000000000000058
:1008A0000000000000000000000000000000000048
:1008B000000000010000000000080B00020202001E
:1008C00000090400000102020000052400100105D7
:1008D0002401010104240206052406000107058104
:1008E0000310004009040100020A0000000705028D
:1008F00002400000070583024000000403090412BF
:10090000010002EF02014041233680000101020391
:100910000141726475696E6F204C4C4300417264F2
:1009200075696E6F204C656F6E6172646F00AF0BFE
:1009300011241FBECFEFDAE0DEBFCDBF11E0A0E093
:10094000B1E0ECE9F0E202C005900D92AE36B107DD
:10095000D9F725E0AEE6B1E001C01D92AF3EB20787
:10096000E1F714E0C8E9D4E004C02197FE010E9439
:100970004610C739D107C9F70E94CC0B0C944C1014
:100980000C9400004F925F926F927F928F929F9291
:10099000AF92BF92CF92DF92EF92FF920F931F938D
:1009A000CF93DF9330E0F901E80FF91F1E161F0601
:1009B0000CF08EC0803891050CF08AC0FB013F9688
:1009C000EF34F10508F084C0DB0177FF04C0AA27EB
:1009D000BB27A61BB70BA770BB27FB0177FD37967C
:1009E000C3E0F595E795CA95E1F777FF07C0319722
:1009F00068E070E0EB01CA1BDB0BDE01BF018A017E
:100A0000AF015695542F442757954795480F591FC6
:100A100045565E4F4B01D2E08D0E911CE8E0F0E0B0
:100A20003F016A1A7B0A6E3FEFEF7E0709F443C06D
:100A30007C01D0E0C0E05A01E0E8AE0EB11CF7FC4A
:100A40002EC06F3F760709F454C0F801EC0FFD1F6C
:100A5000E4916A01CC0EDD1EF0E02F010A2E01C0E8
:100A6000440C0A94EAF7F60150804528408210971A
:100A7000B1F06730710599F0F801EC0FFD1FE491BA
:100A80006501CC0EDD1EF0E02F01062C02C055944E
:100A900047940A94E2F7F601508045284082219657
:100AA000FFEFEF1AFF0AC217D3072CF4F0E8EF1696
:100AB000F10409F0C4CF6F5F7F4F020F131F40583E
:100AC0005F4F8616970621F06830710509F0ABCFAD
:100AD000DF91CF911F910F91FF90EF90DF90CF901A
:100AE000BF90AF909F908F907F906F905F904F904E
:100AF0000895109709F0C0CFD2CFEBE9F1E0A0E064
:100B0000B8E000800EBC8111012C1197A0FDFDCF33
:100B10000192B9F70DB40895FC0180919A018823E0
:100B200011F13FB7F89482E08093E9002091F20040
:100B3000822F90E01816190614F481E090E08823C3
:100B400039F0289844E6409399014091F1004083A0
:100B5000222339F02091F200211103C02BE62093CB
:100B6000E8003FBF08958FEF9FEF08952FB7F894E7
:100B700083E08093E9009091E800892F807295FFCF
:100B800004C09091F20080E4891B2FBF08958091EA
:100B9000910181110DC082E080938D0184E08093EA
:100BA0008E011092900110928F0181E0809391014B
:100BB0008DE891E00895CF93DF931F92CDB7DEB714
:100BC0006983DC01ED91FC910280F381E02D41E02D
:100BD00050E0BE016F5F7F4F09950F90DF91CF917D
:100BE000089583E08093E9008091F200882319F052
:100BF0008AE38093E80008950E94B60590E0089586
:100C0000CF93DF931F92CDB7DEB7FC018485958526
:100C100097FD08C02FEF3FEF358724870F90DF91B6
:100C2000CF910895CE0101960E948C05019719F489
:100C3000898190E0F3CF8FEF9FEFF0CF0F931F9359
:100C4000CF93DF931F92CDB7DEB78C01FC01848573
:100C5000958597FF0BC0CE0101960E948C050197E8
:100C600071F4898190E0F80195878487F801848583
:100C700095850F90DF91CF911F910F9108958FEF80
:100C80009FEFF1CFFC018485958597FD0BC09FB741
:100C9000F89482E08093E9008091F2009FBF90E099
:100CA000019608959FB7F89482E08093E9008091BF
:100CB000F2009FBF90E00895409187015091880114
:100CC000209185013091860142175307B4F4909129
:100CD000E8009570E1F39091E80092FD19C08093CF
:100CE000F100809187019091880101968F73992777
:100CF000892B19F48EEF8093E80080918701909101
:100D000088010196909388018093870181E008957E
:100D100080E00895DF92EF92FF920F931F93CF939D
:100D2000DF93D82E8A01EB017B01E40EF51ECE1570
:100D3000DF0559F0D7FE12C0FE0184910E945C06C7
:100D400021968111F4CF0FEF1FEFC801DF91CF91F2
:100D50001F910F91FF90EF90DF9008958881EECF63
:100D60000F931F93CF93DF931F92CDB7DEB782E02F
:100D7000898342E450E069EB78E080E80E948A06CB
:100D80000E94C705DC0112960D911C9101151105F9
:100D900089F0D801ED91FC910280F381E02DBE0134
:100DA0006F5F7F4FC801099597FD04C0F80100856A
:100DB0001185ECCF89810F90DF91CF911F910F9119
:100DC0000895615030F02091F100FC0120830196DC
:100DD000F8CF289884E68093990108953FB7F89456
:100DE0008091810190918201A0918301B091840151
:100DF00026B5A89B05C02F3F19F00196A11DB11D76
:100E00003FBFBA2FA92F982F8827BC01CD01620FB1
:100E1000711D811D911D42E0660F771F881F991F6C
:100E20004A95D1F708958F929F92AF92BF92CF9239
:100E3000DF92EF92FF926B017C010E94EE064B0164
:100E40005C01C114D104E104F104B9F00E94EE0682
:100E5000681979098A099B09683E734081059105E3
:100E600080F321E0C21AD108E108F10888EE880E6B
:100E700083E0981EA11CB11CE4CFFF90EF90DF909F
:100E8000CF90BF90AF909F908F9008958F929F9238
:100E9000AF92BF92CF92DF92EF92FF920F931F9388
:100EA000CF93DF936C017B018A0180911601882327
:100EB00009F45CC080919A01882309F457C080919D
:100EC0008C0180FF05C08091E00082608093E0008B
:100ED000E801B12C8AEFA82E93E0892E2AE3922E06
:100EE000209711F4BB20D9F10E94B60581110AC0E8
:100EF000AA94AA20D9F161E070E080E090E00E941D
:100F00001307EECF8C171D0611F00CF08C2F9FB736
:100F1000F8948092E9002091E80025FD02C09FBF6F
:100F2000DFCF282F30E0C21BD30BF701815020F018
:100F300041914093F100FACFE20EF31EBB2021F065
:100F40009092E800B12CEBCF8091E80085FDE7CFCF
:100F50009092E800BB24B394209709F3F3CF5D98F7
:100F600084E680938B01101611063CF081E090E03E
:100F7000F6019383828310E000E0C801DF91CF91F6
:100F80001F910F91FF90EF90DF90CF90BF90AF90A7
:100F90009F908F900895AF92BF92CF92DF92EF9281
:100FA000FF920F931F93CF93DF936C017B018B0113
:100FB000040F151FEB015E01AE18BF08C017D10763
:100FC00059F06991D601ED91FC910190F081E02DED
:100FD000C6010995892B79F7C501DF91CF911F9142
:100FE0000F91FF90EF90DF90CF90BF90AF9008955A
:100FF0002D9A0895BC0190E080E00C9413078FB106
:101000008095807F669B88601C9B84600895AF926A
:10101000BF92CF92DF92EF92FF920F931F93CF93E5
:10102000DF936D3079F0C0917401D09175016A3011
:10103000B1F410927301109272012896D093750149
:10104000C093740181E090E0DF91CF911F910F91E7
:10105000FF90EF90DF90CF90BF90AF9008954091B8
:1010600072015091730185E0689FF0011124E45AE8
:10107000FD4F9A01C12C80E1E82EA5E070E0CA1670
:1010800021F0CF0101967491FC0110E000E0B72F30
:10109000B170DB2E20383105D0F4CE01800F911FC6
:1010A00080349105A0F461E081FD64E080FD660F6D
:1010B00082FD6295887FE89ED0011124A20FF62E52
:1010C000A556BE4F8C91DD20A9F0862B8C9376958A
:1010D0000F5F1F4F08301105D1F6C3942F5F3F4FAC
:1010E00086E0C812CACF4A5F5F4F509373014093A6
:1010F0007201A8CFF0948F21E9CFCF93C82F0E941F
:10110000FF07982F9C2381E09C1380E0CF910895E6
:1011100080E00C947D05089590E080E008950C94A3
:10112000FF0E1F920F920FB60F9211248F939F9371
:101130008091E1009091E100937F9093E10083FF23
:101140000FC01092E90091E09093EB001092EC0038
:1011500092E39093ED0010929A0198E09093F00042
:1011600082FF22C093E09093E9009091F2009923CE
:1011700019F09AE39093E80090918B01992341F044
:1011800090918B01915090938B01911101C05D9AC8
:1011900090919901992341F09091990191509093E8
:1011A0009901911101C0289A84FF18C08091E20032
:1011B0008E7E81608093E2008091E1008F7E80933B
:1011C000E10080918C018E7E806180938C019F91E3
:1011D0008F910F900FBE0F901F90189580FFF7CF43
:1011E0008091E2008E7E80618093E2008091E10038
:1011F0008E7E8093E10080918C018E7E8160E5CFB0
:101200001F920F920FB60F921124CF92DF92EF929E
:10121000FF920F931F932F933F934F935F936F937F
:101220007F938F939F93AF93BF93EF93FF93CF934E
:10123000DF93CDB7DEB76C97DEBFCDBF1092E9006C
:101240008091E80083FF25C068E0CE0145960E94AA
:10125000E10682EF8093E8008D8987FF39C0909185
:10126000E80090FFFCCF982F907609F034C19E895A
:101270004F89588D2F89F88C911131C0803861F5D4
:1012800080918A018093F1001092F1008EEF80939B
:10129000E8006C960FB6F894DEBF0FBECDBFDF91AD
:1012A000CF91FF91EF91BF91AF919F918F917F91DE
:1012B0006F915F914F913F912F911F910F91FF90EF
:1012C000EF90DF90CF900F900FBE0F901F9018956A
:1012D0009EEF9093E800C7CF1092F100D5CF9130E8
:1012E00059F48111D3CF4130510581F680918A01A3
:1012F0008D7F80938A01CACF933049F48111C6CF84
:101300004130510519F680918A018260F2CF953003
:1013100041F48091E80080FFFCCF20682093E30037
:10132000B5CF963009F0A9C00B8D1C8D22E010922C
:10133000E9001092880110928701F2122EC01092DB
:101340008601109285010E94B0061F8299E0998360
:10135000FA8291E09E8390EA98879AEF998720918C
:10136000870130918801275F3F4F3C832B838D831A
:101370001092E90010928801109287011093860163
:101380000093850149E050E0BE016F5F7F4F80E030
:101390000E948A060E94B00679CF109386010093BE
:1013A00085010E94C705DC0112960D911C91011563
:1013B000110509F451C1D801ED91FC910480F5812A
:1013C000E02DBE016B5E7F4FC8010995009709F0C3
:1013D0003EC1F80100851185EACFF3E0FF120EC08F
:1013E0008F89882309F440C0823061F440E860E1CD
:1013F0008DE199E00E947C0B811148CF81E28093BE
:10140000EB0047CF813029F440E86BE081E199E0BF
:10141000F1CF833099F70E94C705DC011296ED9059
:10142000FC908E010F5F1F4F6801E114F10479F009
:10143000D701ED91FC910680F781E02DB801C7013D
:101440000995080F111DF701E084F184EECFD80152
:101450001C92F60101900020E9F73197BF016C1949
:101460007D0940E0C601C6CF6BEF78E0FB014491F7
:1014700050E080E80E948A0609CF973009F4BECF79
:10148000983021F481E08093F10000CF993009F089
:10149000FDCE837009F0B2CFEAE4F1E081E031E003
:1014A00096E32191222371F08093E9003093EB00C1
:1014B000DF0111972C912093EC009093ED008F5F4A
:1014C000873079F78EE78093EA001092EA008F89DF
:1014D00080939A01DBCE8B8D9C8D1092E900109247
:1014E0008801109287019093860180938501898DF0
:1014F000811192C08E899D89913A49F4813209F017
:101500007DCF47E050E06FE071E080E0B3CF9132F3
:1015100009F074CF833269F48F89988DB0E0A0E030
:1015200080930B0190930C01A0930D01B0930E01D9
:10153000ADCE803269F48091E80082FFFCCF67E095
:101540008FE091E00E94E1068BEF8093E8009ECE51
:10155000823209F09BCE8F8980931601EEEFFFE770
:10156000859194918B3F9C4D51F1E0E0F8E08091A2
:101570000F0190911001A0911101B0911201803BD7
:101580009440A105B105F1F48091160180FD1AC0C7
:10159000EE3F8AE0F80789F587E797E79183808334
:1015A000809160008093890188E19BE00FB6F894F8
:1015B000A895809360000FBE9093600067CEEEEF19
:1015C000FAE0D5CF808191818737974709F05ECEC9
:1015D000A895809160008861809360008091890166
:1015E00080936000EE3F2AE0F20789F08091FE0AC6
:1015F0009091FF0A9183808349CE808191818737C2
:10160000980751F29093FF0A8093FE0AC5CF10927B
:10161000FF0A1092FE0A3ACE0E94C705DC0112961C
:101620000D911C910115110509F4E8CED801ED9139
:10163000FC910190F081E02DBE016B5E7F4FC801EF
:101640000995811123CEF80100851185EBCF18167D
:1016500019060CF41BCED2CEF1E0FF12BECE6FEF16
:1016600078E004CF1F920F920FB60F9211242F93A0
:101670003F938F939F93AF93BF9380917D01909100
:101680007E01A0917F01B091800130917C0123E027
:10169000230F2D3758F50196A11DB11D20937C0114
:1016A00080937D0190937E01A0937F01B093800190
:1016B0008091810190918201A0918301B091840178
:1016C0000196A11DB11D8093810190938201A09389
:1016D0008301B0938401BF91AF919F918F913F910E
:1016E0002F910F900FBE0F901F90189526E8230F93
:1016F0000296A11DB11DD2CFEF92FF920F931F93BF
:10170000CF93DF93F82E192FE62E042F81E0860F5A
:10171000880F0E945C0683E00E945C06CF2DD12FCB
:10172000EC0EFD2EF11CCE15DF05B9F007FF13C03E
:10173000FE0184910E945C06182F80E00E945C06E6
:10174000812321968111EFCFDF91CF911F910F91CE
:10175000FF90EF9008958881EDCF81E0F5CFEBE920
:10176000F5E01382128288EE93E0A0E0B0E084837B
:101770009583A683B78384E591E0918380838FEF7F
:101780009FEF95878487EBEEF5E01382128286E661
:1017900091E0918380830895789484B5826084BDBC
:1017A00084B5816084BD85B5826085BD85B5816065
:1017B00085BD80916E00816080936E0010928100E3
:1017C000809181008260809381008091810081609E
:1017D000809381008091800081608093800080915F
:1017E000910082608093910080919100816080934C
:1017F0009100809190008160809390008091C10061
:1018000084608093C1008091C10082608093C10098
:101810008091C10081608093C1008091C30081608C
:101820008093C3008091C00082608093C00080914B
:10183000C20081608093C20080917A0084608093AE
:101840007A0080917A00826080937A0080917A0099
:10185000816080937A0080917A00806880937A001A
:1018600010929A0110928A0110928C018091D700F7
:1018700081608093D70080EA8093D80089B5806129
:1018800089BD89B5826089BD09B400FEFDCF61E0E4
:1018900070E080E090E00E9413078091D8008F7C78
:1018A00080618093D8008091E000807F8093E00089
:1018B0008091E1008E7E8093E1008DE08093E200D4
:1018C000559A209A81EC80937C0085B1806F85B910
:1018D00084B1877E84B984B1876E84B95E9A5F983B
:1018E0008AB1806D8AB9769A6E9881B3806F81BB18
:1018F000899880B38D7080BB80E58CBD81E08DBD03
:1019000085E090E00E94FA075F9A85E090E00E94EF
:10191000FA075E985C98ECE0F8E089E198E02491A1
:101920002EBD00000DB407FEFDCF31968E179F0728
:10193000B1F75C9A81E880936400809165008160D2
:10194000809365000E94880880E80E947D088823B3
:10195000A9F05C9885EA8EBD00000DB407FEFDCFAE
:101960005C9A2E982F982D988091640080628093C5
:10197000640081E083BF889513BEFCCF84E00E94A1
:101980007D08882309F448C02D9884E80E947D08CA
:101990008823E1F00E94F80788EC90E00E94FA07A3
:1019A0002F9882E090E00E94FF0E8F3F29F06FEFAA
:1019B00082E090E00E94070F84EF91E00E94FA0716
:1019C0002F9A84E80E947D088111FBCF84E10E9458
:1019D0007D088823E1F00E94F80788EC90E00E94DF
:1019E000FA072E9882E090E00E94FF0E882329F0EB
:1019F00060E082E090E00E94070F84EF91E00E9497
:101A0000FA072E9A84E10E947D088111FBCF88ECB1
:101A100090E00E94FA07B2CF0E94F80782E090E0BF
:101A20000E948F08882309F448C03E9A3F9A81E0BB
:101A300090E00E948F08182F147081FF0DC01111C3
:101A40002E98C1EFDFEF80E40E947D088823C1F16A
:101A50002E9A2F9A0E94F80782E390E00E94FA07DC
:101A60000E94FF078111F8CF80E180930001BBE95C
:101A70006B2EB1E07B2EC0E0AC2EC0E0BC2ED8E0D7
:101A8000CD2ED12C88248394912C8FB7F89440913B
:101A90007D0150917E0160917F01709180018FBF27
:101AA00080917001882309F462C010927001A11422
:101AB000B10459F30E940000E8CF3E983F98B7CF99
:101AC000112329F0C430D10511F42E9A2F9881E00A
:101AD0000E947D0528E54CE557E0BE0184E190E0D9
:101AE0000E94C2040E9488088FE090E00E94FA07DA
:101AF0002196C931D10509F0A6CF112311F02F9AF3
:101B00002D9880E991E00E94FA070E94F80781E091
:101B100090E00E948F0880FF9FCF8AE090E00E94B3
:101B20008F089FEF980F9E3F08F096CF22E330E09A
:101B3000309373012093720128E330E030937501F4
:101B400020937401CBE0D0E0682F8BEE95E00E94EB
:101B50000708CE010E948F082196C131D105A1F757
:101B60000E94880888EE93E00E94FA0775CF909152
:101B70007101242F291B922F20910001921748F404
:101B80009F5F921708F093CF81E083BF889513BEC3
:101B90008ECF91E0909370014093710120916E017E
:101BA00030916F012F5F3F4F30936F0120936E0193
:101BB000F30181118FEF00248193819381938193AD
:101BC0000394D1F710927501109274011092730171
:101BD0001092720180E40E947D08082F80E20E942A
:101BE0007D08081B110B80E10E947D08C82F80E84A
:101BF0000E947D08C81BDD0B88E00E947D088823B9
:101C000021F090927B0180927A01809176019091EF
:101C100077010115110519F4209709F4DDC0209111
:101C200001013091020121503109309302012093CA
:101C30000101121613066CF00196843091050CF028
:101C4000C6C09093770180937601D0920201C09232
:101C50000101CE010196FC01EE0FFF1FE80FF91FF5
:101C6000C8010196E80FF91FEE0FFF1FE95CFE4F58
:101C7000808191819093790180937801B801110F4F
:101C8000880B990B0E94BA0F9B01AC016091070170
:101C9000709108018091090190910A010E94160F2C
:101CA00060930701709308018093090190930A01E2
:101CB000BE01DD0F880B990B0E94BA0F9B01AC018E
:101CC00060910301709104018091050190910601DA
:101CD0000E94160F60930301709304018093050125
:101CE00090930601F12CE12C10E000E0D0E0C0E080
:101CF000E0917A01F0917B01EE0FFF1FEE0FFF1FC5
:101D0000EC0FFD1F53E0EE0FFF1F5A95E1F7E00FB8
:101D1000F11FEE0FFF1FE75CF74F80819181019764
:101D200061F420E149E158E0BE0134E0660F771F1D
:101D30003A95E1F7C7010E94C2042196C430D1054B
:101D4000B9F60F5F1F4F20E1E20EF11C08301105BC
:101D500069F6E0917801F0917901EE0FFF1FEE0F27
:101D6000FF1F8091760190917701E80FF91FEE0F28
:101D7000FF1FE95EFE4FC081D18120E030E040E0EE
:101D800051E46091030170910401809105019091EB
:101D900006010E94150F0E94820F1B0120E030E017
:101DA00040E151E4609107017091080180910901BF
:101DB00090910A010E94150F0E94820FCB0122E12F
:101DC000AE01B1010E94C2040E94880870CE109238
:101DD00077011092760139CF892B09F483CF809156
:101DE000010190910201089709F47CCF10927701CC
:101DF00010927601D0920201C092010173CFF9993D
:101E0000FECF92BD81BDF89A992780B50895262FFF
:101E1000F999FECF1FBA92BD81BD20BD0FB6F894CF
:101E2000FA9AF99A0FBE019608955058BB27AA272F
:101E30000E942D0F0C940C100E94FE0F38F00E948F
:101E4000051020F039F49F3F19F426F40C94FB0F91
:101E50000EF4E095E7FB0C94F50FE92F0E941D109E
:101E600058F3BA17620773078407950720F079F4CF
:101E7000A6F50C943F100EF4E0950B2EBA2FA02D72
:101E80000B01B90190010C01CA01A0011124FF2727
:101E9000591B99F0593F50F4503E68F11A16F04022
:101EA000A22F232F342F4427585FF3CF4695379521
:101EB0002795A795F0405395C9F77EF41F16BA0BE6
:101EC000620B730B840BBAF09150A1F0FF0FBB1F94
:101ED000661F771F881FC2F70EC0BA0F621F731FDD
:101EE000841F48F4879577956795B795F7959E3F3A
:101EF00008F0B0CF9395880F08F09927EE0F9795CB
:101F0000879508950E94890F6894B1110C94401030
:101F100008950E94251088F09F5798F0B92F9927AF
:101F2000B751B0F0E1F0660F771F881F991F1AF0C4
:101F3000BA95C9F714C0B13091F00E943F10B1E0DA
:101F400008950C943F10672F782F8827B85F39F0D9
:101F5000B93FCCF3869577956795B395D9F73EF45D
:101F600090958095709561957F4F8F4F9F4F089505
:101F7000E89409C097FB3EF4909580957095619523
:101F80007F4F8F4F9F4F9923A9F0F92F96E9BB27D9
:101F90009395F695879577956795B795F111F8CF55
:101FA000FAF4BB0F11F460FF1BC06F5F7F4F8F4FC0
:101FB0009F4F16C0882311F096E911C0772321F0B6
:101FC0009EE8872F762F05C0662371F096E8862F4E
:101FD00070E060E02AF09A95660F771F881FDAF7A5
:101FE000880F9695879597F9089597F99F6780E8E8
:101FF00070E060E008959FEF80EC089500240A945B
:102000001616170618060906089500240A941216D3
:102010001306140605060895092E0394000C11F406
:10202000882352F0BB0F40F4BF2B11F460FF04C0B3
:102030006F5F7F4F8F4F9F4F089557FD9058440F0C
:10204000551F59F05F3F71F04795880F97FB991F17
:1020500061F09F3F79F087950895121613061406D4
:10206000551FF2CF4695F1DF08C016161706180661
:10207000991FF1CF86957105610508940895E8943C
:10208000BB2766277727CB0197F90895EE0FFF1F2F
:0C2090000590F491E02D0994F894FFCF26
:10209C001008000000004200008042FFFFFFFF001C
:1020AC00E1000000000000380214023802F001CCFC
:1020BC0001A801CC01840160013C0160011801F40C
:1020CC0000D000F400AC000200020002000100018C
:1020DC0000030000000000000000C180810000002F
:1020EC0000000000DB054607FC05F1054206000672
:0E20FC001E06000000000708CB078C088B08AA
:00000001FF
