:100000000C94EC040C9414050C9414050C94140535
:100010000C9414050C9414050C9414050C941405FC
:100020000C9414050C9414050C943A0A0C94A90A27
:100030000C9414050C9414050C9414050C941405DC
:100040000C9414050C9414050C9414050C941405CC
:100050000C9414050C9414050C9414050C94F009DC
:100060000C9414050C9414050C9414050C941405AC
:100070000C9414050C9414050C9414050C9414059C
:100080000C9414050C9414050C9414050C9414058C
:100090000C9414050C9414050C9414050C9414057C
:1000A0000C9414050C9414050C941405000000988D
:1000B00074BCF4B8000000001F00F50A0A35DF0028
:1000C0000000000101000000010000009874BCF471
:1000D000B8000000000F000DEA1A1DEF000000003C
:1000E00000010000010100000000804CBA5E7ADCD3
:1000F000800000004F806A1515EA0F000000000024
:100100000000010100000000804CBA5E7ADC800033
:1001100000000F00EA1515EA0F00000000010100C1
:1001200001010000F0F0D0D050D0D0D0D090F00F2E
:100130000A0E0A0A0A0A0B0A0A0FFF15D7D51195EB
:1001400095151D15FF0F080B0B080B0B080B080F5F
:1001500012100000000000F834221191B2946800DF
:1001600000000000000000001F00004040003E4072
:10017000011E000000000000000000F06844222280
:100180006428D000000000000000000C12010040B4
:1001900040011D21021C000000000000000000F8CA
:1001A00034221191B29468000000000000000000A9
:1001B0001F00004040003E40011E00000000000003
:1001C000000000F0684422226428D00000000000F3
:1001D0000000000C1201000020213D41021C000023
:1001E000000012100000406000F008048282040841
:1001F000F000604000000000003E8180010100002E
:10020000010180813E000000000080C000E0100875
:1002100004040810E000C08000000000182482815F
:1002200002020101020201422418000000004060A5
:1002300000F0080482820408F00060400000000022
:10024000003E818001010000010180813E0000002C
:10025000000080C000E0100804040810E000C08026
:100260000000000018244201020201010202818202
:10027000241800001210000000000058A4A2A121C0
:100280002234F80000000000000000001E01403E83
:1002900000404000001F000000000000000000B00F
:1002A000484442424468F0000000000000000000A2
:1002B0001C02211D0140400001120C000000000042
:1002C00000000058A4A2A1212234F8000000000080
:1002D000000000001E01403E00404000001F0000E2
:1002E00000000000000000B0484442424468F000B2
:1002F00000000000000000001C02413D2120000021
:1003000001120C00000012100000406000B02864D0
:1003100022424448F000604000000000003E81801E
:100320008101FFFF018180813E000000000080C04C
:10033000006050C844848890E000C0800000000045
:10034000182482818202FEFE0242414224180000EB
:100350000000406000B0286422424448F000604041
:1003600000000000003E81808101FFFF018180814B
:100370003E000000000080C0006050C844848890A7
:10038000E000C08000000000182442414202FEFE4E
:10039000028281822418000000000000003E5B4FB2
:1003A0005B3E3E6B4F6B3E1C3E7C3E1C183C7E3CD5
:1003B000181C577D571C1C5E7F5E1C00183C1800E3
:1003C000FFE7C3E7FF0018241800FFE7DBE7FF3073
:1003D000483A060E2629792926407F050507407FE1
:1003E00005253F5A3CE73C5A7F3E1C1C08081C1C54
:1003F0003E7F14227F22145F5F005F5F06097F014A
:100400007F006689956A606060606094A2FFA29434
:1004100008047E040810207E201008082A1C080802
:100420001C2A08081E101010100C1E0C1E0C303850
:100430003E3830060E3E0E06000000000000005F51
:1004400000000007000700147F147F14242A7F2A6D
:10045000122313086462364956205000080703002F
:10046000001C2241000041221C002A1C7F1C2A087B
:10047000083E0808008070300008080808080000DE
:1004800060600020100804023E5149453E00427F52
:10049000400072494949462141494D331814127FA1
:1004A0001027454545393C4A494931412111090741
:1004B0003649494936464949291E000014000000C2
:1004C0004034000000081422411414141414004194
:1004D00022140802015909063E415D594E7C121151
:1004E000127C7F494949363E414141227F41414189
:1004F0003E7F494949417F090909013E4141517304
:100500007F0808087F00417F41002040413F017F74
:10051000081422417F404040407F021C027F7F043C
:1005200008107F3E4141413E7F090909063E415185
:10053000215E7F09192946264949493203017F0175
:10054000033F4040403F1F2040201F3F4038403F76
:10055000631408146303047804036159494D43008C
:100560007F4141410204081020004141417F0402C3
:10057000010204404040404000030708002054545A
:1005800078407F2844443838444444283844442838
:100590007F385454541800087E090218A4A49C788B
:1005A0007F0804047800447D40002040403D007FE7
:1005B0001028440000417F40007C047804787C08C7
:1005C0000404783844444438FC182424181824249B
:1005D00018FC7C08040408485454542404043F4480
:1005E000243C4040207C1C2040201C3C4030403CAF
:1005F00044281028444C9090907C4464544C44000F
:100600000836410000007700000041360800020172
:100610000204023C2623263C1EA1A161123A40405E
:10062000207A3854545559215555794121545478DC
:1006300041215554784020545579400C1E52721275
:1006400039555555593954545459395554545800FD
:1006500000457C410002457D420001457C40F02977
:100660002429F0F0282528F07C54554500205454C6
:100670007C547C0A097F493249494932324848480A
:1006800032324A4848303A4141217A3A4240207851
:10069000009DA0A07D39444444393D4040403D3C4C
:1006A00024FF2424487E4943662B2FFC2F2BFF096F
:1006B00029F620C0887E0903205454794100004463
:1006C0007D413048484A32384040227A007A0A0A4E
:1006D000727D0D19317D2629292F282629292926C1
:1006E00030484D4020380808080808080808382F06
:1006F00010C8ACBA2F102834FA00007B0000081490
:100700002A142222142A14089500220095AA0055C2
:1007100000AAAA55AA55AA000000FF00101010FF59
:1007200000141414FF001010FF00FF1010F010F060
:10073000141414FC001414F700FF0000FF00FF1451
:1007400014F404FC141417101F10101F101F14149D
:10075000141F00101010F0000000001F10101010E7
:100760001F10101010F010000000FF1010101010DB
:1007700010101010FF10000000FF140000FF00FF19
:1007800000001F10170000FC04F4141417101714B5
:1007900014F404F40000FF00F714141414141414D7
:1007A000F700F7141414171410101F101F1414144A
:1007B000F4141010F010F000001F101F0000001FB4
:1007C00014000000FC140000F010F01010FF10FFE7
:1007D000141414FF141010101F00000000F010FF7C
:1007E000FFFFFFFFF0F0F0F0F0FFFFFF0000000060
:1007F00000FFFF0F0F0F0F0F38444438447C2A2AA4
:100800003E147E02020606027E027E0263554941C4
:10081000633844443C04407E201E2006027E0202CF
:1008200099A5E7A5991C2A492A1C4C7201724C30E3
:100830004A4D4D303048784830BC625A463D3E49BA
:100840004949007E0101017E2A2A2A2A2A44445F5E
:10085000444440514A444040444A51400000FF0152
:1008600003E080FF000008086B6B08361236243660
:10087000060F090F060000181800000010100030C5
:1008800040FF0101001F01011E00191D1712003C4D
:100890003C3C3C0000000000080B0002020200008B
:1008A00009040000010202000005240010010524D3
:1008B0000101010424020605240600010705810345
:1008C00010004009040100020A00000007050202AE
:1008D00040000007058302400000040309041201E0
:1008E0000002EF02014041233680000101020301B2
:1008F00041726475696E6F204C4C4300417264759F
:10090000696E6F204C656F6E6172646F000706053B
:10091000040100080A0B0C0D09F0F89C8E878387F0
:100920008E9CF8F00000FEFF0303030303070EFC98
:10093000F80000FEFF0303030303070EFCF80000AA
:10094000FFFF00000000000000FFFF0000FEFF832B
:1009500083838383C7EE7C380000F8FC0E07030313
:1009600003070EFCF800003F7FE0C08080C0E07FFE
:100970003FFFFF01010101010101FFFF0000FFFF37
:100980000C0C0C0C1C3E77E3C100007FFFC0C0C004
:10099000C0C0E0703F1F00001F3F70E0C0C0C0E05B
:1009A000703F1F00007FFFC1C1C1C1C1E3773E1C82
:1009B00000001F3F70E0C0C0C0E0703F1F0000009B
:1009C000000001FFFF01000000D5F08D14A1C881D7
:1009D000CFD9F1AF20000E0D11241FBECFEFDAE00A
:1009E000DEBFCDBF11E0A0E0B1E0EEE4FFE202C067
:1009F00005900D92AA37B107D9F726E0AAE7B1E032
:100A000001C01D92A430B207E1F714E0CCEED4E0AF
:100A100004C02197FE010E947A16CB3ED107C9F788
:100A20000E944F0D0C94A5170C9400004F925F92FA
:100A30006F927F928F929F92AF92BF92CF92DF92EE
:100A4000EF92FF920F931F93CF93DF9330E0F90162
:100A5000E80FF91F1E161F060CF09BC08038910589
:100A60000CF097C0FB01E00FF11D1E161F060CF0E5
:100A700090C0603471050CF08CC0DB0177FF04C0BE
:100A8000AA27BB27A61BB70BA770BB27FB0177FDC7
:100A90003796C3E0F595E795CA95E1F777FF07C06C
:100AA000319768E070E0EB01CA1BDB0BDE01802EA2
:100AB000869486948694912C077019F0DFEF8D1A36
:100AC0009D0ABF018A01AF015695542F44275795BF
:100AD0004795480F591F49555E4F860E971EE8E00F
:100AE000F0E03F016A1A7B0A6F3FEFEF7E070CF4DC
:100AF00043C07C01D0E0C0E05A01E0E8AE0EB11C7A
:100B0000F7FC2EC06F3F760709F454C0F801EC0FD4
:100B1000FD1FE4916A01CC0EDD1EF0E02F010A2ECC
:100B200001C0440C0A94EAF7F6015080452840823F
:100B30001097B1F06730710599F0F801EC0FFD1FC7
:100B4000E4916501CC0EDD1EF0E02F01062C02C001
:100B5000559447940A94E2F7F60150804528408264
:100B60002196FFEFEF1AFF0AC217D3072CF4F0E823
:100B7000EF16F10409F0C4CF6F5F7F4F020F131F10
:100B800040585F4F8616970621F06830710509F0CE
:100B9000ABCFDF91CF911F910F91FF90EF90DF903E
:100BA000CF90BF90AF909F908F907F906F905F900D
:100BB0004F900895109709F0C0CFD2CFE7EAF1E047
:100BC000A0E0B8E000800EBC8111012C1197A0FDBF
:100BD000FDCF0192B9F70DB408959C0121583F4F04
:100BE0002F3F310580F59C0197FF02C030E020E0E7
:100BF00080589F4F8138910514F080E890E0821B67
:100C0000AB014770552791E001C0990F4A95EAF76B
:100C100077FF02C0695F7F4FFB0143E0F595E795E1
:100C20004A95E1F7F695FE2FEE27F795E795E20F47
:100C3000F31FE955FE4F815030F02191DF011197EC
:100C4000292B2C93F8CF089580E0E7EAF1E0811199
:100C50008FEF002481938193819381930394D1F743
:100C60000895FC018091A601882311F13FB7F89403
:100C700082E08093E9002091F200822F90E0181624
:100C8000190614F481E090E0882339F0289844E6AE
:100C90004093A5014091F1004083222339F0209137
:100CA000F200211103C02BE62093E8003FBF089516
:100CB0008FEF9FEF08952FB7F89483E08093E900BA
:100CC0009091E800892F807295FF04C09091F20006
:100CD00080E4891B2FBF089580919D0181110DC073
:100CE00082E08093990184E080939A0110929C01A4
:100CF00010929B0181E080939D0189E991E0089524
:100D00003FB7F8948091950190919601A091970139
:100D1000B091980126B5A89B05C02F3F19F0019608
:100D2000A11DB11D3FBFBA2FA92F982F8827BC0145
:100D3000CD01620F711D811D911D42E0660F771F6D
:100D4000881F991F4A95D1F708958F929F92AF926D
:100D5000BF92CF92DF92EF92FF926B017C010E94D3
:100D600080064B015C01C114D104E104F104B9F027
:100D70000E948006681979098A099B09683E7340B8
:100D80008105910580F321E0C21AD108E108F1083C
:100D900088EE880E83E0981EA11CB11CE4CFFF9062
:100DA000EF90DF90CF90BF90AF909F908F9008957D
:100DB000409180015091810120917E0130917F010D
:100DC00042175307B4F49091E8009570E1F39091C5
:100DD000E80092FD19C08093F1008091800190910C
:100DE000810101968F739927892B19F48EEF8093D7
:100DF000E80080918001909181010196909381019A
:100E00008093800181E0089580E00895DF92EF9261
:100E1000FF920F931F93CF93DF93D82E8A01EB019C
:100E20007B01E40EF51ECE15DF0559F0D7FE12C08A
:100E3000FE0184910E94D80621968111F4CF0FEF14
:100E40001FEFC801DF91CF911F910F91FF90EF909D
:100E5000DF9008958881EECF0F931F93CF93DF9398
:100E60001F92CDB7DEB782E0898342E450E068E9A3
:100E700078E080E80E9406070E946C06DC0112966A
:100E80000D911C910115110589F0D801ED91FC918E
:100E90000280F381E02DBE016F5F7F4FC80109958D
:100EA00097FD04C0F80100851185ECCF89810F9072
:100EB000DF91CF911F910F910895615030F02091F3
:100EC000F100FC0120830196F8CF289884E68093F6
:100ED000A5010895AF92BF92CF92DF92EF92FF9259
:100EE0000F931F93CF93DF936C017B018B01040F52
:100EF000151FEB015E01AE18BF08C017D10759F0EE
:100F00006991D601ED91FC910190F081E02DC6012F
:100F10000995892B79F7C501DF91CF911F910F9129
:100F2000FF90EF90DF90CF90BF90AF9008958F9299
:100F30009F92AF92BF92CF92DF92EF92FF920F9368
:100F40001F93CF93DF936C017B018A0180910B018A
:100F5000882309F45CC08091A601882309F457C056
:100F60008091840180FF05C08091E00082608093C1
:100F7000E000E801B12C8AEFA82E93E0892E2AE345
:100F8000922E209711F4BB20D9F10E945B068111AB
:100F90000AC0AA94AA20D9F161E070E080E090E054
:100FA0000E94A506EECF8C171D0611F00CF08C2FB9
:100FB0009FB7F8948092E9002091E80025FD02C0D7
:100FC0009FBFDFCF282F30E0C21BD30BF70181502A
:100FD00020F041914093F100FACFE20EF31EBB20C6
:100FE00021F09092E800B12CEBCF8091E80085FDD4
:100FF000E7CF9092E800BB24B394209709F3F3CF96
:101000005D9884E680938301101611063CF081E020
:1010100090E0F6019383828310E000E0C801DF9145
:10102000CF911F910F91FF90EF90DF90CF90BF90E5
:10103000AF909F908F900895CF93DF931F92CDB77D
:10104000DEB76983DC01ED91FC910280F381E02D34
:1010500041E050E0BE016F5F7F4F09950F90DF9137
:10106000CF91089583E08093E9008091F200882376
:1010700019F08AE38093E80008950E945B0690E0EF
:101080000895CF93DF931F92CDB7DEB7FC0184851F
:10109000958597FD08C02FEF3FEF358724870F9088
:1010A000DF91CF910895CE0101960E9431060197FC
:1010B00019F4898190E0F3CF8FEF9FEFF0CF0F937A
:1010C0001F93CF93DF931F92CDB7DEB78C01FC0146
:1010D0008485958597FF0BC0CE0101960E9431064D
:1010E000019771F4898190E0F80195878487F80170
:1010F000848595850F90DF91CF911F910F91089571
:101100008FEF9FEFF1CFFC018485958597FD0BC094
:101110009FB7F89482E08093E9008091F2009FBF2E
:1011200090E0019608959FB7F89482E08093E900DB
:101130008091F2009FBF90E008952D9A0895BC0120
:1011400090E080E00C94A5068FB18095807F669B2F
:1011500088601C9B8460089520E191E061FD94E02B
:1011600060FD990F62FD9295687F269FD001112442
:10117000A80FA955BE4F8C9140FF03C0892B8C93BB
:10118000089590958923FBCF8038910528F4603429
:10119000710510F40C94AC0808958F929F92AF9251
:1011A000BF92CF92DF92EF92FF920F931F93CF9354
:1011B000DF936D3089F0C0908E01D0908F016A303E
:1011C000D1F410928D0110928C0188E0C80ED11CD0
:1011D000D0928F01C0928E0181E090E0DF91CF919B
:1011E0001F910F91FF90EF90DF90CF90BF90AF9045
:1011F0009F908F90089500918C0110918D01E5E0F2
:101200006E9FE0011124C856DC4F4801F12CF5E037
:10121000E12CFF1629F0CE010196FE01E490EC01CD
:10122000B12CA12C4E2D4170B6016A0D7B1DC4015D
:101230000E94C408E694FFEFAF1ABF0A88E0A81620
:10124000B10481F7F394EFEF8E1A9E0AF6E0FF12D5
:10125000DECF0A5F1F4F10938D0100938C01BCCF2E
:10126000CF93C82F0E94A408982F9C2381E09C1341
:1012700080E0CF91089580E00C94DE058FB7F8945C
:10128000409191015091920160919301709194016C
:101290008FBF80917C01882321F010927C0180E037
:1012A000089590917D01242F291B922F20910C01EC
:1012B000921740F49F5F9217A0F491E093BF889536
:1012C00013BE089581E080937C0140937D0180915D
:1012D0007A0190917B01019690937B0180937A0132
:1012E00081E008956F927F928F929F92AF92BF920A
:1012F000CF92DF92EF92FF920F931F93CF93DF93E2
:10130000EC0170E060E00E94ED0510E000E041E0DB
:10131000B801CE010E94C4080F5F1F4F00341105B1
:10132000B1F75E018FE7A80EB11C10E000E041E0CC
:10133000B801C5010E94C4080F5F1F4F003411059A
:10134000B1F77E018FEFE81AF80A3E018EE7680ECA
:10135000711C6301CE18DF088601D7FE02C00F5F43
:101360001F4F1595079588248394912CEA14FB044C
:1013700081F041E0B401C7010E94C40817FF05C015
:1013800081E0881A91080C0D1D1D8FEFE81AF80AEC
:10139000EDCF2296C615D70571F003E010E041E0CD
:1013A000B801CE010E94C4080F5F1F4F073011051E
:1013B000B1F72196EFCFDF91CF911F910F91FF9061
:1013C000EF90DF90CF90BF90AF909F908F907F90E5
:1013D0006F900895089590E080E008950C94A21411
:1013E0001F920F920FB60F9211242F933F938F935A
:1013F0009F93AF93BF938091910190919201A0919F
:101400009301B09194013091900123E0230F2D3787
:1014100058F50196A11DB11D209390018093910173
:1014200090939201A0939301B093940180919501C0
:1014300090919601A0919701B09198010196A11DFC
:10144000B11D8093950190939601A0939701B0935D
:101450009801BF91AF919F918F913F912F910F90E4
:101460000FBE0F901F90189526E8230F0296A11D1E
:10147000B11DD2CF1F920F920FB60F9211248F93EE
:101480009F938091E1009091E100937F9093E10020
:1014900083FF0FC01092E90091E09093EB0010924F
:1014A000EC0092E39093ED001092A60198E09093E7
:1014B000F00082FF22C093E09093E9009091F20047
:1014C000992319F09AE39093E8009091830199236E
:1014D00041F090918301915090938301911101C04B
:1014E0005D9A9091A501992341F09091A5019150A9
:1014F0009093A501911101C0289A84FF18C0809192
:10150000E2008E7E81608093E2008091E1008F7E18
:101510008093E100809184018E7E806180938401BC
:101520009F918F910F900FBE0F901F90189580FF85
:10153000F7CF8091E2008E7E80618093E2008091FF
:10154000E1008E7E8093E100809184018E7E816037
:10155000E5CF1F920F920FB60F921124CF92DF9218
:10156000EF92FF920F931F932F933F934F935F93AD
:101570006F937F938F939F93AF93BF93EF93FF935B
:10158000CF93DF93CDB7DEB76C97DEBFCDBF1092A0
:10159000E9008091E80083FF25C068E0CE01459610
:1015A0000E945D0782EF8093E8008D8987FF39C034
:1015B0009091E80090FFFCCF982F907609F034C10D
:1015C0009E894F89588D2F89F88C911131C08038B0
:1015D00061F5809185018093F1001092F1008EEF0A
:1015E0008093E8006C960FB6F894DEBF0FBECDBFB7
:1015F000DF91CF91FF91EF91BF91AF919F918F912B
:101600007F916F915F914F913F912F911F910F911A
:10161000FF90EF90DF90CF900F900FBE0F901F9034
:1016200018959EEF9093E800C7CF1092F100D5CFA8
:10163000913059F48111D3CF4130510581F6809119
:1016400085018D7F80938501CACF933049F4811144
:10165000C6CF4130510519F6809185018260F2CFE5
:10166000953041F48091E80080FFFCCF2068209302
:10167000E300B5CF963009F0A9C00B8D1C8D22E098
:101680001092E9001092810110928001F2122EC096
:1016900010927F0110927E010E942C071F8299E018
:1016A0009983FA8291E09E8390EA98879AEF9987CE
:1016B0002091800130918101275F3F4F3C832B8334
:1016C0008D831092E9001092810110928001109395
:1016D0007F0100937E0149E050E0BE016F5F7F4FC4
:1016E00080E00E9406070E942C0779CF10937F01AB
:1016F00000937E010E946C06DC0112960D911C91F4
:101700000115110509F451C1D801ED91FC91048036
:10171000F581E02DBE016B5E7F4FC80109950097F2
:1017200009F03EC1F80100851185EACFF3E0FF1210
:101730000EC08F89882309F440C0823061F440E8EC
:1017400060E18CEF98E00E94DB0C811148CF81E2D0
:101750008093EB0047CF813029F440E86BE080EFC5
:1017600098E0F1CF833099F70E946C06DC01129665
:10177000ED90FC908E010F5F1F4F6801E114F104A2
:1017800079F0D701ED91FC910680F781E02DB80149
:10179000C7010995080F111DF701E084F184EECF10
:1017A000D8011C92F60101900020E9F73197BF01A2
:1017B0006C197D0940E0C601C6CF6AED78E0FB01F7
:1017C000449150E080E80E94060709CF973009F461
:1017D000BECF983021F481E08093F10000CF9930A2
:1017E00009F0FDCE837009F0B2CFE6E2F1E081E0CE
:1017F00031E096E32191222371F08093E900309348
:10180000EB00DF0111972C912093EC009093ED00F9
:101810008F5F873079F78EE78093EA001092EA00B5
:101820008F898093A601DBCE8B8D9C8D1092E90071
:10183000109281011092800190937F0180937E012C
:10184000898D811192C08E899D89913A49F48132A6
:1018500009F07DCF47E050E064E071E080E0B3CF75
:10186000913209F074CF833269F48F89988DB0E09A
:10187000A0E08093000190930101A0930201B09336
:101880000301ADCE803269F48091E80082FFFCCF85
:1018900067E084E091E00E945D078BEF8093E800B1
:1018A0009ECE823209F09BCE8F8980930B01EEEFA2
:1018B000FFE7859194918B3F9C4D51F1E0E0F8E07A
:1018C0008091040190910501A0910601B09107015A
:1018D000803B9440A105B105F1F480910B0180FD9E
:1018E0001AC0EE3F8AE0F80789F587E797E791830A
:1018F0008083809160008093820188E19BE00FB635
:10190000F894A895809360000FBE9093600067CE16
:10191000EEEFFAE0D5CF808191818737974709F0C4
:101920005ECEA89580916000886180936000809170
:10193000820180936000EE3F2AE0F20789F08091F7
:10194000FE0A9091FF0A9183808349CE8081918124
:101950008737980751F29093FF0A8093FE0AC5CF0C
:101960001092FF0A1092FE0A3ACE0E946C06DC0129
:1019700012960D911C910115110509F4E8CED801BC
:10198000ED91FC910190F081E02DBE016B5E7F4FE7
:10199000C8010995811123CEF80100851185EBCF8F
:1019A000181619060CF41BCED2CEF1E0FF12BECEF3
:1019B0006EED78E004CFEF92FF920F931F93CF93D9
:1019C000DF93F82E192FE62E042F81E0860F880F63
:1019D0000E94D80683E00E94D806CF2DD12FEC0EAE
:1019E000FD2EF11CCE15DF05B9F007FF13C0FE0177
:1019F00084910E94D806182F80E00E94D806812387
:101A000021968111EFCFDF91CF911F910F91FF9020
:101A1000EF9008958881EDCF81E0F5CFCF93DF93EC
:101A2000E7EAF5E01382128288EE93E0A0E0B0E0EE
:101A300084839583A683B78386E591E09183808331
:101A40008FEF9FEF95878487ECEFF5E0138212828A
:101A500088E691E0918380830E944A14C7EFD5E025
:101A600028E530E040E050E00E94B8146C5E7F4F03
:101A70008F4F9F4F798368830E944A1428E130E09A
:101A800040E050E00E94B8146C5E7F4F8F4F9F4F34
:101A90007B836A8381E08C83DF91CF910895CF931C
:101AA000DF93CDB7DEB72C970FB6F894DEBF0FBE2D
:101AB000CDBF789484B5826084BD84B5816084BDD7
:101AC00085B5826085BD85B5816085BD80916E00DC
:101AD000816080936E00109281008091810082600D
:101AE000809381008091810081608093810080914A
:101AF000800081608093800080919100826080935B
:101B0000910080919100816080939100809190007C
:101B10008160809390008091C10084608093C100B7
:101B20008091C10082608093C1008091C10081607A
:101B30008093C1008091C30081608093C300809135
:101B4000C00082608093C0008091C2008160809359
:101B5000C20080917A00846080937A0080917A003C
:101B6000826080937A0080917A00816080937A000D
:101B700080917A00806880937A001092A60110927A
:101B80008501109284018091D70081608093D700F5
:101B900080EA8093D80089B5806189BD89B582606B
:101BA00089BD09B400FEFDCF61E070E080E090E007
:101BB0000E94A5068091D8008F7C80618093D80018
:101BC0008091E000807F8093E0008091E1008E7E34
:101BD0008093E1008DE08093E200559A209AEDE039
:101BE000F9E0E49190917B008E2F880F880F80722E
:101BF0009F7D892B80937B00E770E064E0937C00FD
:101C000080917A00806480937A0080917A0086FDCA
:101C1000FCCF6091780070917900072E000C880B42
:101C2000990B611571058105910511F00E949914B8
:101C300081E290E00E9480168C019A8389831C01C6
:101C400021E2220E311C78E5872E912CA12CB12C9B
:101C5000E8E1CE2ED12CE12CF12CF8E24F2E512CC4
:101C6000612C712C0E944A14A50194010E94B814A1
:101C70006C5E7F4F8F4F9F4FA981BA816D937C938C
:101C80000E944A14A70196010E94B8146C5E7F4F0F
:101C90008F4F9F4FE981FA81738362831782168287
:101CA0001186108621E022870E944A14A301920126
:101CB0000E94B814665F7F4F8F4F9F4FA981BA81F2
:101CC00015967C936E93149745E050E060E771E0C1
:101CD00087EA95E00E94970742E050E066E771E0EE
:101CE00087EA95E00E949707E981FA813B96FA839B
:101CF000E9832E163F0609F0B5CF109387010093B4
:101D000086018FEF9FEF9093B4058093B30581EC2C
:101D100080937C0085B1806F85B984B1877E84B95A
:101D200084B1876E84B95E9A5F988AB1806D8AB9F2
:101D3000769A6E9881B3806F81BB899880B38D70DD
:101D400080BB80E58CBDF1E0FDBD85E090E00E94A8
:101D50009F085F9A85E090E00E949F085E985C98DB
:101D6000E9ECF9E084918EBD00000DB407FEFDCFD3
:101D7000319609E0E63DF007A9F75C9A81E8809387
:101D80006400809165008160809365000E943B093A
:101D900080E80E9430098823A9F05C9885EA8EBD0E
:101DA00000000DB407FEFDCF5C9A2E982F982D9859
:101DB0008091640080628093640081E083BF889595
:101DC00013BEFCCF84E00E943009882309F448C088
:101DD0002D9884E80E9430098823E1F00E949D0834
:101DE00088EC90E00E949F082F9882E090E00E948B
:101DF000A2148F3F29F06FEF82E090E00E94AA14B6
:101E000084EF91E00E949F082F9A84E80E94300995
:101E10008111FBCF84E10E9430098823E1F00E9408
:101E20009D0888EC90E00E949F082E9882E090E048
:101E30000E94A214882329F060E082E090E00E94D2
:101E4000AA1484EF91E00E949F082E9A84E10E94D8
:101E500030098111FBCF88EC90E00E949F08B2CF3F
:101E60000E949D0882E090E00E94EE09882309F418
:101E700030C23E9A3F9A81E090E00E94EE09182F0E
:101E8000147081FF10C011112E9821EF3FEF3A839B
:101E9000298380E40E943009882309F41DC22E9A08
:101EA0002F9A0E949D0882E390E00E949F080E9462
:101EB000A4088111F8CF80E180930C018091190171
:101EC00090911A018130910509F068C40E943E0981
:101ED000882309F400C40E94240610928F011092F6
:101EE0008E0110928D0110928C0180E40E943009C5
:101EF000082F80E20E943009081B110B80E10E942C
:101F00003009898380E80E943009C980C81ADD0839
:101F1000DA82C982809188019091890101151105A9
:101F200019F4CD2809F443C220910D0130910E011E
:101F30002150310930930E0120930D011216130622
:101F40007CF00196843091050CF02CC290938901AD
:101F50008093880188E090E090930E0180930D01BA
:101F600089819A8101969C01220F331F820F931F52
:101F700098012F5F3F4F820F931FFC01EE0FFF1F51
:101F8000E05CFE4F8081918190938B0180938A0168
:101F9000B801110F880B990B0E94C5159B01AC016C
:101FA00060911301709114018091150190911601B7
:101FB0000E941C1560931301709314018093150106
:101FC0009093160109811A81B801110F880B990BA2
:101FD0000E94C5159B01AC0160910F017091100129
:101FE00080911101909112010E941C1560930F01C4
:101FF000709310018093110190931201C09013010E
:10200000D0901401E0901501F090160120E030E02E
:1020100040E151E4C701B6010E94881587FFDCC189
:1020200080E090E0A0E1B1E480931301909314016B
:10203000A0931501B0931601C0900F01D09010012C
:10204000E0901101F090120120E030E040E851E40E
:10205000C701B6010E94881587FFCEC180E090E0DD
:10206000A0E8B1E480930F0190931001A0931101B7
:10207000B0931201E091FB05F0E0EE0FFF1FEC5C66
:10208000FE4F408151816091F9057091FA050CE095
:102090002BE08091F7059091F8050E941605E091DC
:1020A0008A01F0918B01EE0FFF1FE85CFE4F20814B
:1020B000318160910F017091100180911101909117
:1020C000120169837A838B839C83809113019091A1
:1020D0001401A0911501B09116018D839E83AF83E9
:1020E000B8872115310509F49DC140918801F90196
:1020F0000491319614912E5F3F4F3A872987602EC5
:10210000712C4423F9F081E090E0212F277011F425
:1021100090E080E0212F269526952695820F911D2F
:10212000869D9001879D300D969D300D1124429F14
:10213000C001439F900D1124C984DA84C80ED91EB2
:10214000DA86C98620E030E040E151E46D817E818D
:102150008F8198850E941B150E948D154B016B0184
:102160007301E60EF71E1E141F040CF05BC16038ED
:1021700071050CF057C120E030E040E051E4698186
:102180007A818B819C810E941B150E948D15DB0139
:10219000212F30E0260F371F121613060CF042C114
:1021A000603471050CF03EC1E985FA85EF2B09F426
:1021B00039C1562F57709B0177FF02C0295F3F4FEF
:1021C000C90123E0959587952A95E1F7F82FB7FF88
:1021D00004C0552311F0FFEFF80F882799278819BD
:1021E0009909D7FC02C090E080E040E8481920E857
:1021F000E216F1040CF4402F481B6F2F0F2E000C39
:10220000770BA62FA095FF3F0CF0A0E021E0312F27
:10221000377009F420E0169516951695210F620F78
:10222000711D6930710514F028E02F1B3A2F3F0F04
:1022300010E83103B0011124680D791D680F791F72
:102240000A9F800D911D1124C984DA848C0D9D1D77
:10225000852E052E000C9908AFEFB0E0052E02C0C8
:10226000AA0FBB1F0A94E2F72D0140945094B52C9D
:102270002F0F231709F4D6C08B0109551E4FF12CDF
:10228000E12CE41608F0C8C0FC01EE0DFF1DE4913E
:10229000F0E0082C02C0EE0FFF1F0A94E2F737FDB2
:1022A00005C0D801DC90D420DE2ADC92552359F0F9
:1022B00037304CF46801B0E8CB0ED11CD601EC915C
:1022C000EB21EF2BEC93BFEFEB1AFB0A0F5F1F4FD5
:1022D000D8CF3E983F98CFCD112339F069817A81CC
:1022E0006430710511F42E9A2F9881E00E94DE056A
:1022F00000E128E549E159E069817A8184E190E0D3
:102300000E9416050E943B098FE090E00E949F0802
:1023100089819A8101969A838983499709F0B9CD79
:10232000112311F02F9A2D9880E991E00E949F08C7
:102330000E949D0881E090E00E94EE0980FFB3CDED
:102340008AE090E00E94EE099FEF980F9E3F08F010
:10235000AACD22E330E030938D0120938C0128E355
:1023600030E030938F0120938E010BE010E01A8350
:102370000983682F8CEF95E00E94CD0889819A81AE
:102380000E94EE0909811A810F5F1F4F1A8309838A
:102390000131110571F70E943B0988EE93E00E941C
:1023A0009F0881CD1092890110928801D3CD892B8D
:1023B00009F424CE80910D0190910E01089709F443
:1023C0001DCE109289011092880188E090E09093D0
:1023D0000E0180930D0112CE20E030E04EEE52E46B
:1023E000C701B6010E94751618160CF025CE80E0C4
:1023F00090E0AEEEB2E418CE20E030E040E652E4E9
:10240000C701B6010E94751618160CF033CE80E095
:1024100090E0A0E6B2E426CE3F5F860D971D60589F
:102420007F4F27CF90E080E00E947209C090860124
:10243000D0908701DA86C986160101E2200E311C90
:1024400088E0682E90E8792EA985BA851A968C9135
:102450001A97882309F425C14D915C911197CA01FF
:1024600004968938910508F013C112968D919C91BC
:1024700013979C01285F3F4F2035310508F008C1B4
:102480001696ED91FC91EE0FFF1FE45DFE4FE0808C
:10249000F180E114F10409F4FBC008979C0197FF57
:1024A00004C022273327281B390B322F3770BC0179
:1024B00097FF02C0695F7F4F13E0759567951A9586
:1024C000E1F7262F97FF07C0332329F02FEF260FC0
:1024D000B62DB31B3B2F8A0105501109E5E0F0E052
:1024E000E41BF50B17FD02C0F0E0E0E04B375105AF
:1024F0000CF4AFC0A72DA01BAE1BAC87622F60955C
:102500002F3F0CF060E0462D421B26300CF443E0D8
:10251000A985BA8518969C90A42EA61A260F2B87FB
:1025200070E82703A0011124400F511F4E0F5F1FB9
:10253000AAE06A9FB0011124E60FF71FEE0DFF1D00
:10254000B92DB170BB2E90FE12C0CC84EC2CF12CB6
:102550006701A1E0CA1AD108EC0DFD1DAAE0CA2E40
:10256000D12CCE18DF0817FF79C0EC19FD09092D11
:102570000270D02E91FE10C0AA2DA150BB0B7D0180
:10258000BAE0BE9D8001BF9D100D1124E00FF11F28
:1025900097FF67C0E61BF70B832E032E000C9908EC
:1025A00049555E4F2A0D1C85E12EF12C1AE0412E73
:1025B000512C4E185F086AE0E60EF11C7B85271748
:1025C00009F466C070E060E08C85681708F051C0BF
:1025D00084918823C1F1DD20B9F0829590E08C01CF
:1025E00015950795159507950373880F991F880F03
:1025F000991F8C7C082B10E0C801959587958575EF
:10260000000F111F0A7A802B90E0082C02C0880F5F
:10261000991F0A94E2F7AB85A7FD07C08A01060F50
:10262000171FD801CC90C82ACC92332361F0BB8508
:10263000B7304CF48B0100581F4F040F151FD80101
:102640008C91892B8C93BB2091F031976F5F7F4FDA
:10265000BBCFBAE0CB2ECE1ACC8650CFEC0DFD1DF1
:1026600086CF0AE02002E00DF11D112495CF3196AE
:10267000EDCFBB85BF5FBB87BB2039F0EE0DFF1DE3
:10268000D110749740585F4F99CFE40DF51DF8CFE6
:10269000E985FA8584819581019797FD24C095830A
:1026A000848309851A85055F1F4F1A8709870215DC
:1026B000130509F0C9CE41E064E170E084E190E0E7
:1026C0000E94AC0841E06CE270E08CE690E00E9471
:1026D000AC080E943B0980E090E0892B09F4EECB26
:1026E0000E940000EBCBEEE1F0E0A985BA851596DB
:1026F000FC93EE93149716968D919C9117970196E3
:102700008430910554F517969C938E9316976D819E
:102710007E818F8198850E948D15E985FA8580815B
:1027200091818617970704F5029691838083CC24C4
:10273000C394D12CD186C08669817A818B819C819A
:102740000E948D15E985FA85828193818617970706
:10275000CCF4029693838283A4CFA985BA85179679
:102760001C921E921697D3CF681779072CF7029701
:10277000A985BA8511969C938E9319961C921E92E8
:102780001897DACF681779070CF08BCF0297A985D5
:10279000BA8513969C938E93129783CF029709F074
:1027A0009ACF0E943E09882309F495CF0E942406FF
:1027B00010928F0110928E0110928D0110928C0157
:1027C000C0901701D0901801C6010E947209C6017D
:1027D000805891090E9472091C141D0444F486015A
:1027E00001501109109318010093170172CF21E0D5
:1027F00030E030931A01209319016BCF8F929F9292
:10280000AF92BF92CF92DF92EF92FF92CF93DF937E
:10281000EC01688179818A819B816115710581054F
:10282000910521F464E279ED8BE597E02DE133EF3A
:1028300041E050E00E94B81449015A019B01AC01EB
:10284000A7EAB1E40E94D7146B017C01ACEEB4EFAF
:10285000A50194010E94E514C60ED71EE81EF91EBC
:10286000F7FE06C081E0C81AD108E10880E8F80A3E
:10287000C882D982EA82FB82C701B6019F77DF91C5
:10288000CF91FF90EF90DF90CF90BF90AF909F904F
:102890008F9008958F929F92AF92BF92CF92DF92C6
:1028A000EF92FF9260911B0170911C0180911D01BC
:1028B00090911E01611571058105910521F464E275
:1028C00079ED8BE597E02DE133EF41E050E00E9498
:1028D000B81449015A019B01AC01A7EAB1E40E9476
:1028E000D7146B017C01ACEEB4EFA50194010E94FA
:1028F000E514C60ED71EE81EF91EF7FE06C081E0DD
:10290000C81AD108E10880E8F80AC0921B01D092E9
:102910001C01E0921D01F0921E01C701B6019F77D4
:10292000FF90EF90DF90CF90BF90AF909F908F90EF
:10293000089560931B0170931C0180931D01909377
:102940001E010895F999FECF92BD81BDF89A99278D
:1029500080B50895262FF999FECF1FBA92BD81BD8B
:1029600020BD0FB6F894FA9AF99A0FBE0196089511
:10297000052E97FB1EF400940E94CF1457FD07D03C
:102980000E94EA1407FC03D04EF40C94CF14509527
:102990004095309521953F4F4F4F5F4F089590954B
:1029A0008095709561957F4F8F4F9F4F08950E943E
:1029B0000C15A59F900DB49F900DA49F800D911DA7
:1029C00011240895B7FF0C94D7140E94D714821BCA
:1029D000930B0895A1E21A2EAA1BBB1BFD010DC08B
:1029E000AA1FBB1FEE1FFF1FA217B307E407F507BF
:1029F00020F0A21BB30BE40BF50B661F771F881F9B
:102A0000991F1A9469F760957095809590959B0130
:102A1000AC01BD01CF010895A29FB001B39FC001D9
:102A2000A39F700D811D1124911DB29F700D811DFA
:102A30001124911D08955058BB27AA270E943315D1
:102A40000C943B160E942D1638F00E94341620F08C
:102A500039F49F3F19F426F40C942A160EF4E095ED
:102A6000E7FB0C942416E92F0E944C1658F3BA1772
:102A7000620773078407950720F079F4A6F50C9494
:102A80006E160EF4E0950B2EBA2FA02D0B01B90196
:102A900090010C01CA01A0011124FF27591B99F0D4
:102AA000593F50F4503E68F11A16F040A22F232FE0
:102AB000342F4427585FF3CF469537952795A79530
:102AC000F0405395C9F77EF41F16BA0B620B730BD7
:102AD000840BBAF09150A1F0FF0FBB1F661F771F48
:102AE000881FC2F70EC0BA0F621F731F841F48F4FD
:102AF000879577956795B795F7959E3F08F0B0CF86
:102B00009395880F08F09927EE0F9795879508956C
:102B10000E94001608F481E008950E9494156894BC
:102B2000B1110C946F1608950E94541688F09F57A7
:102B300098F0B92F9927B751B0F0E1F0660F771FE1
:102B4000881F991F1AF0BA95C9F714C0B13091F0D7
:102B50000E946E16B1E008950C946E16672F782FC0
:102B60008827B85F39F0B93FCCF38695779567959C
:102B7000B395D9F73EF490958095709561957F4F08
:102B80008F4F9F4F0895E89409C097FB3EF49095AE
:102B90008095709561957F4F8F4F9F4F9923A9F036
:102BA000F92F96E9BB279395F695879577956795C5
:102BB000B795F111F8CFFAF4BB0F11F460FF1BC009
:102BC0006F5F7F4F8F4F9F4F16C0882311F096E99C
:102BD00011C0772321F09EE8872F762F05C066234A
:102BE00071F096E8862F70E060E02AF09A95660F03
:102BF000771F881FDAF7880F9695879597F90895BC
:102C0000990F0008550FAA0BE0E8FEEF16161706FD
:102C1000E807F907C0F012161306E407F50798F065
:102C2000621B730B840B950B39F40A2661F0232B7E
:102C3000242B252B21F408950A2609F4A140A695FA
:102C40008FEF811D811D089597F99F6780E870E0DF
:102C500060E008959FEF80EC089500240A94161612
:102C6000170618060906089500240A94121613067A
:102C7000140605060895092E0394000C11F4882308
:102C800052F0BB0F40F4BF2B11F460FF04C06F5F24
:102C90007F4F8F4F9F4F089557FD9058440F551FFA
:102CA00059F05F3F71F04795880F97FB991F61F0CE
:102CB0009F3F79F087950895121613061406551F45
:102CC000F2CF4695F1DF08C0161617061806991FB1
:102CD000F1CF86957105610508940895E894BB27A6
:102CE00066277727CB0197F908950E94001608F40C
:102CF0008FEF0895EE0FFF1F0590F491E02D0994DA
:102D00000F931F93CF93DF938230910510F482E0ED
:102D100090E0E0910206F091030630E020E0B0E0A0
:102D2000A0E0309799F42115310509F44AC0281B19
:102D3000390B24303105D8F58A819B8161157105E5
:102D400089F1FB0193838283FE0111C0408151818F
:102D50000281138148175907E0F04817590799F481
:102D6000109761F012960C93129713961C9332965B
:102D7000CF01DF91CF911F910F910895009302062B
:102D800010930306F4CF2115310551F04217530774
:102D900038F0A901DB019A01BD01DF01F801C1CFC3
:102DA000EF01F9CF9093030680930206CDCFFE0189
:102DB000E20FF31F819391932250310939832883C5
:102DC000D7CF2091000630910106232B41F42091AA
:102DD00021013091220130930106209300062091B9
:102DE0001F01309120012115310541F42DB73EB767
:102DF0004091230150912401241B350BE0910006E2
:102E0000F0910106E217F307A0F42E1B3F0B2817E1
:102E1000390778F0AC014E5F5F4F2417350748F053
:102E20004E0F5F1F509301064093000681939193CC
:102E30009FCFF0E0E0E09CCFCF93DF930097E9F0E5
:102E4000FC01329713821282A0910206B091030610
:102E5000ED0130E020E01097A1F420813181820F54
:102E6000931F20910006309101062817390709F0B9
:102E700061C0F0930106E0930006DF91CF910895C1
:102E8000EA01CE17DF07E8F54A815B819E01411513
:102E90005105B1F7E901FB83EA8349915991C40FC8
:102EA000D51FEC17FD0761F4808191810296840F94
:102EB000951FE90199838883828193819B838A830B
:102EC000F0E0E0E012968D919C9113970097B9F590
:102ED0002D913C911197CD010296820F931F209165
:102EE0000006309101062817390739F6309751F559
:102EF0001092030610920206B0930106A0930006FA
:102F0000BCCFD383C28340815181840F951FC817E2
:102F1000D90761F44E5F5F4F88819981480F591F2F
:102F2000518340838A819B8193838283211531055C
:102F300009F0B0CFF0930306E09302069ECFFD01A7
:0E2F4000DC01C0CF13821282D7CFF894FFCFEE
:102F4E00FFFFFFFF00E1000000000000100800007E
:102F5E0000004200008042800002000100000000DC
:102F6E00000406800000C180810000000601E80018
:102F7E00CA00AC003A01240106037402E2015001BA
:102F8E000200020002000100010003000000000028
:102F9E000000000000001C0897073D083208830857
:102FAE0041085F0800000000CD086A07EB09EA0936
:0A2FBE007365747570000D0A0000C1
:00000001FF
