:100000000C944E040C9476040C9476040C947604B0
:100010000C9476040C9476040C9476040C94760478
:100020000C9476040C9476040C9442090C94B10957
:100030000C9476040C9476040C9476040C94760458
:100040000C9476040C9476040C9476040C94760448
:100050000C9476040C9476040C9476040C94E30BC4
:100060000C9476040C9476040C9476040C94760428
:100070000C9476040C9476040C9476040C94760418
:100080000C9476040C9476040C9476040C94760408
:100090000C9476040C9476040C9476040C947604F8
:1000A0000C9476040C9476040C9476040000000002
:1000B00000F0684422226428D00000000000000004
:1000C000000C1201000020213D41021C0000000034
:1000D0000000000000F0684422226428D0000000E4
:1000E00000000000000C1201004040011D21021C14
:1000F000000000000000000000F834221191B294CA
:10010000680000000000000000001F0000404000E8
:100110003E40011E00000000000080C000E010080A
:1001200004040810E000C080000000001824420110
:10013000020201010202818224180000000080C036
:1001400000E0100804040810E000C0800000000077
:1001500018248281020201010202014224180000D7
:100160000000406000F0080482820408F000604053
:1001700000000000003E818001010000010180813B
:100180003E0000000000000000B0484442424468C5
:10019000F00000000000000000001C02413D212092
:1001A000000001120C0000000000000000B04844F4
:1001B00042424468F00000000000000000001C0201
:1001C000211D0140400001120C0000000000000051
:1001D0000058A4A2A1212234F80000000000000071
:1001E00000001E01403E00404000001F00000000D3
:1001F000000080C0006050C844848890E000C08047
:1002000000000000182442414202FEFE0282818268
:1002100024180000000080C0006050C8448488900A
:10022000E000C08000000000182482818202FEFEEF
:1002300002424142241800000000406000B02864DF
:1002400022424448F000604000000000003E8180EF
:100250008101FFFF018180813E000000000000005D
:10026000003E5B4F5B3E3E6B4F6B3E1C3E7C3E1C3C
:10027000183C7E3C181C577D571C1C5E7F5E1C0082
:10028000183C1800FFE7C3E7FF0018241800FFE739
:10029000DBE7FF30483A060E2629792926407F05FC
:1002A0000507407F05253F5A3CE73C5A7F3E1C1C12
:1002B00008081C1C3E7F14227F22145F5F005F5FD2
:1002C00006097F017F006689956A606060606094BE
:1002D000A2FFA29408047E040810207E20100808C3
:1002E0002A1C08081C2A08081E101010100C1E0CCE
:1002F0001E0C30383E3830060E3E0E060000000060
:100300000000005F00000007000700147F147F1446
:10031000242A7F2A1223130864623649562050008B
:1003200008070300001C2241000041221C002A1C77
:100330007F1C2A08083E0808008070300008080862
:100340000808000060600020100804023E51494582
:100350003E00427F400072494949462141494D33A0
:100360001814127F1027454545393C4A4949314107
:10037000211109073649494936464949291E0000D5
:10038000140000004034000000081422411414142A
:100390001414004122140802015909063E415D5916
:1003A0004E7C1211127C7F494949363E414141221F
:1003B0007F4141413E7F494949417F090909013E49
:1003C000414151737F0808087F00417F4100204070
:1003D000413F017F081422417F404040407F021C82
:1003E000027F7F0408107F3E4141413E7F09090999
:1003F000063E4151215E7F09192946264949493265
:1004000003017F01033F4040403F1F2040201F3F2A
:100410004038403F631408146303047804036159AF
:10042000494D43007F4141410204081020004141F1
:10043000417F04020102044040404040000307089D
:100440000020545478407F28444438384444442899
:10045000384444287F385454541800087E09021840
:10046000A4A49C787F0804047800447D40002040C8
:10047000403D007F1028440000417F40007C04780C
:1004800004787C080404783844444438FC18242454
:100490001818242418FC7C080404084854545424D4
:1004A00004043F44243C4040207C1C2040201C3C51
:1004B0004030403C44281028444C9090907C446448
:1004C000544C4400083641000000770000004136DB
:1004D000080002010204023C2623263C1EA1A16161
:1004E000123A4040207A3854545559215555794193
:1004F0002154547841215554784020545579400C6A
:100500001E5272123955555559395454545939554A
:100510005454580000457C410002457D420001458D
:100520007C40F0292429F0F0282528F07C545545FA
:10053000002054547C547C0A097F4932494949328D
:100540003248484832324A4848303A4141217A3AA2
:1005500042402078009DA0A07D39444444393D406C
:1005600040403D3C24FF2424487E4943662B2FFC19
:100570002F2BFF0929F620C0887E090320545479C7
:10058000410000447D413048484A32384040227A98
:10059000007A0A0A727D0D19317D2629292F282615
:1005A0002929292630484D4020380808080808081D
:1005B0000808382F10C8ACBA2F102834FA00007B76
:1005C000000008142A142222142A1408950022007C
:1005D00095AA005500AAAA55AA55AA000000FF0036
:1005E000101010FF00141414FF001010FF00FF1073
:1005F00010F010F0141414FC001414F700FF0000A5
:10060000FF00FF1414F404FC141417101F10101F23
:10061000101F1414141F00101010F0000000001F11
:10062000101010101F10101010F010000000FF101C
:100630001010101010101010FF10000000FF140018
:1006400000FF00FF00001F10170000FC04F414144A
:100650001710171414F404F40000FF00F714141416
:1006600014141414F700F7141414171410101F1096
:100670001F141414F4141010F010F000001F101FB9
:100680000000001F14000000FC140000F010F01027
:1006900010FF10FF141414FF141010101F0000009E
:1006A00000F010FFFFFFFFFFF0F0F0F0F0FFFFFFA2
:1006B0000000000000FFFF0F0F0F0F0F38444438F9
:1006C000447C2A2A3E147E02020606027E027E0234
:1006D00063554941633844443C04407E201E200653
:1006E000027E020299A5E7A5991C2A492A1C4C7290
:1006F00001724C304A4D4D303048784830BC625A17
:10070000463D3E494949007E0101017E2A2A2A2AA6
:100710002A44445F444440514A444040444A514082
:100720000000FF0103E080FF000008086B6B083643
:1007300012362436060F090F0600001818000000B4
:100740001010003040FF0101001F01011E00191DA3
:100750001712003C3C3C3C0000000000070605046A
:100760000100080A0B0C0D09F0F89C8E8783878E18
:100770009CF8F00000FEFF0303030303070EFCF8E0
:100780000000FEFF0303030303070EFCF80000FF55
:10079000FF00000000000000FFFF0000FEFF838359
:1007A000838383C7EE7C380000F8FC0E0703030345
:1007B000070EFCF800003F7FE0C08080C0E07F3F74
:1007C000FFFF01010101010101FFFF0000FFFF0C1C
:1007D0000C0C0C1C3E77E3C100007FFFC0C0C0C002
:1007E000C0E0703F1F00001F3F70E0C0C0C0E0705D
:1007F0003F1F00007FFFC1C1C1C1C1E3773E1C00A4
:10080000001F3F70E0C0C0C0E0703F1F000000004C
:100810000001FFFF01000000D5F08D14A1C881CFB9
:10082000D9F1AF2000080B00020202000009040009
:10083000000102020000052400100105240101014D
:100840000424020605240600010705810310004068
:1008500009040100020A000000070502024000002E
:10086000070583024000000403090412010002EF9F
:1008700002014041233680000101020301417264FC
:1008800075696E6F204C4C430041726475696E6FE0
:10089000204C656F6E6172646F00600C11241FBE86
:1008A000CFEFDAE0DEBFCDBF11E0A0E0B1E0EEEEC9
:1008B000F4E202C005900D92A637B107D9F725E002
:1008C000A6E7B1E001C01D92A53FB207E1F714E031
:1008D000CEE4D4E004C02197FE010E946F12CD3413
:1008E000D107C9F70E947D0C0C9475120C9400007E
:1008F000E1EAF1E0A0E0B8E000800EBC8111012C3B
:100900001197A0FDFDCF0192B9F70DB408959C0198
:1009100021583F4F2F3F310580F59C0197FF02C0C2
:1009200030E020E080589F4F8138910514F080E836
:1009300090E0821BAB014770552791E001C0990FF1
:100940004A95EAF777FF02C0695F7F4FFB0143E0FA
:10095000F595E7954A95E1F7F695FE2FEE27F79581
:10096000E795E20FF31FEF55FE4F815030F02191D4
:10097000DF011197292B2C93F8CF089580E0E1EA4D
:10098000F1E081118FEF0024819381938193819312
:100990000394D1F708954F925F926F927F928F9256
:1009A0009F92AF92BF92CF92DF92EF92FF920F93FE
:1009B0001F93CF93DF9330E0F901E80FF91F1E1664
:1009C0001F060CF08EC0803891050CF08AC0FB0128
:1009D0003F96EF34F10508F084C0DB0177FF04C0D7
:1009E000AA27BB27A61BB70BA770BB27FB0177FD68
:1009F0003796C3E0F595E795CA95E1F777FF07C00D
:100A0000319768E070E0EB01CA1BDB0BDE01BF0130
:100A10008A01AF015695542F442757954795480FA3
:100A2000591F4F555E4F4B01D2E08D0E911CE8E0EF
:100A3000F0E03F016A1A7B0A6E3FEFEF7E0709F490
:100A400043C07C01D0E0C0E05A01E0E8AE0EB11C2A
:100A5000F7FC2EC06F3F760709F454C0F801EC0F85
:100A6000FD1FE4916A01CC0EDD1EF0E02F010A2E7D
:100A700001C0440C0A94EAF7F601508045284082F0
:100A80001097B1F06730710599F0F801EC0FFD1F78
:100A9000E4916501CC0EDD1EF0E02F01062C02C0B2
:100AA000559447940A94E2F7F60150804528408215
:100AB0002196FFEFEF1AFF0AC217D3072CF4F0E8D4
:100AC000EF16F10409F0C4CF6F5F7F4F020F131FC1
:100AD00040585F4F8616970621F06830710509F07F
:100AE000ABCFDF91CF911F910F91FF90EF90DF90EF
:100AF000CF90BF90AF909F908F907F906F905F90BE
:100B00004F900895109709F0C0CFD2CFFC0180918B
:100B1000A001882311F13FB7F89482E08093E900A7
:100B20002091F200822F90E01816190614F481E04B
:100B300090E0882339F0289844E640939F01409143
:100B4000F1004083222339F02091F200211103C0EB
:100B50002BE62093E8003FBF08958FEF9FEF0895A5
:100B60002FB7F89483E08093E9009091E800892FF3
:100B7000807295FF04C09091F20080E4891B2FBF22
:100B800008958091970181110DC082E080939301B7
:100B900084E080939401109296011092950181E077
:100BA0008093970183E991E00895CF93DF931F929B
:100BB000CDB7DEB76983DC01ED91FC910280F38152
:100BC000E02D41E050E0BE016F5F7F4F09950F902F
:100BD000DF91CF91089583E08093E9008091F20046
:100BE000882319F08AE38093E80008950E94B005F5
:100BF00090E00895CF93DF931F92CDB7DEB7FC014D
:100C00008485958597FD08C02FEF3FEF35872487B2
:100C10000F90DF91CF910895CE0101960E94860535
:100C2000019719F4898190E0F3CF8FEF9FEFF0CF18
:100C30000F931F93CF93DF931F92CDB7DEB78C0135
:100C4000FC018485958597FF0BC0CE0101960E941B
:100C50008605019771F4898190E0F8019587848772
:100C6000F801848595850F90DF91CF911F910F91A9
:100C700008958FEF9FEFF1CFFC018485958597FD57
:100C80000BC09FB7F89482E08093E9008091F20056
:100C90009FBF90E0019608959FB7F89482E08093FB
:100CA000E9008091F2009FBF90E0089540918D018E
:100CB00050918E0120918B0130918C014217530786
:100CC000B4F49091E8009570E1F39091E80092FD02
:100CD00019C08093F10080918D0190918E01019651
:100CE0008F739927892B19F48EEF8093E8008091F8
:100CF0008D0190918E01019690938E0180938D01CC
:100D000081E0089580E00895DF92EF92FF920F93C3
:100D10001F93CF93DF93D82E8A01EB017B01E40E62
:100D2000F51ECE15DF0559F0D7FE12C0FE018491E5
:100D30000E94560621968111F4CF0FEF1FEFC801D4
:100D4000DF91CF911F910F91FF90EF90DF90089569
:100D50008881EECF0F931F93CF93DF931F92CDB770
:100D6000DEB782E0898342E450E065E278E080E823
:100D70000E9484060E94C105DC0112960D911C910F
:100D80000115110589F0D801ED91FC910280F381E4
:100D9000E02DBE016F5F7F4FC801099597FD04C02C
:100DA000F80100851185ECCF89810F90DF91CF91FB
:100DB0001F910F910895615030F02091F100FC01D6
:100DC00020830196F8CF289884E680939F010895A8
:100DD0003FB7F8948091870190918801A091890193
:100DE000B0918A0126B5A89B05C02F3F19F0019646
:100DF000A11DB11D3FBFBA2FA92F982F8827BC0175
:100E0000CD01620F711D811D911D42E0660F771F9C
:100E1000881F991F4A95D1F708958F929F92AF929C
:100E2000BF92CF92DF92EF92FF926B017C010E9402
:100E3000E8064B015C01C114D104E104F104B9F0EE
:100E40000E94E806681979098A099B09683E73407F
:100E50008105910580F321E0C21AD108E108F1086B
:100E600088EE880E83E0981EA11CB11CE4CFFF9091
:100E7000EF90DF90CF90BF90AF909F908F900895AC
:100E80008F929F92AF92BF92CF92DF92EF92FF929A
:100E90000F931F93CF93DF936C017B018A018091A5
:100EA0001A01882309F45CC08091A001882309F409
:100EB00057C08091920180FF05C08091E000826060
:100EC0008093E000E801B12C8AEFA82E93E0892EF0
:100ED0002AE3922E209711F4BB20D9F10E94B0058D
:100EE00081110AC0AA94AA20D9F161E070E080E0E3
:100EF00090E00E940D07EECF8C171D0611F00CF04C
:100F00008C2F9FB7F8948092E9002091E80025FD8E
:100F100002C09FBFDFCF282F30E0C21BD30BF701E9
:100F2000815020F041914093F100FACFE20EF31E80
:100F3000BB2021F09092E800B12CEBCF8091E8002B
:100F400085FDE7CF9092E800BB24B394209709F386
:100F5000F3CF5D9884E680939101101611063CF062
:100F600081E090E0F6019383828310E000E0C80105
:100F7000DF91CF911F910F91FF90EF90DF90CF9075
:100F8000BF90AF909F908F900895AF92BF92CF92F5
:100F9000DF92EF92FF920F931F93CF93DF936C0139
:100FA0007B018B01040F151FEB015E01AE18BF081A
:100FB000C017D10759F06991D601ED91FC910190CC
:100FC000F081E02DC6010995892B79F7C501DF91E4
:100FD000CF911F910F91FF90EF90DF90CF90BF9036
:100FE000AF9008952D9A0895BC0190E080E00C9494
:100FF0000D078FB18095807F669B88601C9B846005
:101000000895CF93C82F0E94F907982F9C2381E061
:101010009C1380E0CF91089580E00C947804803890
:101020009105B8F460347105A0F420E191E061FD10
:1010300094E060FD990F62FD9295687F269FD00134
:101040001124A80FAF55BE4F8C9140FF03C0892BD0
:101050008C93089590958923FBCF8F929F92AF92A6
:10106000BF92CF92DF92EF92FF920F931F93CF9395
:10107000DF936D3089F0C0908001D09081016A309B
:10108000D1F410927F0110927E0188E0C80ED11C2D
:10109000D0928101C092800181E090E0DF91CF91F8
:1010A0001F910F91FF90EF90DF90CF90BF90AF9086
:1010B0009F908F90089500917E0110917F01E5E04F
:1010C0006E9FE0011124C45ADD4F4801F12CF5E078
:1010D000E12CFF1629F0CE010196FE01E490EC010F
:1010E000B12CA12C4E2D4170B6016A0D7B1DC4019F
:1010F0000E940F08E694FFEFAF1ABF0A88E0A81617
:10110000B10481F7F394EFEF8E1A9E0AF6E0FF1216
:10111000DECF0A5F1F4F10937F0100937E01BCCF8B
:101120008FB7F894409183015091840160918501BB
:10113000709186018FBF80917801882321F01092F1
:10114000780180E0089590917901242F291B922F36
:1011500020910001921740F49F5F9217A0F491E054
:1011600093BF889513BE089581E0809378014093E2
:1011700079018091760190917701019690937701A2
:101180008093760181E008956F927F928F929F9273
:10119000AF92BF92CF92DF92EF92FF920F931F9385
:1011A000CF93DF93EC0170E060E00E94870410E0D1
:1011B00000E041E0B801CE010E940F080F5F1F4F11
:1011C00000341105B1F75E018FE7A80EB11C10E0E5
:1011D00000E041E0B801C5010E940F080F5F1F4FFA
:1011E00000341105B1F77E018FEFE81AF80A3E01CD
:1011F0008EE7680E711C6301CE18DF088601D7FEEA
:1012000002C00F5F1F4F1595079588248394912C7A
:10121000EA14FB0481F041E0B401C7010E940F0809
:1012200017FF05C081E0881A91080C0D1D1D8FEF76
:10123000E81AF80AEDCF2296C615D70571F003E03B
:1012400010E041E0B801CE010E940F080F5F1F4F70
:1012500007301105B1F72196EFCFDF91CF911F91A4
:101260000F91FF90EF90DF90CF90BF90AF909F9045
:101270008F907F906F900895089590E080E008959A
:101280000C9497101F920F920FB60F9211248F9308
:101290009F938091E1009091E100937F9093E10012
:1012A00083FF0FC01092E90091E09093EB00109241
:1012B000EC0092E39093ED001092A00198E09093DF
:1012C000F00082FF22C093E09093E9009091F20039
:1012D000992319F09AE39093E80090919101992352
:1012E00041F090919101915090939101911101C021
:1012F0005D9A90919F01992341F090919F019150A7
:1013000090939F01911101C0289A84FF18C0809189
:10131000E2008E7E81608093E2008091E1008F7E0A
:101320008093E100809192018E7E80618093920192
:101330009F918F910F900FBE0F901F90189580FF77
:10134000F7CF8091E2008E7E80618093E2008091F1
:10135000E1008E7E8093E100809192018E7E81601B
:10136000E5CF1F920F920FB60F921124CF92DF920A
:10137000EF92FF920F931F932F933F934F935F939F
:101380006F937F938F939F93AF93BF93EF93FF934D
:10139000CF93DF93CDB7DEB76C97DEBFCDBF109292
:1013A000E9008091E80083FF25C068E0CE01459602
:1013B0000E94DB0682EF8093E8008D8987FF39C0A9
:1013C0009091E80090FFFCCF982F907609F034C1FF
:1013D0009E894F89588D2F89F88C911131C08038A2
:1013E00061F5809190018093F1001092F1008EEFF1
:1013F0008093E8006C960FB6F894DEBF0FBECDBFA9
:10140000DF91CF91FF91EF91BF91AF919F918F911C
:101410007F916F915F914F913F912F911F910F910C
:10142000FF90EF90DF90CF900F900FBE0F901F9026
:1014300018959EEF9093E800C7CF1092F100D5CF9A
:10144000913059F48111D3CF4130510581F680910B
:1014500090018D7F80939001CACF933049F4811120
:10146000C6CF4130510519F6809190018260F2CFCC
:10147000953041F48091E80080FFFCCF20682093F4
:10148000E300B5CF963009F0A9C00B8D1C8D22E08A
:101490001092E90010928E0110928D01F2122EC06E
:1014A00010928C0110928B010E94AA061F8299E073
:1014B0009983FA8291E09E8390EA98879AEF9987C0
:1014C00020918D0130918E01275F3F4F3C832B830C
:1014D0008D831092E90010928E0110928D0110936D
:1014E0008C0100938B0149E050E0BE016F5F7F4F9C
:1014F00080E00E9484060E94AA0679CF10938C0196
:1015000000938B010E94C105DC0112960D911C9184
:101510000115110509F451C1D801ED91FC91048028
:10152000F581E02DBE016B5E7F4FC80109950097E4
:1015300009F03EC1F80100851185EACFF3E0FF1202
:101540000EC08F89882309F440C0823061F440E8DE
:1015500060E189E898E00E942D0C811148CF81E27A
:101560008093EB0047CF813029F440E86BE08DE7B2
:1015700098E0F1CF833099F70E94C105DC01129603
:10158000ED90FC908E010F5F1F4F6801E114F10494
:1015900079F0D701ED91FC910680F781E02DB8013B
:1015A000C7010995080F111DF701E084F184EECF02
:1015B000D8011C92F60101900020E9F73197BF0194
:1015C0006C197D0940E0C601C6CF67E678E0FB01F3
:1015D000449150E080E80E94840609CF973009F4D6
:1015E000BECF983021F481E08093F10000CF993094
:1015F00009F0FDCE837009F0B2CFE2E5F1E081E0C1
:1016000031E096E32191222371F08093E900309339
:10161000EB00DF0111972C912093EC009093ED00EB
:101620008F5F873079F78EE78093EA001092EA00A7
:101630008F898093A001DBCE8B8D9C8D1092E90069
:1016400010928E0110928D0190938C0180938B01EA
:10165000898D811192C08E899D89913A49F4813298
:1016600009F07DCF47E050E063E171E080E0B3CF67
:10167000913209F074CF833269F48F89988DB0E08C
:10168000A0E080930F0190931001A0931101B093FB
:101690001201ADCE803269F48091E80082FFFCCF68
:1016A00067E083E191E00E94DB068BEF8093E80026
:1016B0009ECE823209F09BCE8F8980931A01EEEF85
:1016C000FFE7859194918B3F9C4D51F1E0E0F8E06C
:1016D0008091130190911401A0911501B091160110
:1016E000803B9440A105B105F1F480911A0180FD81
:1016F0001AC0EE3F8AE0F80789F587E797E79183FC
:1017000080838091600080938F0188E19BE00FB619
:10171000F894A895809360000FBE9093600067CE08
:10172000EEEFFAE0D5CF808191818737974709F0B6
:101730005ECEA89580916000886180936000809162
:101740008F0180936000EE3F2AE0F20789F08091DC
:10175000FE0A9091FF0A9183808349CE8081918116
:101760008737980751F29093FF0A8093FE0AC5CFFE
:101770001092FF0A1092FE0A3ACE0E94C105DC01C7
:1017800012960D911C910115110509F4E8CED801AE
:10179000ED91FC910190F081E02DBE016B5E7F4FD9
:1017A000C8010995811123CEF80100851185EBCF81
:1017B000181619060CF41BCED2CEF1E0FF12BECEE5
:1017C0006BE678E004CF1F920F920FB60F921124B0
:1017D0002F933F938F939F93AF93BF9380918301F8
:1017E00090918401A0918501B09186013091820190
:1017F00023E0230F2D3758F50196A11DB11D20932D
:1018000082018093830190938401A0938501B0931A
:1018100086018091870190918801A0918901B09102
:101820008A010196A11DB11D8093870190938801C3
:10183000A0938901B0938A01BF91AF919F918F913D
:101840003F912F910F900FBE0F901F90189526E893
:10185000230F0296A11DB11DD2CFEF92FF920F93DD
:101860001F93CF93DF93F82E192FE62E042F81E0DC
:10187000860F880F0E94560683E00E945606CF2DE1
:10188000D12FEC0EFD2EF11CCE15DF05B9F007FFB0
:1018900013C0FE0184910E945606182F80E00E941A
:1018A0005606812321968111EFCFDF91CF911F91B1
:1018B0000F91FF90EF9008958881EDCF81E0F5CFF3
:1018C000E1EAF5E01382128288EE93E0A0E0B0E056
:1018D00084839583A683B7838CE591E0918380838D
:1018E0008FEF9FEF95878487E1EFF5E013821282F7
:1018F0008EE691E0918380830895789484B5826028
:1019000084BD84B5816084BD85B5826085BD85B5A3
:10191000816085BD80916E00816080936E00109221
:10192000810080918100826080938100809181009C
:10193000816080938100809180008160809380002D
:1019400080919100826080939100809191008160EC
:1019500080939100809190008160809390008091AD
:10196000C10084608093C1008091C1008260809337
:10197000C1008091C10081608093C1008091C3004B
:1019800081608093C3008091C00082608093C0001A
:101990008091C20081608093C20080917A0084604F
:1019A00080937A0080917A00826080937A0080919F
:1019B0007A00816080937A0080917A0080688093B9
:1019C0007A001092A00110929001109292018091E1
:1019D000D70081608093D70080EA8093D80089B5D2
:1019E000806189BD89B5826089BD09B400FEFDCFE3
:1019F00061E070E080E090E00E940D078091D800E7
:101A00008F7C80618093D8008091E000807F8093FC
:101A1000E0008091E1008E7E8093E1008DE0809374
:101A2000E200559A209AECE5F7E0E49190917B0072
:101A30008E2F880F880F80729F7D892B80937B006B
:101A4000E770E064E0937C0080917A00806480938A
:101A50007A0080917A0086FDFCCF609178007091C9
:101A60007900072E000C880B990B61157105810513
:101A7000910511F00E948E1081EC80937C0085B15D
:101A8000806F85B984B1877E84B984B1876E84B94B
:101A90005E9A5F988AB1806D8AB9769A6E9881B3A2
:101AA000806F81BB899880B38D7080BB80E58CBDD1
:101AB00081E08DBD85E090E00E94F4075F9A85E0AB
:101AC00090E00E94F4075E985C98E8E1F8E0849169
:101AD0008EBD00000DB407FEFDCF319688E0E532E3
:101AE000F807A9F75C9A81E880936400809165000B
:101AF0008160809365000E940C0880E80E940108C4
:101B00008823A9F05C9885EA8EBD00000DB407FE1D
:101B1000FDCF5C9A2E982F982D988091640080625A
:101B20008093640081E083BF889513BEFCCF84E07E
:101B30000E940108882309F448C02D9884E80E9477
:101B400001088823E1F00E94F20788EC90E00E94EF
:101B5000F4072F9882E090E00E9497108F3F29F0C1
:101B60006FEF82E090E00E949F1084EF91E00E946E
:101B7000F4072F9A84E80E9401088111FBCF84E1C9
:101B80000E9401088823E1F00E94F20788EC90E0AF
:101B90000E94F4072E9882E090E00E94971088231C
:101BA00029F060E082E090E00E949F1084EF91E0D5
:101BB0000E94F4072E9A84E10E9401088111FBCF54
:101BC00088EC90E00E94F407B2CF0E94F20782E016
:101BD00090E00E944009882309F445C13E9A3F9A4B
:101BE00081E090E00E944009182F147081FF0EC020
:101BF00011112E98C1EFDFEF80E40E9401088823C5
:101C000009F434C12E9A2F9A0E94F20782E390E0E1
:101C10000E94F4070E94F9078111F8CF80E18093B8
:101C2000000100E010E0EE24E394F12CC8E0D0E0E5
:101C300080910D0190910E018130910509F0A5C1AF
:101C40000E949008882309F407C10E94BE041092E4
:101C500081011092800110927F0110927E0180E438
:101C60000E940108A82E80E20E940108A81ABB0861
:101C700080E10E940108C82E80E80E940108C81A6D
:101C8000DD0880917A0190917B01A114B10421F4C7
:101C9000C114D10409F446C120910101309102011F
:101CA00021503109309302012093010112161306CD
:101CB0006CF00196843091050CF02FC190937B015C
:101CC00080937A01D0930201C0930101C60101966D
:101CD000FC01EE0FFF1FE80FF91FC5010196E80F89
:101CE000F91FEE0FFF1FE15CFE4F80819181909301
:101CF0007D0180937C01B501BB0C880B990B0E9480
:101D0000BA119B01AC0160910701709108018091AB
:101D1000090190910A010E941111609307017093CB
:101D200008018093090190930A01B601DD0C880B2C
:101D3000990B0E94BA119B01AC0160910301709153
:101D4000040180910501909106010E941111609398
:101D50000301709304018093050190930601809024
:101D6000070190900801A0900901B0900A0120E0BD
:101D700030E040E151E4C501B4010E947D1187FFCC
:101D8000E4C080E090E0A0E1B1E48093070190938B
:101D90000801A0930901B0930A018090030190907B
:101DA0000401A0900501B090060120E030E040E879
:101DB00051E4C501B4010E947D1187FFD6C080E0C7
:101DC00090E0A0E8B1E48093030190930401A09314
:101DD0000501B093060190E080E00E94C408E09104
:101DE0007C01F0917D01EE0FFF1FEE0FFF1F809130
:101DF0007A0190917B01E80FF91FEE0FFF1FE15E62
:101E0000FE4FC080D18020E030E040E051E460919E
:101E100003017091040180910501909106010E94D7
:101E200010110E9482114B0120E030E040E151E4AA
:101E300060910701709108018091090190910A0158
:101E40000E9410110E948211CB0122E1A601B4016F
:101E50000E94CB040E940C080115110509F4E8CE7C
:101E60000E940000E5CE3E983F98BACE112329F09B
:101E7000C430D10511F42E9A2F9881E00E94780485
:101E800028E548E657E0BE0184E190E00E94CB04DB
:101E90000E940C088FE090E00E94F4072196C9315F
:101EA000D10509F0A9CE112311F02F9A2D9880E9C0
:101EB00091E00E94F4070E94F20781E090E00E9406
:101EC000400980FFA3CE8AE090E00E9440099FEF86
:101ED000980F9E3F08F09ACE22E330E030937F01C6
:101EE00020937E0128E330E030938101209380012C
:101EF000CBE0D0E0682F81EF95E00E942D08CE0165
:101F00000E9440092196C131D105A1F70E940C0819
:101F100088EE93E00E94F40779CE10927B01109234
:101F20007A01D0CE892B09F41ACF809101019091CA
:101F30000201089709F413CF10927B0110927A01E5
:101F4000D0930201C09301010ACF20E030E04EEEB1
:101F500052E4C501B4010E946A1218160CF01DCF9C
:101F600080E090E0AEEEB2E410CF20E030E040E65A
:101F700052E4C501B4010E946A1218160CF02BCF6E
:101F800080E090E0A0E6B2E41ECF029709F064CFB3
:101F90000E949008882309F45FCF0E94BE0410922B
:101FA00081011092800110927F0110927E01C090F9
:101FB0000B01D0900C01C6010E94C408C6018058D4
:101FC00091090E94C4081C141D0444F481E0C81A3D
:101FD000D108D0920C01C0920B013CCFF0920E01BF
:101FE000E0920D0137CF8F929F92AF92BF92CF9226
:101FF000DF92EF92FF92CF93DF93EC0168817981BA
:102000008A819B81611571058105910521F464E246
:1020100079ED8BE597E02DE133EF41E050E00E9450
:10202000AD1049015A019B01AC01A7EAB1E40E943D
:10203000CC106B017C01ACEEB4EFA50194010E94C1
:10204000DA10C60ED71EE81EF91EF7FE06C081E0A4
:10205000C81AD108E10880E8F80AC882D982EA8261
:10206000FB82C701B6019F77DF91CF91FF90EF9080
:10207000DF90CF90BF90AF909F908F9008958F92F8
:102080009F92AF92BF92CF92DF92EF92FF926091B8
:102090001B0170911C0180911D0190911E01611521
:1020A00071058105910521F464E279ED8BE597E0F6
:1020B0002DE133EF41E050E00E94AD1049015A019B
:1020C0009B01AC01A7EAB1E40E94CC106B017C013A
:1020D000ACEEB4EFA50194010E94DA10C60ED71E33
:1020E000E81EF91EF7FE06C081E0C81AD108E10813
:1020F00080E8F80AC0921B01D0921C01E0921D01F9
:10210000F0921E01C701B6019F77FF90EF90DF901C
:10211000CF90BF90AF909F908F90089560931B01D8
:1021200070931C0180931D0190931E010895F999ED
:10213000FECF92BD81BDF89A992780B50895262FCC
:10214000F999FECF1FBA92BD81BD20BD0FB6F8949C
:10215000FA9AF99A0FBE01960895052E97FB1EF480
:1021600000940E94C41057FD07D00E94DF1007FCA6
:1021700003D04EF40C94C4105095409530952195A1
:102180003F4F4F4F5F4F08959095809570956195A3
:102190007F4F8F4F9F4F08950E940111A59F900D73
:1021A000B49F900DA49F800D911D11240895B7FF39
:1021B0000C94CC100E94CC10821B930B0895A1E2CA
:1021C0001A2EAA1BBB1BFD010DC0AA1FBB1FEE1FB1
:1021D000FF1FA217B307E407F50720F0A21BB30BFC
:1021E000E40BF50B661F771F881F991F1A9469F778
:1021F00060957095809590959B01AC01BD01CF01D4
:102200000895A29FB001B39FC001A39F700D811DCF
:102210001124911DB29F700D811D1124911D0895EF
:102220005058BB27AA270E9428110C9430120E94F4
:10223000221238F00E94291220F039F49F3F19F43D
:1022400026F40C941F120EF4E095E7FB0C9419127F
:10225000E92F0E94411258F3BA17620773078407E7
:10226000950720F079F4A6F50C9463120EF4E0952E
:102270000B2EBA2FA02D0B01B90190010C01CA0140
:10228000A0011124FF27591B99F0593F50F4503EEB
:1022900068F11A16F040A22F232F342F4427585FDD
:1022A000F3CF469537952795A795F0405395C9F7F5
:1022B0007EF41F16BA0B620B730B840BBAF09150AD
:1022C000A1F0FF0FBB1F661F771F881FC2F70EC04C
:1022D000BA0F621F731F841F48F48795779567951F
:1022E000B795F7959E3F08F0B0CF9395880F08F00B
:1022F0009927EE0F9795879508950E94F51108F498
:1023000081E008950E9489116894B1110C946412BF
:1023100008950E94491288F09F5798F0B92F992785
:10232000B751B0F0E1F0660F771F881F991F1AF0C0
:10233000BA95C9F714C0B13091F00E946312B1E0B0
:1023400008950C946312672F782F8827B85F39F0AF
:10235000B93FCCF3869577956795B395D9F73EF459
:1023600090958095709561957F4F8F4F9F4F089501
:10237000E89409C097FB3EF490958095709561951F
:102380007F4F8F4F9F4F9923A9F0F92F96E9BB27D5
:102390009395F695879577956795B795F111F8CF51
:1023A000FAF4BB0F11F460FF1BC06F5F7F4F8F4FBC
:1023B0009F4F16C0882311F096E911C0772321F0B2
:1023C0009EE8872F762F05C0662371F096E8862F4A
:1023D00070E060E02AF09A95660F771F881FDAF7A1
:1023E000880F9695879597F90895990F0008550FCE
:1023F000AA0BE0E8FEEF16161706E807F907C0F08B
:1024000012161306E407F50798F0621B730B840B92
:10241000950B39F40A2661F0232B242B252B21F46C
:1024200008950A2609F4A140A6958FEF811D811D0C
:10243000089597F99F6780E870E060E008959FEF46
:1024400080EC089500240A9416161706180609064B
:10245000089500240A94121613061406050608951A
:10246000092E0394000C11F4882352F0BB0F40F4A2
:10247000BF2B11F460FF04C06F5F7F4F8F4F9F4FE2
:10248000089557FD9058440F551F59F05F3F71F064
:102490004795880F97FB991F61F09F3F79F08795CB
:1024A0000895121613061406551FF2CF4695F1DF54
:1024B00008C0161617061806991FF1CF86957105E4
:1024C000610508940895E894BB2766277727CB0118
:1024D00097F908950E94F51108F48FEF0895EE0F13
:0E24E000FF1F0590F491E02D0994F894FFCFB2
:1024EE00100800000000420000804280000200FF41
:1024FE00FFFFFF00E10000000000000100000038B7
:10250E000214023802F001CC01A801CC0184016052
:10251E00013C0160011801F400D000F400AC00028F
:10252E000002000200010001000300000000000094
:10253E000000C1808100000000000000D5054007AA
:10254E00F605EB053C06FA051806000000002D08FE
:06255E00C5073D093C0920
:00000001FF
