:100000000C9474030C949C030C949C030C949C031C
:100010000C949C030C949C030C949C030C949C03E4
:100020000C949C030C949C030C94A3070C9412084E
:100030000C949C030C949C030C949C030C949C03C4
:100040000C949C030C949C030C949C030C949C03B4
:100050000C949C030C949C030C949C030C94440AF5
:100060000C949C030C949C030C949C030C949C0394
:100070000C949C030C949C030C949C030C949C0384
:100080000C949C030C949C030C949C030C949C0374
:100090000C949C030C949C030C949C030C949C0364
:1000A0000C949C030C949C030C949C030000000093
:1000B000003E5B4F5B3E3E6B4F6B3E1C3E7C3E1CEE
:1000C000183C7E3C181C577D571C1C5E7F5E1C0034
:1000D000183C1800FFE7C3E7FF0018241800FFE7EB
:1000E000DBE7FF30483A060E2629792926407F05AE
:1000F0000507407F05253F5A3CE73C5A7F3E1C1CC4
:1001000008081C1C3E7F14227F22145F5F005F5F83
:1001100006097F017F006689956A6060606060946F
:10012000A2FFA29408047E040810207E2010080874
:100130002A1C08081C2A08081E101010100C1E0C7F
:100140001E0C30383E3830060E3E0E060000000011
:100150000000005F00000007000700147F147F14F8
:10016000242A7F2A1223130864623649562050003D
:1001700008070300001C2241000041221C002A1C29
:100180007F1C2A08083E0808008070300008080814
:100190000808000060600020100804023E51494534
:1001A0003E00427F400072494949462141494D3352
:1001B0001814127F1027454545393C4A49493141B9
:1001C000211109073649494936464949291E000087
:1001D00014000000403400000008142241141414DC
:1001E0001414004122140802015909063E415D59C8
:1001F0004E7C1211127C7F494949363E41414122D1
:100200007F4141413E7F494949417F090909013EFA
:10021000414151737F0808087F00417F4100204021
:10022000413F017F081422417F404040407F021C33
:10023000027F7F0408107F3E4141413E7F0909094A
:10024000063E4151215E7F09192946264949493216
:1002500003017F01033F4040403F1F2040201F3FDC
:100260004038403F63140814630304780403615961
:10027000494D43007F4141410204081020004141A3
:10028000417F04020102044040404040000307084F
:100290000020545478407F2844443838444444284B
:1002A000384444287F385454541800087E090218F2
:1002B000A4A49C787F0804047800447D400020407A
:1002C000403D007F1028440000417F40007C0478BE
:1002D00004787C080404783844444438FC18242406
:1002E0001818242418FC7C08040408485454542486
:1002F00004043F44243C4040207C1C2040201C3C03
:100300004030403C44281028444C9090907C4464F9
:10031000544C44000836410000007700000041368C
:10032000080002010204023C2623263C1EA1A16112
:10033000123A4040207A3854545559215555794144
:100340002154547841215554784020545579400C1B
:100350001E527212395555555939545454593955FC
:100360005454580000457C410002457D420001453F
:100370007C40F0292429F0F0282528F07C545545AC
:10038000002054547C547C0A097F4932494949323F
:100390003248484832324A4848303A4141217A3A54
:1003A00042402078009DA0A07D39444444393D401E
:1003B00040403D3C24FF2424487E4943662B2FFCCB
:1003C0002F2BFF0929F620C0887E09032054547979
:1003D000410000447D413048484A32384040227A4A
:1003E000007A0A0A727D0D19317D2629292F2826C7
:1003F0002929292630484D402038080808080808CF
:100400000808382F10C8ACBA2F102834FA00007B27
:10041000000008142A142222142A1408950022002D
:1004200095AA005500AAAA55AA55AA000000FF00E7
:10043000101010FF00141414FF001010FF00FF1024
:1004400010F010F0141414FC001414F700FF000056
:10045000FF00FF1414F404FC141417101F10101FD5
:10046000101F1414141F00101010F0000000001FC3
:10047000101010101F10101010F010000000FF10CE
:100480001010101010101010FF10000000FF1400CA
:1004900000FF00FF00001F10170000FC04F41414FC
:1004A0001710171414F404F40000FF00F7141414C8
:1004B00014141414F700F7141414171410101F1048
:1004C0001F141414F4141010F010F000001F101F6B
:1004D0000000001F14000000FC140000F010F010D9
:1004E00010FF10FF141414FF141010101F00000050
:1004F00000F010FFFFFFFFFFF0F0F0F0F0FFFFFF54
:100500000000000000FFFF0F0F0F0F0F38444438AA
:10051000447C2A2A3E147E02020606027E027E02E5
:1005200063554941633844443C04407E201E200604
:10053000027E020299A5E7A5991C2A492A1C4C7241
:1005400001724C304A4D4D303048784830BC625AC8
:10055000463D3E494949007E0101017E2A2A2A2A58
:100560002A44445F444440514A444040444A514034
:100570000000FF0103E080FF000008086B6B0836F5
:1005800012362436060F090F060000181800000066
:100590001010003040FF0101001F01011E00191D55
:1005A0001712003C3C3C3C0000000000F0F89C8E20
:1005B0008783878E9CF8F00000FEFF03030303038C
:1005C000070EFCF80000FEFF0303030303070EFC05
:1005D000F80000FFFF00000000000000FFFF000027
:1005E000FEFF8383838383C7EE7C380000F8FC0E14
:1005F00007030303070EFCF800003F7FE0C0808084
:10060000C0E07F3FFFFF01010101010101FFFF0089
:1006100000FFFF0C0C0C0C1C3E77E3C100007FFFB9
:10062000C0C0C0C0C0E0703F1F00001F3F70E0C0EE
:10063000C0C0E0703F1F00007FFFC1C1C1C1C1E366
:10064000773E1C00001F3F70E0C0C0C0E0703F1F3D
:10065000000000000001FFFF01000000D5F08D1434
:10066000A1C881CFD9F1AF2000FF81BDA5A5BD8173
:10067000FF080B0002020200000904000001020250
:1006800000000524001001052401010104240206D4
:10069000052406000107058103100040090401003C
:1006A000020A00000007050202400000070583025D
:1006B0004000000403090412010002EF020140415E
:1006C00023368000010102030141726475696E6F77
:1006D000204C4C430041726475696E6F204C656F0D
:1006E0006E6172646F00C10A11241FBECFEFDAE0A1
:1006F000DEBFCDBF11E0A0E0B1E0EAE2FEE102C062
:1007000005900D92AA33B107D9F725E0AAE3B1E02D
:1007100001C01D92A13BB207E1F713E0C4E7D3E0AB
:1007200004C02197FE010E940D0FC337D107C9F7FE
:100730000E94DE0A0C94130F0C940000EDE5F1E02A
:10074000A0E0B8E000800EBC8111012C1197A0FD43
:10075000FDCF0192B9F70DB408952F923F924F92B9
:100760005F926F927F928F929F92AF92BF92CF9241
:10077000DF92EF92FF920F931F93CF93DF9300D0FE
:1007800000D000D01F92CDB7DEB7FB01E00FF11D06
:100790001E161F060CF0AAC0603471050CF0A6C02E
:1007A000DB0177FF04C0AA27BB27A61BB70BA770E6
:1007B000BB277A83698377FF04C0FB013796FA83EE
:1007C000E98329803A80E3E035942794EA95E1F7BC
:1007D0003D822C8277FF0BC0B101615071097D838E
:1007E0006C8368E070E0FB01EA1BFB0BDF0130E08B
:1007F000069506950695402E512C8A014C815D8107
:100800005695542F442757954795840F951F4C8133
:100810005D81F12CE12CBC01635A7E4F5B01835258
:100820009E4F68E070E01B012A1A3B0A3F822E822D
:100830004F3F6FEF56070CF446C035016E0C7F1C1E
:100840004C018E0C9F1C70E060E04F3F540709F490
:1008500066C0F801E60FF71FE4916301C60ED71ECC
:100860002E2E312CF1010A2E02C0EE0FFF1F0A942A
:10087000E2F7FA83E983F6012080F9812F2AF60155
:1008800020821097D1F047305105B9F0F801E60FFA
:10089000F71FE4916401C60ED71EF0E01F010E8021
:1008A00002C0359427940A94E2F73A822982F6012D
:1008B0002080F9812F2AF60120826F5F7F4F621717
:1008C00073070CF4C2CF4F5F5F4F020F131FF0E8A6
:1008D000EF0EF11CBA012C803D806219730964157A
:1008E000750524F44830510509F0A2CF27960FB6BC
:1008F000F894DEBF0FBECDBFDF91CF911F910F9156
:10090000FF90EF90DF90CF90BF90AF909F908F902F
:100910007F906F905F904F903F902F900895109729
:1009200061F2B4CFFC0180915C01882311F13FB7E3
:10093000F89482E08093E9002091F200822F90E009
:100940001816190614F481E090E0882339F02898ED
:1009500044E640935B014091F1004083222339F04B
:100960002091F200211103C02BE62093E8003FBF45
:1009700008958FEF9FEF08952FB7F89483E0809349
:10098000E9009091E800892F807295FF04C0909152
:10099000F20080E4891B2FBF0895809153018111DB
:1009A0000DC082E080934F0184E08093500110924B
:1009B00052011092510181E0809353018FE491E044
:1009C0000895CF93DF931F92CDB7DEB76983DC0123
:1009D000ED91FC910280F381E02D41E050E0BE01F9
:1009E0006F5F7F4F09950F90DF91CF91089583E05E
:1009F0008093E9008091F200882319F08AE38093C4
:100A0000E80008950E94BC0490E00895CF93DF931E
:100A10001F92CDB7DEB7FC018485958597FD08C090
:100A20002FEF3FEF358724870F90DF91CF91089507
:100A3000CE0101960E949204019719F4898190E0F9
:100A4000F3CF8FEF9FEFF0CF0F931F93CF93DF93F1
:100A50001F92CDB7DEB78C01FC018485958597FF89
:100A60000BC0CE0101960E949204019771F4898116
:100A700090E0F80195878487F801848595850F902B
:100A8000DF91CF911F910F9108958FEF9FEFF1CFDD
:100A9000FC018485958597FD0BC09FB7F89482E093
:100AA0008093E9008091F2009FBF90E00196089545
:100AB0009FB7F89482E08093E9008091F2009FBF95
:100AC00090E008954091490150914A0120914701D9
:100AD0003091480142175307B4F49091E8009570A3
:100AE000E1F39091E80092FD19C08093F1008091AC
:100AF000490190914A0101968F739927892B19F426
:100B00008EEF8093E8008091490190914A0101960F
:100B100090934A018093490181E0089580E008950F
:100B2000DF92EF92FF920F931F93CF93DF93D82E14
:100B30008A01EB017B01E40EF51ECE15DF0559F0AD
:100B4000D7FE12C0FE0184910E9462052196811198
:100B5000F4CF0FEF1FEFC801DF91CF911F910F91DD
:100B6000FF90EF90DF9008958881EECF0F931F9351
:100B7000CF93DF931F92CDB7DEB782E0898342E443
:100B800050E061E776E080E80E9490050E94CD0485
:100B9000DC0112960D911C910115110589F0D80107
:100BA000ED91FC910280F381E02DBE016F5F7F4FDC
:100BB000C801099597FD04C0F80100851185ECCFA7
:100BC00089810F90DF91CF911F910F91089561500E
:100BD00030F02091F100FC0120830196F8CF289895
:100BE00084E680935B0108953FB7F89480914301B8
:100BF00090914401A0914501B091460126B5A89B72
:100C000005C02F3F19F00196A11DB11D3FBFBA2F9E
:100C1000A92F982F8827BC01CD01620F711D811D5E
:100C2000911D42E0660F771F881F991F4A95D1F7E3
:100C300008958F929F92AF92BF92CF92DF92EF92E0
:100C4000FF926B017C010E94F4054B015C01C11411
:100C5000D104E104F104B9F00E94F405681979099E
:100C60008A099B09683E73408105910580F321E064
:100C7000C21AD108E108F10888EE880E83E0981EB8
:100C8000A11CB11CE4CFFF90EF90DF90CF90BF90FC
:100C9000AF909F908F9008958F929F92AF92BF9246
:100CA000CF92DF92EF92FF920F931F93CF93DF9338
:100CB0006C017B018A0180911301882309F45CC0D7
:100CC00080915C01882309F457C080914E0180FF18
:100CD00005C08091E00082608093E000E801B12CC3
:100CE0008AEFA82E93E0892E2AE3922E209711F402
:100CF000BB20D9F10E94BC0481110AC0AA94AA2089
:100D0000D9F161E070E080E090E00E941906EECF3A
:100D10008C171D0611F00CF08C2F9FB7F894809261
:100D2000E9002091E80025FD02C09FBFDFCF282FFA
:100D300030E0C21BD30BF701815020F0419140936A
:100D4000F100FACFE20EF31EBB2021F09092E800F2
:100D5000B12CEBCF8091E80085FDE7CF9092E800C1
:100D6000BB24B394209709F3F3CF5D9884E6809376
:100D70004D01101611063CF081E090E0F6019383DE
:100D8000828310E000E0C801DF91CF911F910F91A5
:100D9000FF90EF90DF90CF90BF90AF909F908F909B
:100DA0000895AF92BF92CF92DF92EF92FF920F938E
:100DB0001F93CF93DF936C017B018B01040F151FF1
:100DC000EB015E01AE18BF08C017D10759F0699159
:100DD000D601ED91FC910190F081E02DC6010995BD
:100DE000892B79F7C501DF91CF911F910F91FF906A
:100DF000EF90DF90CF90BF90AF9008952D9A089517
:100E0000BC0190E080E00C9419068FB18095807F42
:100E1000669B88601C9B8460089520E191E061FDE1
:100E200094E060FD990F62FD9295687F269FD00146
:100E30001124A80FA35ABE4F8C9140FF03C0892BE9
:100E40008C93089590958923FBCF8F929F92AF92B8
:100E5000BF92CF92DF92EF92FF920F931F93CF93A7
:100E6000DF936D3089F0C0903C01D0903D016A3035
:100E7000D1F410923B0110923A0188E0C80ED11CC7
:100E8000D0923D01C0923C0181E090E0DF91CF9192
:100E90001F910F91FF90EF90DF90CF90BF90AF9098
:100EA0009F908F90089500913A0110913B01E5E0E9
:100EB0006E9FE0011124C455DF4F5801F12CF5E07D
:100EC000E12CFF1629F0CE010196FE01E490EC0121
:100ED000912C812CF0E8AF16B10458F4B601680DDE
:100EE000791D6034710528F44E2D4170C5010E94B2
:100EF0000D07E6948FEF881A980AE8E08E169104A1
:100F000049F7F394FFEFAF1ABF0A86E0F812D7CF84
:100F10000A5F1F4F10933B0100933A01B5CFCF9367
:100F2000C82F0E940507982F9C2381E09C1380E026
:100F3000CF91089580E00C949E03089590E080E0A6
:100F400008950C94590D1F920F920FB60F92112411
:100F50008F939F938091E1009091E100937F909314
:100F6000E10083FF0FC01092E90091E09093EB0045
:100F70001092EC0092E39093ED0010925C0198E0E7
:100F80009093F00082FF22C093E09093E90090914B
:100F9000F200992319F09AE39093E80090914D01A3
:100FA000992341F090914D01915090934D019111F1
:100FB00001C05D9A90915B01992341F090915B0192
:100FC000915090935B01911101C0289A84FF18C041
:100FD0008091E2008E7E81608093E2008091E1004A
:100FE0008F7E8093E10080914E018E7E80618093A0
:100FF0004E019F918F910F900FBE0F901F901895EB
:1010000080FFF7CF8091E2008E7E80618093E200C6
:101010008091E1008E7E8093E10080914E018E7E72
:101020008160E5CF1F920F920FB60F921124CF92DD
:10103000DF92EF92FF920F931F932F933F934F9363
:101040005F936F937F938F939F93AF93BF93EF9330
:10105000FF93CF93DF93CDB7DEB76C97DEBFCDBFE5
:101060001092E9008091E80083FF25C068E0CE017E
:1010700045960E94E70582EF8093E8008D8987FFFF
:1010800039C09091E80090FFFCCF982F907609F03E
:1010900034C19E894F89588D2F89F88C911131C0A8
:1010A000803861F580914C018093F1001092F1003D
:1010B0008EEF8093E8006C960FB6F894DEBF0FBEFB
:1010C000CDBFDF91CF91FF91EF91BF91AF919F91F4
:1010D0008F917F916F915F914F913F912F911F91D0
:1010E0000F91FF90EF90DF90CF900F900FBE0F9079
:1010F0001F9018959EEF9093E800C7CF1092F100D3
:10110000D5CF913059F48111D3CF4130510581F6BB
:1011100080914C018D7F80934C01CACF933049F46C
:101120008111C6CF4130510519F680914C01826082
:10113000F2CF953041F48091E80080FFFCCF206829
:101140002093E300B5CF963009F0A9C00B8D1C8D1C
:1011500022E01092E90010924A0110924901F21225
:101160002EC010924801109247010E94B6051F82BE
:1011700099E09983FA8291E09E8390EA98879AEFAA
:1011800099872091490130914A01275F3F4F3C8365
:101190002B838D831092E90010924A01109249012D
:1011A000109348010093470149E050E0BE016F5F92
:1011B0007F4F80E00E9490050E94B60579CF109382
:1011C0004801009347010E94CD04DC0112960D9165
:1011D0001C910115110509F451C1D801ED91FC9143
:1011E0000480F581E02DBE016B5E7F4FC80109953B
:1011F000009709F03EC1F80100851185EACFF3E0C0
:10120000FF120EC08F89882309F440C0823061F438
:1012100040E860E185ED96E00E948E0A811148CF9A
:1012200081E28093EB0047CF813029F440E86BE006
:1012300089EC96E0F1CF833099F70E94CD04DC0170
:101240001296ED90FC908E010F5F1F4F6801E11424
:10125000F10479F0D701ED91FC910680F781E02D42
:10126000B801C7010995080F111DF701E084F18449
:10127000EECFD8011C92F60101900020E9F73197DA
:10128000BF016C197D0940E0C601C6CF63EB76E073
:10129000FB01449150E080E80E94900509CF97300F
:1012A00009F4BECF983021F481E08093F10000CFA3
:1012B000993009F0FDCE837009F0B2CFE5E1F1E09D
:1012C00081E031E096E32191222371F08093E900DF
:1012D0003093EB00DF0111972C912093EC00909359
:1012E000ED008F5F873079F78EE78093EA001092E8
:1012F000EA008F8980935C01DBCE8B8D9C8D1092F0
:10130000E90010924A01109249019093480180939C
:101310004701898D811192C08E899D89913A49F446
:10132000813209F07DCF47E050E06CE071E080E071
:10133000B3CF913209F074CF833269F48F89988DDD
:10134000B0E0A0E08093080190930901A0930A0106
:10135000B0930B01ADCE803269F48091E80082FF3A
:10136000FCCF67E08CE091E00E94E7058BEF809373
:10137000E8009ECE823209F09BCE8F8980931301C4
:10138000EEEFFFE7859194918B3F9C4D51F1E0E0AA
:10139000F8E080910C0190910D01A0910E01B091A7
:1013A0000F01803B9440A105B105F1F48091130138
:1013B00080FD1AC0EE3F8AE0F80789F587E797E7D6
:1013C000918380838091600080934B0188E19BE052
:1013D0000FB6F894A895809360000FBE90936000BC
:1013E00067CEEEEFFAE0D5CF8081918187379747BE
:1013F00009F05ECEA89580916000886180936000BE
:1014000080914B0180936000EE3F2AE0F20789F063
:101410008091FE0A9091FF0A9183808349CE80815A
:1014200091818737980751F29093FF0A8093FE0AC3
:10143000C5CF1092FF0A1092FE0A3ACE0E94CD0448
:10144000DC0112960D911C910115110509F4E8CEED
:10145000D801ED91FC910190F081E02DBE016B5E11
:101460007F4FC8010995811123CEF80100851185B0
:10147000EBCF181619060CF41BCED2CEF1E0FF12FA
:10148000BECE67EB76E004CF1F920F920FB60F929D
:1014900011242F933F938F939F93AF93BF9380918A
:1014A0003F0190914001A0914101B09142013091E2
:1014B0003E0123E0230F2D3758F50196A11DB11DE4
:1014C00020933E0180933F0190934001A0934101FE
:1014D000B09342018091430190914401A091450154
:1014E000B09146010196A11DB11D809343019093D7
:1014F0004401A0934501B0934601BF91AF919F91E4
:101500008F913F912F910F900FBE0F901F901895C4
:1015100026E8230F0296A11DB11DD2CFEF92FF92B4
:101520000F931F93CF93DF93F82E192FE62E042FDE
:1015300081E0860F880F0E94620583E00E946205A9
:10154000CF2DD12FEC0EFD2EF11CCE15DF05B9F0FD
:1015500007FF13C0FE0184910E946205182F80E0EE
:101560000E946205812321968111EFCFDF91CF91F7
:101570001F910F91FF90EF9008958881EDCF81E04A
:10158000F5CFEDE5F5E01382128288EE93E0A0E05E
:10159000B0E084839583A683B7838FE191E0918344
:1015A00080838FEF9FEF95878487EDEAF5E01382C4
:1015B000128281E391E0918380830895789484B5C9
:1015C000826084BD84B5816084BD85B5826085BD3F
:1015D00085B5816085BD80916E00816080936E00CD
:1015E00010928100809181008260809381008091BF
:1015F0008100816080938100809180008160809370
:101600008000809191008260809391008091910090
:101610008160809391008091900081608093900020
:101620008091C10084608093C1008091C10082607C
:101630008093C1008091C10081608093C10080913E
:10164000C30081608093C3008091C000826080935A
:10165000C0008091C20081608093C20080917A00B6
:10166000846080937A0080917A00826080937A000F
:1016700080917A00816080937A0080917A008068FE
:1016800080937A0010925C0110924C0110924E01EE
:101690008091D70081608093D70080EA8093D80042
:1016A00089B5806189BD89B5826089BD09B400FEB4
:1016B000FDCF61E070E080E090E00E94190680912B
:1016C000D8008F7C80618093D8008091E000807F7B
:1016D0008093E0008091E1008E7E8093E1008DE0B8
:1016E0008093E200559A209A81EC80937C0085B12A
:1016F000806F85B984B1877E84B984B1876E84B9DF
:101700005E9A5F988AB1806D8AB9769A6E9881B335
:10171000806F81BB899880B38D7080BB80E58CBD64
:1017200081E08DBD85E090E00E9400075F9A85E032
:1017300090E00E9400075E985C98ECE5F6E08491EA
:101740008EBD00000DB407FEFDCF319626E0E936D0
:10175000F207A9F75C9A81E88093640080916500A4
:101760008160809365000E949A0780E80E948F073D
:101770008823A9F05C9885EA8EBD00000DB407FEB1
:10178000FDCF5C9A2E982F982D98809164008062EE
:101790008093640081E083BF889513BEFCCF84E012
:1017A0000E948F07882309F448C02D9884E80E947E
:1017B0008F078823E1F00E94FE0688EC90E00E94EB
:1017C00000072F9882E090E00E94590D8F3F29F08A
:1017D0006FEF82E090E00E94610D84EF91E00E9443
:1017E00000072F9A84E80E948F078111FBCF84E1C4
:1017F0000E948F078823E1F00E94FE0688EC90E0AB
:101800000E9400072E9882E090E00E94590D8823E4
:1018100029F060E082E090E00E94610D84EF91E0A9
:101820000E9400072E9A84E10E948F078111FBCF4E
:1018300088EC90E00E940007B2CF0E94FE0682E092
:1018400090E00E94A107882309F4CDC03E9A3F9AF8
:1018500081E090E00E94A107182F147081FF0EC054
:1018600011112E98C1EFDFEF80E40E948F078823CB
:1018700009F4BCC02E9A2F9A0E94FE0682E390E0E3
:101880000E9400070E9405078111F8CF512C8DE5B9
:10189000682E81E0782E90E0292E90E0392E852D5B
:1018A000F30181118FEF00248193819381938193C0
:1018B0000394D1F710923D0110923C0110923B012C
:1018C00010923A0180E40E948F07082F80E20E9464
:1018D0008F07081B110B80E10E948F07C82F80E83B
:1018E0000E948F07D82FB801110F880B990B0E9407
:1018F000140E2DEC3CEC4CEC5DE30E94A00E20910C
:1019000004013091050140910601509107010E94A8
:10191000700D6B017C01C0920401D0920501E09230
:101920000601F09207018C2F8D1B990BBC01072E2D
:10193000000C880B990B0E94140E2DEC3CEC4CEC27
:101940005DE30E94A00E20910001309101014091C1
:101950000201509103010E94700D4B015C018092C5
:10196000000190920101A0920201B092030108E0EF
:1019700028E049E656E062E070E082E090E00E94F4
:10198000AD03C501B4010E94DC0D8B01C701B60196
:101990000E94DC0DEB016B0122E0C20ED11C58014C
:1019A00082E0A80EB11CCC16DD0609F479C07801DE
:1019B00017FF02C0F12CE12CC50121E4A216B104ED
:1019C00014F080E490E0E816F9060CF067C0C03827
:1019D000D10528F441E0B701CE010E940D078FEF39
:1019E000E81AF80AE9CF3E983F9832CF112329F040
:1019F000C430D10511F42E9A2F9881E00E949E03E5
:101A000000E128E54CEA55E0BE0184E190E00E9447
:101A1000AD030E949A078FE090E00E940007219694
:101A2000C931D10509F020CF112311F02F9A2D983B
:101A300080E991E00E9400070E94FE0681E090E0AC
:101A40000E94A10780FF1ACF8AE090E00E94A107C0
:101A50009FEF980F9E3F08F011CF22E330E03093C4
:101A60003B0120933A0128E330E030933D0120937D
:101A70003C01CBE0D0E0682F8DEA95E00E9425077D
:101A8000CE010E94A1072196C131D105A1F70E9484
:101A90009A0788EE93E00E940007F0CE219683CF4C
:101AA0000E949A072114310409F4F9CE0E94000023
:101AB000F6CEF999FECF92BD81BDF89A992780B5EF
:101AC0000895262FF999FECF1FBA92BD81BD20BD82
:101AD0000FB6F894FA9AF99A0FBE019608955058E5
:101AE000BB27AA270E94870D0C94660E0E94580EF1
:101AF00038F00E945F0E20F039F49F3F19F426F46D
:101B00000C94550E0EF4E095E7FB0C944F0EE92F64
:101B10000E94770E58F3BA17620773078407950778
:101B200020F079F4A6F50C94990E0EF4E0950B2EA6
:101B3000BA2FA02D0B01B90190010C01CA01A0011F
:101B40001124FF27591B99F0593F50F4503E68F17A
:101B50001A16F040A22F232F342F4427585FF3CFBB
:101B6000469537952795A795F0405395C9F77EF48C
:101B70001F16BA0B620B730B840BBAF09150A1F0D5
:101B8000FF0FBB1F661F771F881FC2F70EC0BA0F5B
:101B9000621F731F841F48F4879577956795B795E3
:101BA000F7959E3F08F0B0CF9395880F08F09927DE
:101BB000EE0F9795879508950E94E30D6894B111F3
:101BC0000C949A0E08950E947F0E88F09F5798F00B
:101BD000B92F9927B751B0F0E1F0660F771F881F32
:101BE000991F1AF0BA95C9F714C0B13091F00E944C
:101BF000990EB1E008950C94990E672F782F8827DD
:101C0000B85F39F0B93FCCF3869577956795B39572
:101C1000D9F73EF490958095709561957F4F8F4FE1
:101C20009F4F0895E89409C097FB3EF490958095E6
:101C3000709561957F4F8F4F9F4F9923A9F0F92F92
:101C400096E9BB279395F695879577956795B79510
:101C5000F111F8CFFAF4BB0F11F460FF1BC06F5FF6
:101C60007F4F8F4F9F4F16C0882311F096E911C008
:101C7000772321F09EE8872F762F05C0662371F029
:101C800096E8862F70E060E02AF09A95660F771F3D
:101C9000881FDAF7880F9695879597F9089597F931
:101CA0009F6780E870E060E008959FEF80EC089502
:101CB00000240A941616170618060906089500242B
:101CC0000A9412161306140605060895092E0394A5
:101CD000000C11F4882352F0BB0F40F4BF2B11F419
:101CE00060FF04C06F5F7F4F8F4F9F4F089557FD78
:101CF0009058440F551F59F05F3F71F04795880F7A
:101D000097FB991F61F09F3F79F087950895121610
:101D100013061406551FF2CF4695F1DF08C01616BC
:101D200017061806991FF1CF86957105610508946D
:101D30000895E894BB2766277727CB0197F9089584
:101D40000E94B30E0C94660E0E94580E38F00E944A
:101D50005F0E20F0952311F00C944F0E0C94550E4D
:101D600011240C949A0E0E94770E70F3959FC1F384
:101D7000950F50E0551F629FF001729FBB27F00D39
:101D8000B11D639FAA27F00DB11DAA1F649F66278E
:101D9000B00DA11D661F829F2227B00DA11D621FDD
:101DA000739FB00DA11D621F839FA00D611D221F97
:101DB000749F3327A00D611D231F849F600D211D7B
:101DC000822F762F6A2F11249F5750409AF0F1F0FE
:101DD00088234AF0EE0FFF1FBB1F661F771F881F67
:101DE00091505040A9F79E3F510580F00C944F0E42
:101DF0000C949A0E5F3FE4F3983ED4F38695779562
:101E00006795B795F795E7959F5FC1F7FE2B880F0C
:101E1000911D9695879597F90895EE0FFF1F0590F0
:0A1E2000F491E02D0994F894FFCF2F
:101E2A000000004200008042FFFFFFFF00E10000C7
:101E3A000000000000C1808100000000000000E1F5
:101E4A00044C060205F704480506052405000000AF
:0A1E5A00002507D1069E079D070032
:00000001FF
